{
  "contractName": "ERC223Compliant",
  "abi": [
    {
      "constant": false,
      "inputs": [
        {
          "name": "_from",
          "type": "address"
        },
        {
          "name": "_value",
          "type": "uint256"
        },
        {
          "name": "_data",
          "type": "bytes"
        }
      ],
      "name": "tokenFallback",
      "outputs": [],
      "payable": false,
      "stateMutability": "nonpayable",
      "type": "function"
    }
  ],
  "bytecode": "0x608060405234801561001057600080fd5b50610105806100206000396000f300608060405260043610603f576000357c0100000000000000000000000000000000000000000000000000000000900463ffffffff168063c0ee0b8a146044575b600080fd5b348015604f57600080fd5b5060d2600480360381019080803573ffffffffffffffffffffffffffffffffffffffff16906020019092919080359060200190929190803590602001908201803590602001908080601f016020809104026020016040519081016040528093929190818152602001838380828437820191505050505050919291929050505060d4565b005b5050505600a165627a7a72305820c15f5c48d03250066933d9f81b47c765bd2763fba6f24f4f6e3bfe8eb879ae980029",
  "source": "pragma solidity ^0.4.11;\r\n\r\nlibrary SafeMath {\r\n    function sub(uint256 a, uint256 b) internal constant returns (uint256) {\r\n        assert(b <= a);\r\n        return a - b;\r\n    }\r\n    function add(uint256 a, uint256 b) internal constant returns (uint256) {\r\n        uint256 c = a + b;\r\n        assert(c >= a);\r\n        return c;\r\n    }\r\n}\r\n\r\ncontract ERC223Compliant {\r\n    function tokenFallback(address _from, uint _value, bytes _data) {}\r\n}\r\n\r\ncontract EtheraffleLOT is ERC223Compliant {\r\n    using SafeMath for uint;\r\n\r\n    string    public name;\r\n    string    public symbol;\r\n    bool      public frozen;\r\n    uint8     public decimals;\r\n    address[] public freezers;\r\n    address   public etheraffle;\r\n    uint      public totalSupply;\r\n\r\n    mapping (address => uint) public balances;\r\n    mapping (address => bool) public canFreeze;\r\n\r\n    event LogFrozenStatus(bool status, uint atTime);\r\n    event LogFreezerAddition(address newFreezer, uint atTime);\r\n    event LogFreezerRemoval(address freezerRemoved, uint atTime);\r\n    event LogEtheraffleChange(address prevER, address newER, uint atTime);\r\n    event LogTransfer(address indexed from, address indexed to, uint value, bytes indexed data);\r\n\r\n    /**\r\n     * @dev   Modifier function to prepend to methods rendering them only callable\r\n     *        by the Etheraffle MultiSig wallet.\r\n     */\r\n    modifier onlyEtheraffle() {\r\n        require(msg.sender == etheraffle);\r\n        _;\r\n    }\r\n    /**\r\n     * @dev   Modifier function to prepend to methods rendering them only callable\r\n     *        by address approved for freezing.\r\n     */\r\n    modifier onlyFreezers() {\r\n        require(canFreeze[msg.sender]);\r\n        _;\r\n    }\r\n    /**\r\n     * @dev   Modifier function to prepend to methods to render them only callable\r\n     *        when the frozen toggle is false\r\n     */\r\n    modifier onlyIfNotFrozen() {\r\n        require(!frozen);\r\n        _;\r\n    }\r\n    /**\r\n     * @dev   Constructor: Sets the meta data for the token and gives the intial supply to the\r\n     *        Etheraffle ICO.\r\n     *\r\n     * @param _etheraffle   Address of the Etheraffle's multisig wallet, the only\r\n     *                      address via which the frozen/unfrozen state of the\r\n     *                      token transfers can be toggled.\r\n     * @param _supply       Total numner of LOT to mint on contract creation.\r\n\r\n     */\r\n    function EtheraffleLOT(address _etheraffle, uint _supply) {\r\n        freezers.push(_etheraffle);\r\n        name                   = \"Etheraffle LOT\";\r\n        symbol                 = \"LOT\";\r\n        decimals               = 6;\r\n        etheraffle             = _etheraffle;\r\n        totalSupply            = _supply * 10 ** uint256(decimals);\r\n        balances[_etheraffle]  = totalSupply;\r\n        canFreeze[_etheraffle] = true;\r\n    }\r\n    /**\r\n     * ERC223 Standard functions:\r\n     *\r\n     * @dev Transfer the specified amount of LOT to the specified address.\r\n     *      Invokes the `tokenFallback` function if the recipient is a contract.\r\n     *      The token transfer fails if the recipient is a contract\r\n     *      but does not implement the `tokenFallback` function\r\n     *      or the fallback function to receive funds.\r\n     *\r\n     * @param _to     Receiver address.\r\n     * @param _value  Amount of LOT to be transferred.\r\n     * @param _data   Transaction metadata.\r\n     */\r\n    function transfer(address _to, uint _value, bytes _data) onlyIfNotFrozen external {\r\n        uint codeLength;\r\n        assembly {\r\n            codeLength := extcodesize(_to)\r\n        }\r\n        balances[msg.sender] = balances[msg.sender].sub(_value);\r\n        balances[_to]        = balances[_to].add(_value);\r\n        if(codeLength > 0) {\r\n            ERC223Compliant receiver = ERC223Compliant(_to);\r\n            receiver.tokenFallback(msg.sender, _value, _data);\r\n        }\r\n        LogTransfer(msg.sender, _to, _value, _data);\r\n    }\r\n    /**\r\n     * @dev   Transfer the specified amount of LOT to the specified address.\r\n     *        Standard function transfer similar to ERC20 transfer with no\r\n     *        _data param. Added due to backwards compatibility reasons.\r\n     *\r\n     * @param _to     Receiver address.\r\n     * @param _value  Amount of LOT to be transferred.\r\n     */\r\n    function transfer(address _to, uint _value) onlyIfNotFrozen external {\r\n        uint codeLength;\r\n        bytes memory empty;\r\n        assembly {\r\n            codeLength := extcodesize(_to)\r\n        }\r\n        balances[msg.sender] = balances[msg.sender].sub(_value);\r\n        balances[_to]        = balances[_to].add(_value);\r\n        if(codeLength > 0) {\r\n            ERC223Compliant receiver = ERC223Compliant(_to);\r\n            receiver.tokenFallback(msg.sender, _value, empty);\r\n        }\r\n        LogTransfer(msg.sender, _to, _value, empty);\r\n    }\r\n    /**\r\n     * @dev     Returns balance of the `_owner`.\r\n     * @param _owner    The address whose balance will be returned.\r\n     * @return balance  Balance of the `_owner`.\r\n     */\r\n    function balanceOf(address _owner) constant external returns (uint balance) {\r\n        return balances[_owner];\r\n    }\r\n    /**\r\n     * @dev   Change the frozen status of the LOT token.\r\n     *\r\n     * @param _status   Desired status of the frozen bool\r\n     */\r\n    function setFrozen(bool _status) external onlyFreezers returns (bool) {\r\n        frozen = _status;\r\n        LogFrozenStatus(frozen, now);\r\n        return frozen;\r\n    }\r\n    /**\r\n     * @dev     Allow addition of freezers to allow future contracts to\r\n     *          use the role.\r\n     *\r\n     * @param _new  New freezer address.\r\n     */\r\n    function addFreezer(address _new) external onlyEtheraffle {\r\n        freezers.push(_new);\r\n        canFreeze[_new] = true;\r\n        LogFreezerAddition(_new, now);\r\n    }\r\n    /**\r\n     * @dev     Remove a freezer should they no longer require or need the\r\n     *          the privilege.\r\n     *\r\n     * @param _freezer    The desired address to be removed.\r\n     */\r\n    function removeFreezer(address _freezer) external onlyEtheraffle {\r\n        require(canFreeze[_freezer]);\r\n        canFreeze[_freezer] = false;\r\n        for(uint i = 0; i < freezers.length - 1; i++)\r\n            if(freezers[i] == _freezer) {\r\n                freezers[i] = freezers[freezers.length - 1];\r\n                break;\r\n            }\r\n        freezers.length--;\r\n        LogFreezerRemoval(_freezer, now);\r\n    }\r\n    /**\r\n     * @dev   Allow changing of contract ownership ready for future upgrades/\r\n     *        changes in management structure.\r\n     *\r\n     * @param _new  New owner/controller address.\r\n     */\r\n    function setEtheraffle(address _new) external onlyEtheraffle {\r\n        LogEtheraffleChange(etheraffle, _new, now);\r\n        etheraffle = _new;\r\n    }\r\n    /**\r\n     * @dev   Fallback in case of accidental ether transfer\r\n     */\r\n    function () external payable {\r\n        revert();\r\n    }\r\n    /**\r\n     * @dev   Housekeeping- called in the event this contract is no\r\n     *        longer needed, after a LOT upgrade for example. Deletes\r\n     *        the code from the blockchain. Only callable by the\r\n     *        Etheraffle address.\r\n     */\r\n    function selfDestruct() external onlyEtheraffle {\r\n        require(frozen);\r\n        selfdestruct(etheraffle);\r\n    }\r\n}\r\n",
  "sourcePath": "C:\\Users\\Greg\\Desktop\\ER\\solidity\\contracts\\etheraffleLOT.sol",
  "compiler": {
    "name": "solc",
    "version": "0.4.24+commit.e67f0147.Emscripten.clang"
  },
  "schemaVersion": "2.0.0",
  "updatedAt": "2018-06-07T20:47:11.684Z"
}