{
  "contractName": "Etheraffle",
  "abi": [
    {
      "constant": true,
      "inputs": [],
      "name": "ethRelief",
      "outputs": [
        {
          "name": "",
          "type": "address"
        }
      ],
      "payable": false,
      "stateMutability": "view",
      "type": "function"
    },
    {
      "constant": true,
      "inputs": [],
      "name": "gasAmt",
      "outputs": [
        {
          "name": "",
          "type": "uint256"
        }
      ],
      "payable": false,
      "stateMutability": "view",
      "type": "function"
    },
    {
      "constant": true,
      "inputs": [
        {
          "name": "",
          "type": "uint256"
        }
      ],
      "name": "pctOfPool",
      "outputs": [
        {
          "name": "",
          "type": "uint256"
        }
      ],
      "payable": false,
      "stateMutability": "view",
      "type": "function"
    },
    {
      "constant": true,
      "inputs": [],
      "name": "upgradeAddr",
      "outputs": [
        {
          "name": "",
          "type": "address"
        }
      ],
      "payable": false,
      "stateMutability": "view",
      "type": "function"
    },
    {
      "constant": true,
      "inputs": [],
      "name": "take",
      "outputs": [
        {
          "name": "",
          "type": "uint256"
        }
      ],
      "payable": false,
      "stateMutability": "view",
      "type": "function"
    },
    {
      "constant": true,
      "inputs": [
        {
          "name": "",
          "type": "uint256"
        }
      ],
      "name": "odds",
      "outputs": [
        {
          "name": "",
          "type": "uint256"
        }
      ],
      "payable": false,
      "stateMutability": "view",
      "type": "function"
    },
    {
      "constant": true,
      "inputs": [],
      "name": "week",
      "outputs": [
        {
          "name": "",
          "type": "uint256"
        }
      ],
      "payable": false,
      "stateMutability": "view",
      "type": "function"
    },
    {
      "constant": true,
      "inputs": [],
      "name": "paused",
      "outputs": [
        {
          "name": "",
          "type": "bool"
        }
      ],
      "payable": false,
      "stateMutability": "view",
      "type": "function"
    },
    {
      "constant": true,
      "inputs": [],
      "name": "resultsDelay",
      "outputs": [
        {
          "name": "",
          "type": "uint256"
        }
      ],
      "payable": false,
      "stateMutability": "view",
      "type": "function"
    },
    {
      "constant": true,
      "inputs": [],
      "name": "prizePool",
      "outputs": [
        {
          "name": "",
          "type": "uint256"
        }
      ],
      "payable": false,
      "stateMutability": "view",
      "type": "function"
    },
    {
      "constant": true,
      "inputs": [],
      "name": "etheraffle",
      "outputs": [
        {
          "name": "",
          "type": "address"
        }
      ],
      "payable": false,
      "stateMutability": "view",
      "type": "function"
    },
    {
      "constant": true,
      "inputs": [],
      "name": "wdrawBfr",
      "outputs": [
        {
          "name": "",
          "type": "uint256"
        }
      ],
      "payable": false,
      "stateMutability": "view",
      "type": "function"
    },
    {
      "constant": true,
      "inputs": [],
      "name": "oracCost",
      "outputs": [
        {
          "name": "",
          "type": "uint256"
        }
      ],
      "payable": false,
      "stateMutability": "view",
      "type": "function"
    },
    {
      "constant": true,
      "inputs": [],
      "name": "rafEnd",
      "outputs": [
        {
          "name": "",
          "type": "uint256"
        }
      ],
      "payable": false,
      "stateMutability": "view",
      "type": "function"
    },
    {
      "constant": true,
      "inputs": [],
      "name": "tktPrice",
      "outputs": [
        {
          "name": "",
          "type": "uint256"
        }
      ],
      "payable": false,
      "stateMutability": "view",
      "type": "function"
    },
    {
      "constant": true,
      "inputs": [],
      "name": "matchesDelay",
      "outputs": [
        {
          "name": "",
          "type": "uint256"
        }
      ],
      "payable": false,
      "stateMutability": "view",
      "type": "function"
    },
    {
      "constant": true,
      "inputs": [],
      "name": "upgraded",
      "outputs": [
        {
          "name": "",
          "type": "uint256"
        }
      ],
      "payable": false,
      "stateMutability": "view",
      "type": "function"
    },
    {
      "constant": true,
      "inputs": [
        {
          "name": "",
          "type": "uint256"
        }
      ],
      "name": "raffle",
      "outputs": [
        {
          "name": "tktPrice",
          "type": "uint256"
        },
        {
          "name": "unclaimed",
          "type": "uint256"
        },
        {
          "name": "timeStamp",
          "type": "uint256"
        },
        {
          "name": "wdrawOpen",
          "type": "bool"
        },
        {
          "name": "numEntries",
          "type": "uint256"
        },
        {
          "name": "freeEntries",
          "type": "uint256"
        }
      ],
      "payable": false,
      "stateMutability": "view",
      "type": "function"
    },
    {
      "constant": true,
      "inputs": [],
      "name": "disburseAddr",
      "outputs": [
        {
          "name": "",
          "type": "address"
        }
      ],
      "payable": false,
      "stateMutability": "view",
      "type": "function"
    },
    {
      "constant": true,
      "inputs": [
        {
          "name": "",
          "type": "bytes32"
        }
      ],
      "name": "qID",
      "outputs": [
        {
          "name": "weekNo",
          "type": "uint256"
        },
        {
          "name": "isRandom",
          "type": "bool"
        },
        {
          "name": "isManual",
          "type": "bool"
        }
      ],
      "payable": false,
      "stateMutability": "view",
      "type": "function"
    },
    {
      "constant": true,
      "inputs": [],
      "name": "gasPrc",
      "outputs": [
        {
          "name": "",
          "type": "uint256"
        }
      ],
      "payable": false,
      "stateMutability": "view",
      "type": "function"
    },
    {
      "inputs": [
        {
          "name": "_etheraffle",
          "type": "address"
        },
        {
          "name": "_disburse",
          "type": "address"
        },
        {
          "name": "_ethRelief",
          "type": "address"
        },
        {
          "name": "_freeLOT",
          "type": "address"
        }
      ],
      "payable": true,
      "stateMutability": "payable",
      "type": "constructor"
    },
    {
      "payable": true,
      "stateMutability": "payable",
      "type": "fallback"
    },
    {
      "anonymous": false,
      "inputs": [
        {
          "indexed": false,
          "name": "identifier",
          "type": "uint256"
        },
        {
          "indexed": false,
          "name": "atTime",
          "type": "uint256"
        }
      ],
      "name": "LogFunctionsPaused",
      "type": "event"
    },
    {
      "anonymous": false,
      "inputs": [
        {
          "indexed": false,
          "name": "queryID",
          "type": "bytes32"
        },
        {
          "indexed": false,
          "name": "dueAt",
          "type": "uint256"
        },
        {
          "indexed": false,
          "name": "sendTime",
          "type": "uint256"
        }
      ],
      "name": "LogQuerySent",
      "type": "event"
    },
    {
      "anonymous": false,
      "inputs": [
        {
          "indexed": true,
          "name": "fromRaffle",
          "type": "uint256"
        },
        {
          "indexed": false,
          "name": "amount",
          "type": "uint256"
        },
        {
          "indexed": false,
          "name": "atTime",
          "type": "uint256"
        }
      ],
      "name": "LogReclaim",
      "type": "event"
    },
    {
      "anonymous": false,
      "inputs": [
        {
          "indexed": false,
          "name": "newContract",
          "type": "address"
        },
        {
          "indexed": false,
          "name": "ethTransferred",
          "type": "uint256"
        },
        {
          "indexed": false,
          "name": "atTime",
          "type": "uint256"
        }
      ],
      "name": "LogUpgrade",
      "type": "event"
    },
    {
      "anonymous": false,
      "inputs": [
        {
          "indexed": false,
          "name": "fromWhom",
          "type": "address"
        },
        {
          "indexed": false,
          "name": "howMuch",
          "type": "uint256"
        },
        {
          "indexed": false,
          "name": "atTime",
          "type": "uint256"
        }
      ],
      "name": "LogPrizePoolAddition",
      "type": "event"
    },
    {
      "anonymous": false,
      "inputs": [
        {
          "indexed": true,
          "name": "forRaffle",
          "type": "uint256"
        },
        {
          "indexed": false,
          "name": "toWhom",
          "type": "address"
        },
        {
          "indexed": false,
          "name": "entryNumber",
          "type": "uint256"
        },
        {
          "indexed": false,
          "name": "amount",
          "type": "uint256"
        },
        {
          "indexed": false,
          "name": "atTime",
          "type": "uint256"
        }
      ],
      "name": "LogFreeLOTWin",
      "type": "event"
    },
    {
      "anonymous": false,
      "inputs": [
        {
          "indexed": false,
          "name": "functionCaller",
          "type": "address"
        },
        {
          "indexed": false,
          "name": "queryID",
          "type": "bytes32"
        },
        {
          "indexed": false,
          "name": "result",
          "type": "string"
        },
        {
          "indexed": true,
          "name": "forRaffle",
          "type": "uint256"
        },
        {
          "indexed": false,
          "name": "atTime",
          "type": "uint256"
        }
      ],
      "name": "LogOraclizeCallback",
      "type": "event"
    },
    {
      "anonymous": false,
      "inputs": [
        {
          "indexed": true,
          "name": "forRaffle",
          "type": "uint256"
        },
        {
          "indexed": false,
          "name": "oraclizeTotal",
          "type": "uint256"
        },
        {
          "indexed": false,
          "name": "amount",
          "type": "uint256"
        },
        {
          "indexed": true,
          "name": "toAddress",
          "type": "address"
        },
        {
          "indexed": false,
          "name": "atTime",
          "type": "uint256"
        }
      ],
      "name": "LogFundsDisbursed",
      "type": "event"
    },
    {
      "anonymous": false,
      "inputs": [
        {
          "indexed": true,
          "name": "forRaffle",
          "type": "uint256"
        },
        {
          "indexed": true,
          "name": "toWhom",
          "type": "address"
        },
        {
          "indexed": false,
          "name": "forEntryNumber",
          "type": "uint256"
        },
        {
          "indexed": false,
          "name": "matches",
          "type": "uint256"
        },
        {
          "indexed": false,
          "name": "amountWon",
          "type": "uint256"
        },
        {
          "indexed": false,
          "name": "atTime",
          "type": "uint256"
        }
      ],
      "name": "LogWithdraw",
      "type": "event"
    },
    {
      "anonymous": false,
      "inputs": [
        {
          "indexed": true,
          "name": "forRaffle",
          "type": "uint256"
        },
        {
          "indexed": false,
          "name": "numberOfEntries",
          "type": "uint256"
        },
        {
          "indexed": false,
          "name": "wNumbers",
          "type": "uint256[]"
        },
        {
          "indexed": false,
          "name": "currentPrizePool",
          "type": "uint256"
        },
        {
          "indexed": false,
          "name": "randomSerialNo",
          "type": "uint256"
        },
        {
          "indexed": false,
          "name": "atTime",
          "type": "uint256"
        }
      ],
      "name": "LogWinningNumbers",
      "type": "event"
    },
    {
      "anonymous": false,
      "inputs": [
        {
          "indexed": true,
          "name": "forRaffle",
          "type": "uint256"
        },
        {
          "indexed": true,
          "name": "entryNumber",
          "type": "uint256"
        },
        {
          "indexed": true,
          "name": "theEntrant",
          "type": "address"
        },
        {
          "indexed": false,
          "name": "chosenNumbers",
          "type": "uint256[]"
        },
        {
          "indexed": false,
          "name": "personalEntryNumber",
          "type": "uint256"
        },
        {
          "indexed": false,
          "name": "tktCost",
          "type": "uint256"
        },
        {
          "indexed": false,
          "name": "atTime",
          "type": "uint256"
        },
        {
          "indexed": false,
          "name": "affiliateID",
          "type": "uint256"
        }
      ],
      "name": "LogTicketBought",
      "type": "event"
    },
    {
      "anonymous": false,
      "inputs": [
        {
          "indexed": false,
          "name": "newMainPrizePool",
          "type": "uint256"
        },
        {
          "indexed": true,
          "name": "forRaffle",
          "type": "uint256"
        },
        {
          "indexed": false,
          "name": "ticketPrice",
          "type": "uint256"
        },
        {
          "indexed": false,
          "name": "unclaimedPrizePool",
          "type": "uint256"
        },
        {
          "indexed": false,
          "name": "winningAmounts",
          "type": "uint256[]"
        },
        {
          "indexed": false,
          "name": "atTime",
          "type": "uint256"
        }
      ],
      "name": "LogPrizePoolsUpdated",
      "type": "event"
    },
    {
      "constant": true,
      "inputs": [],
      "name": "getWeek",
      "outputs": [
        {
          "name": "",
          "type": "uint256"
        }
      ],
      "payable": false,
      "stateMutability": "view",
      "type": "function"
    },
    {
      "constant": false,
      "inputs": [
        {
          "name": "_cNums",
          "type": "uint256[]"
        },
        {
          "name": "_affID",
          "type": "uint256"
        }
      ],
      "name": "enterRaffle",
      "outputs": [],
      "payable": true,
      "stateMutability": "payable",
      "type": "function"
    },
    {
      "constant": false,
      "inputs": [
        {
          "name": "_cNums",
          "type": "uint256[]"
        },
        {
          "name": "_affID",
          "type": "uint256"
        },
        {
          "name": "_onBehalfOf",
          "type": "address"
        }
      ],
      "name": "enterOnBehalfOf",
      "outputs": [],
      "payable": true,
      "stateMutability": "payable",
      "type": "function"
    },
    {
      "constant": false,
      "inputs": [
        {
          "name": "_cNums",
          "type": "uint256[]"
        },
        {
          "name": "_affID",
          "type": "uint256"
        }
      ],
      "name": "enterFreeRaffle",
      "outputs": [],
      "payable": true,
      "stateMutability": "payable",
      "type": "function"
    },
    {
      "constant": false,
      "inputs": [
        {
          "name": "_week",
          "type": "uint256"
        },
        {
          "name": "_entryNum",
          "type": "uint256"
        },
        {
          "name": "_cNums",
          "type": "uint256[]"
        }
      ],
      "name": "withdrawWinnings",
      "outputs": [],
      "payable": false,
      "stateMutability": "nonpayable",
      "type": "function"
    },
    {
      "constant": false,
      "inputs": [
        {
          "name": "_myID",
          "type": "bytes32"
        },
        {
          "name": "_result",
          "type": "string"
        }
      ],
      "name": "__callback",
      "outputs": [],
      "payable": false,
      "stateMutability": "nonpayable",
      "type": "function"
    },
    {
      "constant": false,
      "inputs": [
        {
          "name": "myid",
          "type": "bytes32"
        },
        {
          "name": "result",
          "type": "string"
        },
        {
          "name": "proof",
          "type": "bytes"
        }
      ],
      "name": "__callback",
      "outputs": [],
      "payable": false,
      "stateMutability": "nonpayable",
      "type": "function"
    },
    {
      "constant": true,
      "inputs": [
        {
          "name": "_week",
          "type": "uint256"
        }
      ],
      "name": "getUnclaimed",
      "outputs": [
        {
          "name": "",
          "type": "uint256"
        }
      ],
      "payable": false,
      "stateMutability": "view",
      "type": "function"
    },
    {
      "constant": false,
      "inputs": [],
      "name": "manuallyAddToPrizePool",
      "outputs": [],
      "payable": true,
      "stateMutability": "payable",
      "type": "function"
    },
    {
      "constant": false,
      "inputs": [
        {
          "name": "_randomStr1",
          "type": "string"
        },
        {
          "name": "_randomStr2",
          "type": "string"
        },
        {
          "name": "_apiStr1",
          "type": "string"
        },
        {
          "name": "_apiStr2",
          "type": "string"
        }
      ],
      "name": "manuallySetOraclizeString",
      "outputs": [],
      "payable": false,
      "stateMutability": "nonpayable",
      "type": "function"
    },
    {
      "constant": false,
      "inputs": [
        {
          "name": "_newPrice",
          "type": "uint256"
        }
      ],
      "name": "manuallySetTktPrice",
      "outputs": [],
      "payable": false,
      "stateMutability": "nonpayable",
      "type": "function"
    },
    {
      "constant": false,
      "inputs": [
        {
          "name": "_newTake",
          "type": "uint256"
        }
      ],
      "name": "manuallySetTake",
      "outputs": [],
      "payable": false,
      "stateMutability": "nonpayable",
      "type": "function"
    },
    {
      "constant": false,
      "inputs": [
        {
          "name": "_week",
          "type": "uint256"
        },
        {
          "name": "_numMatches",
          "type": "string"
        }
      ],
      "name": "manuallySetPayouts",
      "outputs": [],
      "payable": false,
      "stateMutability": "nonpayable",
      "type": "function"
    },
    {
      "constant": false,
      "inputs": [
        {
          "name": "_newAddr",
          "type": "address"
        }
      ],
      "name": "manuallySetFreeLOT",
      "outputs": [],
      "payable": false,
      "stateMutability": "nonpayable",
      "type": "function"
    },
    {
      "constant": false,
      "inputs": [
        {
          "name": "_newAddr",
          "type": "address"
        }
      ],
      "name": "manuallySetEthReliefAddr",
      "outputs": [],
      "payable": false,
      "stateMutability": "nonpayable",
      "type": "function"
    },
    {
      "constant": false,
      "inputs": [
        {
          "name": "_newAddr",
          "type": "address"
        }
      ],
      "name": "manuallySetDisbursingAddr",
      "outputs": [],
      "payable": false,
      "stateMutability": "nonpayable",
      "type": "function"
    },
    {
      "constant": false,
      "inputs": [
        {
          "name": "_newAddr",
          "type": "address"
        }
      ],
      "name": "manuallySetEtheraffleAddr",
      "outputs": [],
      "payable": false,
      "stateMutability": "nonpayable",
      "type": "function"
    },
    {
      "constant": false,
      "inputs": [
        {
          "name": "_newTime",
          "type": "uint256"
        }
      ],
      "name": "manuallySetRafEndTime",
      "outputs": [],
      "payable": false,
      "stateMutability": "nonpayable",
      "type": "function"
    },
    {
      "constant": false,
      "inputs": [
        {
          "name": "_newTime",
          "type": "uint256"
        }
      ],
      "name": "manuallySetWithdrawBefore",
      "outputs": [],
      "payable": false,
      "stateMutability": "nonpayable",
      "type": "function"
    },
    {
      "constant": false,
      "inputs": [
        {
          "name": "_status",
          "type": "bool"
        }
      ],
      "name": "manuallySetPaused",
      "outputs": [],
      "payable": false,
      "stateMutability": "nonpayable",
      "type": "function"
    },
    {
      "constant": false,
      "inputs": [
        {
          "name": "_newPoP",
          "type": "uint256[]"
        }
      ],
      "name": "manuallySetPercentOfPool",
      "outputs": [],
      "payable": false,
      "stateMutability": "nonpayable",
      "type": "function"
    },
    {
      "constant": false,
      "inputs": [
        {
          "name": "_week",
          "type": "uint256"
        },
        {
          "name": "_tktPrice",
          "type": "uint256"
        },
        {
          "name": "_timeStamp",
          "type": "uint256"
        }
      ],
      "name": "manuallySetupRaffleStruct",
      "outputs": [],
      "payable": false,
      "stateMutability": "nonpayable",
      "type": "function"
    },
    {
      "constant": false,
      "inputs": [
        {
          "name": "_week",
          "type": "uint256"
        },
        {
          "name": "_status",
          "type": "bool"
        }
      ],
      "name": "manuallySetWithdraw",
      "outputs": [],
      "payable": false,
      "stateMutability": "nonpayable",
      "type": "function"
    },
    {
      "constant": false,
      "inputs": [
        {
          "name": "_week",
          "type": "uint256"
        }
      ],
      "name": "manuallySetWeek",
      "outputs": [],
      "payable": false,
      "stateMutability": "nonpayable",
      "type": "function"
    },
    {
      "constant": false,
      "inputs": [
        {
          "name": "_week",
          "type": "uint256"
        },
        {
          "name": "_delay",
          "type": "uint256"
        },
        {
          "name": "_isRandom",
          "type": "bool"
        },
        {
          "name": "_isManual",
          "type": "bool"
        },
        {
          "name": "_status",
          "type": "bool"
        }
      ],
      "name": "manuallyMakeOraclizeCall",
      "outputs": [],
      "payable": false,
      "stateMutability": "nonpayable",
      "type": "function"
    },
    {
      "constant": false,
      "inputs": [
        {
          "name": "_ID",
          "type": "bytes32"
        },
        {
          "name": "_weekNo",
          "type": "uint256"
        },
        {
          "name": "_isRandom",
          "type": "bool"
        },
        {
          "name": "_isManual",
          "type": "bool"
        }
      ],
      "name": "manuallyModifyQID",
      "outputs": [],
      "payable": false,
      "stateMutability": "nonpayable",
      "type": "function"
    },
    {
      "constant": true,
      "inputs": [
        {
          "name": "_entrant",
          "type": "address"
        },
        {
          "name": "_week",
          "type": "uint256"
        }
      ],
      "name": "getUserNumEntries",
      "outputs": [
        {
          "name": "",
          "type": "uint256"
        }
      ],
      "payable": false,
      "stateMutability": "view",
      "type": "function"
    },
    {
      "constant": true,
      "inputs": [
        {
          "name": "_entrant",
          "type": "address"
        },
        {
          "name": "_week",
          "type": "uint256"
        },
        {
          "name": "_entryNum",
          "type": "uint256"
        }
      ],
      "name": "getChosenNumbersHash",
      "outputs": [
        {
          "name": "",
          "type": "bytes32"
        }
      ],
      "payable": false,
      "stateMutability": "view",
      "type": "function"
    },
    {
      "constant": true,
      "inputs": [
        {
          "name": "_week",
          "type": "uint256"
        }
      ],
      "name": "getWinningDetails",
      "outputs": [
        {
          "name": "",
          "type": "uint256[]"
        },
        {
          "name": "",
          "type": "uint256[]"
        }
      ],
      "payable": false,
      "stateMutability": "view",
      "type": "function"
    },
    {
      "constant": false,
      "inputs": [
        {
          "name": "_newAddr",
          "type": "address"
        }
      ],
      "name": "upgradeContract",
      "outputs": [],
      "payable": false,
      "stateMutability": "nonpayable",
      "type": "function"
    },
    {
      "constant": false,
      "inputs": [],
      "name": "selfDestruct",
      "outputs": [],
      "payable": false,
      "stateMutability": "nonpayable",
      "type": "function"
    }
  ],
  "bytecode": "0x6096600d556207a120600e55610e10600f8190556010556207a2b0601155625c49006012556404a817c80060135566071afd498d00006014556605543df729c0006015556101006040526102086080908152607260a052602f60c05261013f60e0526200007190601690600462000306565b506040805160808101825260388152610408602082015261d3b89181019190915262d560486060820152620000ab90601790600462000358565b5060c060405190810160405280609b8152602001620044ea609b91398051620000dd916019916020909101906200039d565b50610120604051908101604052806101008152602001620043ea610100913980516200011291601a916020909101906200039d565b506040805160608101825260358082527f5b55524c5d205b276a736f6e2868747470733a2f2f65746865726166666c652e602083019081527f636f6d2f6170692f61292e6d272c277b2272223a22000000000000000000000092909301919091526200018191601b916200039d565b5060c060405190810160405280609e81526020016200434c609e91398051620001b391601c916020909101906200039d565b50604051608080620045858339810160409081528151602083015191830151606090930151909290620001ee64010000000062000296810204565b6005819055600a8054600160a060020a03808816600160a060020a031992831617909255600c805487841690831617905560098054868416908316179055601880549285169290911691909117905562000265906608e1bc9bf0400062093a80820263596bfe0001640100000000620002d1810204565b505060008054600160a060020a031916736f485c8bf6fc43ea212e93bbf8ce046c7f1cb47517905550620004309050565b600062093a804263596bfdff190104620002b981640100000000620002ee810204565b620002c55780620002ca565b806001015b91505b5090565b6000928352601d6020526040909220600181019190915560050155565b60115463596bfdff1962093a80830242030111919050565b8280548282559060005260206000209081019282156200034a579160200282015b828111156200034a578251829061ffff1690559160200191906001019062000327565b50620002cd92915062000410565b8280548282559060005260206000209081019282156200034a579160200282015b828111156200034a578251829062ffffff1690559160200191906001019062000379565b828054600181600116156101000203166002900490600052602060002090601f016020900481019282601f10620003e057805160ff19168380011785556200034a565b828001600101855582156200034a579182015b828111156200034a578251825591602001919060010190620003f3565b6200042d91905b80821115620002cd576000815560010162000417565b90565b613f0c80620004406000396000f3006080604052600436106102585763ffffffff60e060020a60003504166302b9e55c811461025a57806302f050e41461027a57806306ef856b1461032b578063075acda71461035c578063080f2cdc146103835780630f7bd1dd146103a457806311b96ed4146103ee57806313d59ca914610406578063159090bd1461041b57806319772a2b1461043057806327dc297e1461044857806338bbfa50146104a657806346156ea0146105425780634995b4581461055a5780634d2977601461056f5780635089445614610596578063589b0f9b146105c05780635c975abb146105d85780635dd8a9ad1461060157806365a4c957146106095780636ae45f4d1461061e578063719ce73e14610636578063874d6d811461064b5780638ca17755146106605780639cb8a26a146106755780639d48cbc11461068a5780639fc21eeb146106a4578063a465efec146106b9578063a4e8e360146106d1578063ab7c3bf31461071b578063af106b1014610738578063af35e0aa1461074d578063b624fc541461076e578063b888a66b14610783578063bb537ced14610798578063c1107024146107ad578063c25fef0d146107ce578063c28de2cd146107e6578063c7688cf8146107fb578063ce8524fb14610846578063dde4baff1461086b578063e3c79a201461088c578063e5f6f252146108e5578063e7c808d114610909578063e7df2f3e14610927578063eabddc061461093c578063eb2c022314610954578063eed6709714610975578063f7fc80df146109b9578063fdce62e9146109dd578063fe17101514610a05578063fe85672214610a3d575b005b34801561026657600080fd5b506102586004803560248101910135610a52565b34801561028657600080fd5b50610292600435610a7a565b604051808060200180602001838103835285818151815260200191508051906020019060200280838360005b838110156102d65781810151838201526020016102be565b50505050905001838103825284818151815260200191508051906020019060200280838360005b838110156103155781810151838201526020016102fd565b5050505090500194505050505060405180910390f35b34801561033757600080fd5b50610340610b41565b60408051600160a060020a039092168252519081900360200190f35b34801561036857600080fd5b50610371610b50565b60408051918252519081900360200190f35b34801561038f57600080fd5b50610258600160a060020a0360043516610b56565b60408051602060048035808201358381028086018501909652808552610258953695939460249493850192918291850190849080828437509497505093359450610b8f9350505050565b3480156103fa57600080fd5b50610371600435610bc5565b34801561041257600080fd5b50610340610be4565b34801561042757600080fd5b50610371610bf3565b34801561043c57600080fd5b50610258600435610bf9565b34801561045457600080fd5b5060408051602060046024803582810135601f8101859004850286018501909652858552610258958335953695604494919390910191908190840183828082843750949750610c159650505050505050565b3480156104b257600080fd5b5060408051602060046024803582810135601f810185900485028601850190965285855261025895833595369560449491939091019190819084018382808284375050604080516020601f89358b018035918201839004830284018301909452808352979a999881019791965091820194509250829150840183828082843750949750610a759650505050505050565b34801561054e57600080fd5b50610371600435610d53565b34801561056657600080fd5b50610371610d61565b34801561057b57600080fd5b50610371600160a060020a0360043516602435604435610d67565b3480156105a257600080fd5b50610258600435602435604435151560643515156084351515610dad565b3480156105cc57600080fd5b50610258600435610dea565b3480156105e457600080fd5b506105ed610e06565b604080519115158252519081900360200190f35b610258610e0f565b34801561061557600080fd5b50610371610e67565b34801561062a57600080fd5b50610258600435610e6d565b34801561064257600080fd5b50610371610e89565b34801561065757600080fd5b50610371610e8f565b34801561066c57600080fd5b50610340610ebd565b34801561068157600080fd5b50610258610ecc565b34801561069657600080fd5b506102586004351515610f07565b3480156106b057600080fd5b50610371610f2a565b3480156106c557600080fd5b50610258600435610f30565b60408051602060048035808201358381028086018501909652808552610258953695939460249493850192918291850190849080828437509497505093359450610f4c9350505050565b34801561072757600080fd5b506102586004356024351515610f74565b34801561074457600080fd5b50610371610f95565b34801561075957600080fd5b50610258600160a060020a0360043516610f9b565b34801561077a57600080fd5b50610371610fd4565b34801561078f57600080fd5b50610371610fda565b3480156107a457600080fd5b50610371610fe0565b3480156107b957600080fd5b50610258600160a060020a0360043516610fe6565b3480156107da57600080fd5b5061037160043561101f565b3480156107f257600080fd5b50610371611034565b34801561080757600080fd5b5061081360043561103a565b604080519687526020870195909552858501939093529015156060850152608084015260a0830152519081900360c00190f35b34801561085257600080fd5b5061025860043560243560443515156064351515611076565b34801561087757600080fd5b50610258600160a060020a036004351661109f565b60408051602060048035808201358381028086018501909652808552610258953695939460249493850192918291850190849080828437509497505084359550505050602090910135600160a060020a031690506110d8565b3480156108f157600080fd5b50610371600160a060020a036004351660243561110a565b34801561091557600080fd5b50610258600435602435604435611131565b34801561093357600080fd5b50610340611153565b34801561094857600080fd5b50610258600435611162565b34801561096057600080fd5b50610258600160a060020a0360043516611182565b34801561098157600080fd5b5061025860246004803582810192908201359181358083019290820135916044358083019290820135916064359182019101356112e8565b3480156109c557600080fd5b5061025860048035906024803590810191013561133d565b3480156109e957600080fd5b506102586004803590602480359160443591820191013561138e565b348015610a1157600080fd5b50610a1d6004356114be565b604080519384529115156020840152151582820152519081900360600190f35b348015610a4957600080fd5b506103716114e3565b600a54600160a060020a03163314610a6957600080fd5b610a7560168383613d8d565b505050565b6000818152601d6020908152604091829020600381018054845181850281018501909552808552606094859492936004019290918491830182828015610adf57602002820191906000526020600020905b815481526020019060010190808311610acb575b5050505050915080805480602002602001604051908101604052809291908181526020018280548015610b3157602002820191906000526020600020905b815481526020019060010190808311610b1d575b5050505050905091509150915091565b600954600160a060020a031681565b600e5481565b600a54600160a060020a03163314610b6d57600080fd5b600c8054600160a060020a031916600160a060020a0392909216919091179055565b60065460ff1615610b9f57600080fd5b610baa6005546114e9565b1515610bb557600080fd5b610bc182333484611520565b5050565b6016805482908110610bd357fe5b600091825260209091200154905081565b600b54600160a060020a031681565b600d5481565b600a54600160a060020a03163314610c1057600080fd5b601455565b60065460ff1615610c2557600080fd5b610c2d611638565b600160a060020a031633600160a060020a03161480610c565750600a54600160a060020a031633145b1515610c6157600080fd5b6000828152601e602090815260408083205481513380825281850188905242606083018190526080948301858152885195840195909552875193967f1faa447b24dc5b78efc69ff943f36cfe7fd15f20a184822f9a8d938635a1f78e9692958a958a959394919260a0850192870191908190849084905b83811015610cf0578181015183820152602001610cd8565b50505050905090810190601f168015610d1d5780820380516001836020036101000a031916815260200191505b509550505050505060405180910390a2610d368261182a565b610d4957610d448282611842565b610bc1565b610bc18282611902565b6017805482908110610bd357fe5b60055481565b6000828152601d60209081526040808320600160a060020a0387168452909152812080546000198401908110610d9957fe5b906000526020600020015490509392505050565b600a54600160a060020a03163314610dc457600080fd5b610dcd816119e2565b610de384610ddb85886119f5565b878686611c65565b5050505050565b600a54600160a060020a03163314610e0157600080fd5b600d55565b60065460ff1681565b60003411610e1c57600080fd5b610e27600134611d3b565b60408051338152346020820152428183015290517fa0a0125a3fc1594ee9ffd63d9f0da0680ba733e83c6181aff301033843c39a299181900360600190a1565b600f5481565b600a54600160a060020a03163314610e8457600080fd5b601155565b60085481565b600062093a804263596bfdff190104610ea781611d6d565b610eb15780610eb6565b806001015b91505b5090565b600a54600160a060020a031681565b600a54600160a060020a03163314610ee357600080fd5b600754625c4900429190910311610ef957600080fd5b600954600160a060020a0316ff5b600a54600160a060020a03163314610f1e57600080fd5b610f27816119e2565b50565b60125481565b600a54600160a060020a03163314610f4757600080fd5b601255565b60065460ff1615610f5c57600080fd5b610f67336001611d85565b610bb56005546001611e0f565b600a54600160a060020a03163314610f8b57600080fd5b610bc18282611e52565b60155481565b600a54600160a060020a03163314610fb257600080fd5b600a8054600160a060020a031916600160a060020a0392909216919091179055565b60115481565b60145481565b60105481565b600a54600160a060020a03163314610ffd57600080fd5b60188054600160a060020a031916600160a060020a0392909216919091179055565b6000908152601d602052604090206002015490565b60075481565b601d6020526000908152604090206001810154600282015460058301546006840154600785015460089095015493949293919260ff9091169186565b600a54600160a060020a0316331461108d57600080fd5b61109984848484611e75565b50505050565b600a54600160a060020a031633146110b657600080fd5b60098054600160a060020a031916600160a060020a0392909216919091179055565b60065460ff16156110e857600080fd5b6110f36005546114e9565b15156110fe57600080fd5b610a7583823485611520565b6000908152601d60209081526040808320600160a060020a03949094168352929052205490565b600a54600160a060020a0316331461114857600080fd5b610a75838383611eb0565b600c54600160a060020a031681565b600a54600160a060020a0316331461117957600080fd5b610f2781611ecd565b600a54600090600160a060020a0316331461119c57600080fd5b6007541580156111b55750600b54600160a060020a0316155b15156111c057600080fd5b5060088054600b8054600160a060020a031916600160a060020a038516179055426007556000600581905591829055600e829055604080516020810191829052839052909161121191601b91613dd4565b5060408051602081019182905260009081905261123091601991613dd4565b50303181111561123f57600080fd5b81600160a060020a0316635dd8a9ad826040518263ffffffff1660e060020a0281526004016000604051808303818588803b15801561127d57600080fd5b505af1158015611291573d6000803e3d6000fd5b505060075460408051600160a060020a03881681526020810187905280820192909252517faab9bba4fcd15de155f5c12ace41cb1b506009169b2ca88c26fa17282a6a286694509081900360600192509050a15050565b600a54600160a060020a031633146112ff57600080fd5b61130b60198989613e42565b50611318601a8787613e42565b50611325601b8585613e42565b50611332601c8383613e42565b505050505050505050565b600a54600160a060020a0316331461135457600080fd5b610a758383838080601f01602080910402602001604051908101604052809392919081815260200183838082843750611ed2945050505050565b60065460009060ff16156113a157600080fd5b6113db85858585808060200260200160405190810160405280939291908181526020018383602002808284375033945061209a9350505050565b80156113eb57506113eb8561212a565b15156113f657600080fd5b61148a83838080602002602001604051908101604052809392919081815260200183836020028082843750505060008a8152601d60209081526040918290206003018054835181840281018401909452808452929550935090915083018282801561148057602002820191906000526020600020905b81548152602001906001019080831161146c575b50505050506121b4565b9050600281101561149a57600080fd5b806002146114b3576114ae85858333612250565b610de3565b610de385853361236f565b601e602052600090815260409020805460019091015460ff8082169161010090041683565b60135481565b6000818152601d60205260408120600101548110801561151a57506000828152601d60205260409020600101543410155b92915050565b611528612467565b80156115385750611538846124a6565b151561154357600080fd5b6115506005546000611e0f565b61155b600183611d3b565b6115686005548486612623565b6005546000818152601d602090815260408083206007810154600160a060020a03891680865291845282852054835180860182905293840189905242606085018190526080850189905260a08086528c51908601528b519397929692957fbe100347790afb2d3dc2fce9b43da739dbd4e9c7a9c281c92313c8eee6679551958d9593948c948c93839260c08401928a83019202908190849084905b8381101561161b578181015183820152602001611603565b50505050905001965050505050505060405180910390a450505050565b60008054600160a060020a03161580611663575060005461166190600160a060020a03166126a9565b155b156116745761167260006126ad565b505b6000809054906101000a9004600160a060020a0316600160a060020a03166338cc48316040518163ffffffff1660e060020a028152600401602060405180830381600087803b1580156116c657600080fd5b505af11580156116da573d6000803e3d6000fd5b505050506040513d60208110156116f057600080fd5b5051600154600160a060020a039081169116146117a5576000809054906101000a9004600160a060020a0316600160a060020a03166338cc48316040518163ffffffff1660e060020a028152600401602060405180830381600087803b15801561175957600080fd5b505af115801561176d573d6000803e3d6000fd5b505050506040513d602081101561178357600080fd5b505160018054600160a060020a031916600160a060020a039092169190911790555b600160009054906101000a9004600160a060020a0316600160a060020a031663c281d19e6040518163ffffffff1660e060020a028152600401602060405180830381600087803b1580156117f857600080fd5b505af115801561180c573d6000803e3d6000fd5b505050506040513d602081101561182257600080fd5b505190505b90565b6000908152601e602052604090206001015460ff1690565b61184a611638565b600160a060020a031633600160a060020a031614806118735750600a54600160a060020a031633145b151561187e57600080fd5b6000828152601e6020526040902054611896906126b7565b156118a057600080fd5b6118a86126cd565b6000828152601e60205260409020546118c19082611ed2565b6118ca82612715565b156118d457610bc1565b610bc16118df612732565b6118f160016118ec610e8f565b6119f5565b6118f9610e8f565b60016000611c65565b61190a611638565b600160a060020a031633600160a060020a031614806119335750600a54600160a060020a031633145b151561193e57600080fd5b6000828152601e602052604090205461195690612754565b1561196057600080fd5b61196861276a565b6000828152601e6020526040902054611980906127e5565b6000828152601e6020526040902054611999908261281a565b6119a282612715565b156119ac57610bc1565b6010546000838152601e6020526040812054610bc192916119cc916119f5565b6000858152601e60205260408120549080611c65565b6006805460ff1916911515919091179055565b60606119ff611638565b600160a060020a031633600160a060020a03161480611a285750600a54600160a060020a031633145b1515611a3357600080fd5b82611b6857601b8054604080516020601f60026000196101006001881615020190951694909404938401819004810282018101909252828152611b639390929091830182828015611ac55780601f10611a9a57610100808354040283529160200191611ac5565b820191906000526020600020905b815481529060010190602001808311611aa857829003601f168201915b5050505050611ad38461295c565b601c805460408051602060026001851615610100026000190190941693909304601f81018490048402820184019092528181529291830182828015611b595780601f10611b2e57610100808354040283529160200191611b59565b820191906000526020600020905b815481529060010190602001808311611b3c57829003601f168201915b5050505050612a4f565b611c5e565b60198054604080516020601f60026000196101006001881615020190951694909404938401819004810282018101909252828152611c5e9390929091830182828015611bf55780601f10611bca57610100808354040283529160200191611bf5565b820191906000526020600020905b815481529060010190602001808311611bd857829003601f168201915b5050505050611c038461295c565b601a805460408051602060026001851615610100026000190190941693909304601f81018490048402820184019092528181529291830182828015611b595780601f10611b2e57610100808354040283529160200191611b59565b9392505050565b6000611c6f611638565b600160a060020a031633600160a060020a03161480611c985750600a54600160a060020a031633145b1515611ca357600080fd5b611ce6866040805190810160405280600681526020017f6e6573746564000000000000000000000000000000000000000000000000000081525087600e54612a86565b9050611cf481858585611e75565b6040805182815260208101889052428183015290517fd1fb86e899e7d8fbdf8cf0729af4d5b1c13859fa0c2463f31ee07bd0b66779ab9181900360600190a1505050505050565b811515611d5157600854811115611d5157600080fd5b81611d60578060085403611d66565b80600854015b6008555050565b60115463596bfdff1962093a80830242030111919050565b601854604080517fa24835d1000000000000000000000000000000000000000000000000000000008152600160a060020a038581166004830152602482018590529151919092169163a24835d191604480830192600092919082900301818387803b158015611df357600080fd5b505af1158015611e07573d6000803e3d6000fd5b505050505050565b80611e33576000828152601d60205260409020600701805460018101909155610a75565b50506005546000908152601d6020526040902060080180546001019055565b6000918252601d6020526040909120600601805460ff1916911515919091179055565b6000938452601e60205260409093209182556001909101805460ff19169115159190911761ff00191661010092151592909202919091179055565b6000928352601d6020526040909220600181019190915560050155565b600555565b60606000806000611ee285612e88565b9350600484511015611eff57611efa60016002612f78565b611e07565b600092505b6004831015611f855760009150611f318484815181101515611f2257fe5b90602001906020020151612fbf565b90508015611f5457611f44818488612fcc565b9150611f54600187838502613002565b6000868152601d60209081526040822060040180546001818101835591845291909220018390559290920191611f04565b6008546000878152601d60205260409020600201541115611fac57611efa60016003612f78565b6000868152601d6020526040812060020154611fc89190611d3b565b611fd3866001611e52565b6008546000878152601d6020908152604091829020600181015460028201548451868152938401829052938301849052426080840181905260a060608501818152600490940180549186018290528d977f7778f9a11f1f01a116e0e5487099235fa0a1082b8145669992bd00a9534156299790969495909491939260c08301908590801561208057602002820191906000526020600020905b81548152602001906001019080831161206c575b5050965050505050505060405180910390a2505050505050565b60008260405180828051906020019060200280838360005b838110156120ca5781810151838201526020016120b2565b5050604080519590930185900390942060008c8152601d6020908152848220600160a060020a038c1683529052929092208054929650945050600019890192508210905061211457fe5b6000918252602090912001541495945050505050565b600061213582612754565b801561215257506000828152601d602052604090206006015460ff165b801561216d57506000828152601d6020526040812060050154115b801561218d57506012546000838152601d60205260409020600501544203105b801561151a5750506000908152601d60205260409020600501546207e90042919091031190565b600080600080855160061480156121cc575084516006145b15156121d757600080fd5b600091505b6006821015612246575060005b600681101561223b57848181518110151561220057fe5b90602001906020020151868381518110151561221857fe5b9060200190602002015114156122335760019092019161223b565b6001016121e9565b6001909101906121dc565b5090949350505050565b61225a8483613075565b151561226557600080fd5b6122708482856130f2565b6000848152601d6020526040812060040180546122a892918791600219870190811061229857fe5b9060005260206000200154613002565b6000848152601d6020526040902060040180546122df91839160021986019081106122cf57fe5b9060005260206000200154613135565b80600160a060020a0316847fb85fb01c2e13f27faf0cb703dd4b8d5d59e68f3bb06e6405ae5c56c6566f80fa8585601d60008a81526020019081526020016000206004016003880381548110151561233357fe5b9060005260206000200154426040518085815260200184815260200183815260200182815260200194505050505060405180910390a350505050565b60065460ff161561237f57600080fd5b61238a8382846130f2565b601854604080517f40c10f19000000000000000000000000000000000000000000000000000000008152600160a060020a03848116600483015260016024830152915191909216916340c10f1991604480830192600092919082900301818387803b1580156123f857600080fd5b505af115801561240c573d6000803e3d6000fd5b505060408051600160a060020a03851681526020810186905260018183015242606082015290518693507f683389e9f57935ce46039efbee7d6716d352d0280be65d5b0680c37710bade0592509081900360800190a2505050565b600580546000908152601d6020526040812090910154811080156124a15750601154600580546000908152601d6020526040902001540142105b905090565b6000815160061480156124d157508160008151811015156124c357fe5b906020019060200201516000105b801561250c57508160018151811015156124e757fe5b9060200190602002015182600081518110151561250057fe5b90602001906020020151105b8015612547575081600281518110151561252257fe5b9060200190602002015182600181518110151561253b57fe5b90602001906020020151105b8015612582575081600381518110151561255d57fe5b9060200190602002015182600281518110151561257657fe5b90602001906020020151105b80156125bd575081600481518110151561259857fe5b906020019060200201518260038151811015156125b157fe5b90602001906020020151105b80156125f857508160058151811015156125d357fe5b906020019060200201518260048151811015156125ec57fe5b90602001906020020151105b801561151a5750603182600581518110151561261057fe5b9060200190602002015111159050919050565b6000838152601d60209081526040808320600160a060020a03861684528252808320905184519193859391928392858101929102908190849084905b8381101561267757818101518382015260200161265f565b505060405194909201849003909320865460018101885560009788526020909720909601959095555050505050505050565b3b90565b600061151a61316b565b6000908152601d60205260408120600401541190565b60006126d7610e8f565b90506005548114156126f4576126ef60016004612f78565b610f27565b6126fd81611ecd565b610f278160145462093a80840263596bfe0001611eb0565b6000908152601e6020526040902060010154610100900460ff1690565b6000600f5460115463596bfe0062093a8061274b610e8f565b02010101905090565b6000908152601d60205260408120600301541190565b600080600b612777610e8f565b0391506127838261101f565b905080151561279157610bc1565b61279c600182611d3b565b6127a860008383613002565b60408051828152426020820152815184927fb50b1a768684fdeaca906d373a50513be259a1d746f33eaf1a63a6d0bf5a1fec928290030190a25050565b6000806127f0613493565b91506127fb826134a8565b612804836134d4565b905061280f81613544565b610a75838383613556565b606060008061282884612e88565b9250600091505b600682101561287e57601d600086815260200190815260200160002060030161285f8484815181101515611f2257fe5b815460018181018455600093845260209093200155919091019061282f565b612890836006815181101515611f2257fe5b9050847fa50a9cfeb63156029cb8d3192851e7dd14183f13fe23d5487af895ba3bb1625a601d600088815260200190815260200160002060070154601d600089815260200190815260200160002060030160085485426040518086815260200180602001858152602001848152602001838152602001828103825286818154815260200191508054801561294357602002820191906000526020600020905b81548152602001906001019080831161292f575b5050965050505050505060405180910390a25050505050565b606060008082818515156129a55760408051808201909152600181527f300000000000000000000000000000000000000000000000000000000000000060208201529450612a46565b8593505b83156129c057600190920191600a840493506129a9565b826040519080825280601f01601f1916602001820160405280156129ee578160200160208202803883390190505b5091505060001982015b8515612a4257815160001982019160f860020a6030600a8a060102918491908110612a1f57fe5b906020010190600160f860020a031916908160001a905350600a860495506129f8565b8194505b50505050919050565b6060612a7e848484602060405190810160405280600081525060206040519081016040528060008152506135e6565b949350505050565b600080548190600160a060020a03161580612ab35750600054612ab190600160a060020a03166126a9565b155b15612ac457612ac260006126ad565b505b6000809054906101000a9004600160a060020a0316600160a060020a03166338cc48316040518163ffffffff1660e060020a028152600401602060405180830381600087803b158015612b1657600080fd5b505af1158015612b2a573d6000803e3d6000fd5b505050506040513d6020811015612b4057600080fd5b5051600154600160a060020a03908116911614612bf5576000809054906101000a9004600160a060020a0316600160a060020a03166338cc48316040518163ffffffff1660e060020a028152600401602060405180830381600087803b158015612ba957600080fd5b505af1158015612bbd573d6000803e3d6000fd5b505050506040513d6020811015612bd357600080fd5b505160018054600160a060020a031916600160a060020a039092169190911790555b600154604080517f2ef3accc0000000000000000000000000000000000000000000000000000000081526024810186905260048101918252875160448201528751600160a060020a0390931692632ef3accc9289928892829160640190602086019080838360005b83811015612c75578181015183820152602001612c5d565b50505050905090810190601f168015612ca25780820380516001836020036101000a031916815260200191505b509350505050602060405180830381600087803b158015612cc257600080fd5b505af1158015612cd6573d6000803e3d6000fd5b505050506040513d6020811015612cec57600080fd5b50519050670de0b6b3a76400003a840201811115612d0d5760009150612e7f565b6001546040517fc51be90f0000000000000000000000000000000000000000000000000000000081526004810188815260648201869052608060248301908152885160848401528851600160a060020a039094169363c51be90f9386938c938c938c938c939291604482019160a40190602088019080838360005b83811015612da0578181015183820152602001612d88565b50505050905090810190601f168015612dcd5780820380516001836020036101000a031916815260200191505b50838103825285518152855160209182019187019080838360005b83811015612e00578181015183820152602001612de8565b50505050905090810190601f168015612e2d5780820380516001836020036101000a031916815260200191505b5096505050505050506020604051808303818588803b158015612e4f57600080fd5b505af1158015612e63573d6000803e3d6000fd5b50505050506040513d6020811015612e7a57600080fd5b505191505b50949350505050565b6060612e92613eaf565b612e9a613eaf565b60606000612ea786613847565b9350612ee76040805190810160405280600181526020017f2c00000000000000000000000000000000000000000000000000000000000000815250613847565b9250612ef9848463ffffffff61386d16565b600101604051908082528060200260200182016040528015612f2f57816020015b6060815260200190600190039081612f1a5790505b509150600090505b8151811015612a4257612f58612f53858563ffffffff6138da16565b6138ed565b8282815181101515612f6657fe5b60209081029091010152600101612f37565b612f81826119e2565b6040805182815242602082015281517f8eccff7828b55b758b0e481c64bde8da6c2e735295c22cfa4ae105a93986407d929181900390910190a15050565b600061151a826000613940565b6000612fd88484613ab2565b612fe3858585613ac7565b1115612ff857612ff38484613add565b612a7e565b612a7e8383613b13565b821515613027576000828152601d602052604090206002015481111561302757600080fd5b82613046576000828152601d602052604090206002015481900361305b565b6000828152601d602052604090206002015481015b6000928352601d6020526040909220600201919091555050565b6000600382101580156130b157506000838152601d60205260408120600401805460021985019081106130a457fe5b9060005260206000200154115b8015611c5e57506000838152601d6020526040902060040180543031919060021985019081106130dd57fe5b90600052602060002001541115905092915050565b6000838152601d60209081526040808320600160a060020a038616845290915281208054600019840190811061312457fe5b600091825260209091200155505050565b604051600160a060020a0383169082156108fc029083906000818181858888f19350505050158015610a75573d6000803e3d6000fd5b60008061318b731d3b2638a7cc9f2cb3d298a3da7a90b67e5506ed6126a9565b11156131fc5760008054600160a060020a031916731d3b2638a7cc9f2cb3d298a3da7a90b67e5506ed17905560408051808201909152600b81527f6574685f6d61696e6e657400000000000000000000000000000000000000000060208201526131f490613b5b565b506001611827565b600061321b73c03a2615d5efaf5f49f60b7bb6583eaec212fdf16126a9565b11156132845760008054600160a060020a03191673c03a2615d5efaf5f49f60b7bb6583eaec212fdf117905560408051808201909152600c81527f6574685f726f707374656e33000000000000000000000000000000000000000060208201526131f490613b5b565b60006132a373b7a07bcf2ba2f2703b24c0691b5278999c59ac7e6126a9565b111561330c5760008054600160a060020a03191673b7a07bcf2ba2f2703b24c0691b5278999c59ac7e17905560408051808201909152600981527f6574685f6b6f76616e000000000000000000000000000000000000000000000060208201526131f490613b5b565b600061332b73146500cfd35b22e4a392fe0adc06de1a1368ed486126a9565b11156133945760008054600160a060020a03191673146500cfd35b22e4a392fe0adc06de1a1368ed4817905560408051808201909152600b81527f6574685f72696e6b65627900000000000000000000000000000000000000000060208201526131f490613b5b565b60006133b3736f485c8bf6fc43ea212e93bbf8ce046c7f1cb4756126a9565b11156133e7575060008054600160a060020a031916736f485c8bf6fc43ea212e93bbf8ce046c7f1cb4751790556001611827565b60006134067320e12a1f859b3feae5fb2a0a32c18f5a65555bbf6126a9565b111561343a575060008054600160a060020a0319167320e12a1f859b3feae5fb2a0a32c18f5a65555bbf1790556001611827565b60006134597351efaf4c8b3c9afbd5ab9f4bbc82784ab6ef8faa6126a9565b111561348d575060008054600160a060020a0319167351efaf4c8b3c9afbd5ab9f4bbc82784ab6ef8faa1790556001611827565b50600090565b6000601554601354600e540201600202905090565b6008548111156134bd576126ef600180612f78565b8015156134c957610f27565b610f27600082611d3b565b6000818152601d60205260408120600701548110801561350a57506000828152601d602052604090206008810154600790910154115b61351557600061151a565b50600d546014546000928352601d602052604090922060088101546007909101546103e8919003909202020490565b801515610f27576126ef600082611d3b565b60008115156135a857604080518481526000602082018190524282840152915186917f2a5469c624ad714eeec8da453d410756e859e7f1b9f38d468b263cbdee7e5640919081900360600190a3611099565b50600c5460028204906135c990859085908490600160a060020a0316613b6e565b600954611099908590859084860390600160a060020a0316613b6e565b6060806060806060806060806000808e98508d97508c96508b95508a94508451865188518a518c51010101016040519080825280601f01601f19166020018201604052801561363f578160200160208202803883390190505b50935083925060009150600090505b88518110156136ac57888181518110151561366557fe5b90602001015160f860020a900460f860020a02838380600101945081518110151561368c57fe5b906020010190600160f860020a031916908160001a90535060010161364e565b5060005b875181101561370e5787818151811015156136c757fe5b90602001015160f860020a900460f860020a0283838060010194508151811015156136ee57fe5b906020010190600160f860020a031916908160001a9053506001016136b0565b5060005b865181101561377057868181518110151561372957fe5b90602001015160f860020a900460f860020a02838380600101945081518110151561375057fe5b906020010190600160f860020a031916908160001a905350600101613712565b5060005b85518110156137d257858181518110151561378b57fe5b90602001015160f860020a900460f860020a0283838060010194508151811015156137b257fe5b906020010190600160f860020a031916908160001a905350600101613774565b5060005b84518110156138345784818151811015156137ed57fe5b90602001015160f860020a900460f860020a02838380600101945081518110151561381457fe5b906020010190600160f860020a031916908160001a9053506001016137d6565b50909d9c50505050505050505050505050565b61384f613eaf565b50604080518082019091528151815260209182019181019190915290565b60008082600001516138918560000151866020015186600001518760200151613c18565b0190505b835160208501510181116138d35782516020808601518651918601516001909501946138cb929185039091039084908490613c18565b019050613895565b5092915050565b6138e2613eaf565b6138d3838383613cd8565b606080600083600001516040519080825280601f01601f191660200182016040528015613924578160200160208202803883390190505b5091506020820190506138d38185602001518660000151613d49565b6000828180805b8351811015613a955783517f30000000000000000000000000000000000000000000000000000000000000009085908390811061398057fe5b90602001015160f860020a900460f860020a02600160f860020a031916101580156139f6575083517f3900000000000000000000000000000000000000000000000000000000000000908590839081106139d657fe5b90602001015160f860020a900460f860020a02600160f860020a03191611155b15613a4f578115613a1557851515613a0d57613a95565b600019909501945b600a8302925060308482815181101515613a2b57fe5b90602001015160f860020a900460f860020a0260f860020a90040383019250613a8d565b8381815181101515613a5d57fe5b90602001015160f860020a900460f860020a02600160f860020a031916602e60f860020a021415613a8d57600191505b600101613947565b6000861115613aa75785600a0a830292505b509095945050505050565b600082613abf8484613add565b029392505050565b600083613ad48484613b13565b02949350505050565b6000826103e802601683815481101515613af357fe5b906000526020600020015460085402811515613b0b57fe5b049392505050565b60006103e8600d546103e803601785815481101515613b2e57fe5b9060005260206000200154601d6000868152602001908152602001600020600101540202811515613b0b57fe5b8051610bc1906002906020840190613dd4565b80600160a060020a031663a3912ec8836040518263ffffffff1660e060020a0281526004016000604051808303818588803b158015613bac57600080fd5b505af1158015613bc0573d6000803e3d6000fd5b5050604080518781526020810187905242818301529051600160a060020a03861694508893507f2a5469c624ad714eeec8da453d410756e859e7f1b9f38d468b263cbdee7e564092509081900360600190a350505050565b600083818080808080808c8b11613cc25760208b11613c8b5760018b60200360080260020a03196001029550858a511694508a8d8d010393508588511692505b828514613c8357838810613c70578c8c019850613cc8565b8780600101985050858851169250613c58565b879850613cc8565b8a8a209150600096505b8a8d038711613cc2575089872081811415613cb257879850613cc8565b6001978801979690960195613c95565b8c8c0198505b5050505050505050949350505050565b613ce0613eaf565b6000613cfe8560000151866020015186600001518760200151613c18565b60208087018051918601919091528051820385528651905191925001811415613d2a5760008552613d40565b8351835186519101900385528351810160208601525b50909392505050565b60005b60208210613d6e578251845260209384019390920191601f1990910190613d4c565b50905182516020929092036101000a6000190180199091169116179052565b828054828255906000526020600020908101928215613dc8579160200282015b82811115613dc8578235825591602001919060010190613dad565b50610eb9929150613ec6565b828054600181600116156101000203166002900490600052602060002090601f016020900481019282601f10613e1557805160ff1916838001178555613dc8565b82800160010185558215613dc8579182015b82811115613dc8578251825591602001919060010190613e27565b828054600181600116156101000203166002900490600052602060002090601f016020900481019282601f10613e835782800160ff19823516178555613dc8565b82800160010185558215613dc85791820182811115613dc8578235825591602001919060010190613dad565b604080518082019091526000808252602082015290565b61182791905b80821115610eb95760008155600101613ecc5600a165627a7a72305820b3ae8e20005cfb2607f93668bf1788ee41b1f3ed9b8538e61dbe494e3f962af50029222c226b223a247b5b646563727970745d204245686a7a5a495964334749764655753472577177594f464b75636e77546f4f55705033782f73765a567a2f566f3638633679496971386b365851446d504c616a7a5354442f5472705235634634426e4c4c684e4474454c79376851794d6d4654755561334a58427330473066346437635465495838494733374b78744e6663765561664a7932357d7d275d222c22706172616d73223a7b226e223a2236222c226d696e223a312c226d6178223a34392c227265706c6163656d656e74223a66616c73652c2262617365223a31302c226170694b6579223a247b5b646563727970745d204242786e356f515473384c4b526b4a6233324c532b6448662f632f2f483373536a65684a63686c756370644647456a427774537530386f6b53506f536b6f51517050435735366b7a37506f476d3556456338723732326f45673031416442303343625552705378553563463951374d65794e4161445563544f766c58314c32542f682f6b34505544364645497674796e485a72534d697345462b7237574a786769413d3d7d7d275d5b55524c5d205b276a736f6e2868747470733a2f2f6170692e72616e646f6d2e6f72672f6a736f6e2d7270632f312f696e766f6b65292e726573756c742e72616e646f6d5b2264617461222c202273657269616c4e756d626572225d272c275c6e7b226a736f6e727063223a2022322e30222c226d6574686f64223a2267656e65726174655369676e6564496e746567657273222c226964223a22",
  "source": "/**\r\n * NOTE: This v2 currently in testing phase, see deprecated for current main-chain version. It's also more method call-y than v1, and so slightly more expensive in gas (for turnovers, not the end user!) but MUCH more readable/maintainable.\r\n */\r\n/**\r\n *      Welcome to the  Smart-Contract!\r\n *      The  decentralized, charitable blockchain lottery!\r\n *      \r\n *      ##########################################\r\n *      ##########################################\r\n *      ###                                    ###\r\n *      ###           &            ###\r\n *      ###                 at                 ###\r\n *      ###          .          ###\r\n *      ###                                    ###\r\n *      ##########################################\r\n *      ##########################################\r\n *\r\n *      Etheraffle is designed to give   to \r\n *      players, sustainable   to  token \r\n *      holders, and -  to charities.\r\n *\r\n *      Learn more & get involved at ./ to become a\r\n *       token holder today! Holding  tokens automatically  \r\n *      makes you a part of the decentralized, autonomous organisation  \r\n *      that  Etheraffle. Take your place in this decentralized, \r\n *      altruistic vision of the future!\r\n *\r\n *      If you want to chat to us you have loads of options:\r\n *      On  @ ://./\r\n *      Or on  @ ://./\r\n *      Or on  @ ://..\r\n *\r\n */\r\npragma solidity^0.4.20;\r\n\r\n// import \"github.com/oraclize/ethereum-api/oraclizeAPI.sol\"; // Truffle uses the actual sol files\r\n// import \"github.com/Arachnid/solidity-stringutils/src/strings.sol\"; // Truffle uses the actual sol files\r\nimport \"./strings.sol\";\r\nimport \"installed_contracts/oraclize-api/contracts/usingOraclize.sol\";\r\n\r\ncontract ReceiverInterface {\r\n    function receiveEther() external payable {}\r\n}\r\n\r\ncontract EtheraffleUpgrade {\r\n    function manuallyAddToPrizePool() payable external {}\r\n}\r\n\r\ncontract FreeLOTInterface {\r\n    function mint(address _to, uint _amt) external {}\r\n    function destroy(address _from, uint _amt) external {}\r\n    function balanceOf(address who) constant public returns (uint) {}\r\n}\r\n\r\ncontract Etheraffle is usingOraclize {\r\n    using strings for *;\r\n    /**\r\n     * @title   Etheraffle\r\n     * @author  Greg Kapka (github.com/gskapka)\r\n     *\r\n     *      ##########################################\r\n     *      ###                                    ###\r\n     *      ###             Variables              ###\r\n     *      ###                                    ###\r\n     *      ##########################################\r\n     *\r\n     */\r\n    uint    public week;\r\n    bool    public paused;\r\n    uint    public upgraded;\r\n    uint    public prizePool;\r\n    address public ethRelief;\r\n    address public etheraffle;\r\n    address public upgradeAddr;\r\n    address public disburseAddr;\r\n    uint    public take         = 150; // ppt\r\n    uint    public gasAmt       = 500000;\r\n    uint    public resultsDelay = 3600;\r\n    uint    public matchesDelay = 3600;\r\n    uint    public rafEnd       = 500400; // 7:00pm Saturdays\r\n    uint    public wdrawBfr     = 6048000;\r\n    uint    public gasPrc       = 20000000000; // 20 gwei\r\n    uint    public tktPrice     = 2000000000000000;\r\n    uint    public oracCost     = 1500000000000000; // $1 @ $700\r\n    uint[]  public pctOfPool    = [520, 114, 47, 319]; // ppt...\r\n    uint[]  public odds         = [56, 1032, 54200, 13983816]; // Rounded down to nearest whole \r\n    uint  constant WEEKDUR      = 604800;\r\n    uint  constant BIRTHDAY     = 1500249600;//Etheraffle's birthday <3\r\n    // string randomStr1 = \"[URL] ['json(https://api.random.org/json-rpc/1/invoke).result.random[\\\"data\\\", \\\"serialNumber\\\"]','\\\\n{\\\"jsonrpc\\\": \\\"2.0\\\",\\\"method\\\":\\\"generateSignedIntegers\\\",\\\"id\\\":\\\"\";\r\n    // string randomStr2 = \"\\\",\\\"params\\\":{\\\"n\\\":\\\"6\\\",\\\"min\\\":1,\\\"max\\\":49,\\\"replacement\\\":false,\\\"base\\\":10,\\\"apiKey\\\":${[decrypt] BKM3j7tH7qBIQKuadP5kJ547Au1uB1Zo41u6tCfLPT3GDGJJCEpXLS87u1xlYsFu/i21zycQJgVFWzev+ZSjflQKsOCFbdN5oUSiR/GvD5nuLblzG6H+xq2lVdZ0lN/EZjrCmgMfaF0r3uo/FKcRdAnbf2wxKQ5Vfg==}}']\";\r\n    // string apiStr1    = \"[URL] ['json(https://etheraffle.com/api/a).m','{\\\"r\\\":\\\"\";\r\n    // string apiStr2    = \"\\\",\\\"k\\\":${[decrypt] BGQljYtTQ+yq9TZztMcWycMiaAezwNm3ppmcBvdh37ZJVJiTFbQw+h+WycbJtaklSFe2+S228NTf9eOh+6y06dlVpbJ3S28JhDOg50j4wqAIXdtCWDZLkAgyjXI3pOa3SJY3RV2b}}']\";\r\n    FreeLOTInterface freeLOT;\r\n\r\n    /* TODO: For use in testing deployments */\r\n    string randomStr1 = \"[URL] ['json(https://api.random.org/json-rpc/1/invoke).result.random[\\\"data\\\", \\\"serialNumber\\\"]','\\\\n{\\\"jsonrpc\\\": \\\"2.0\\\",\\\"method\\\":\\\"generateSignedIntegers\\\",\\\"id\\\":\\\"\";\r\n    string randomStr2 = \"\\\",\\\"params\\\":{\\\"n\\\":\\\"6\\\",\\\"min\\\":1,\\\"max\\\":49,\\\"replacement\\\":false,\\\"base\\\":10,\\\"apiKey\\\":${[decrypt] BBxn5oQTs8LKRkJb32LS+dHf/c//H3sSjehJchlucpdFGEjBwtSu08okSPoSkoQQpPCW56kz7PoGm5VEc8r722oEg01AdB03CbURpSxU5cF9Q7MeyNAaDUcTOvlX1L2T/h/k4PUD6FEIvtynHZrSMisEF+r7WJxgiA==}}']\";\r\n    string apiStr1    = \"[URL] ['json(https://etheraffle.com/api/a).m','{\\\"r\\\":\\\"\";\r\n    string apiStr2    = \"\\\",\\\"k\\\":${[decrypt] BEhjzZIYd3GIvFUu4rWqwYOFKucnwToOUpP3x/svZVz/Vo68c6yIiq8k6XQDmPLajzSTD/TrpR5cF4BnLLhNDtELy7hQyMmFTuUa3JXBs0G0f4d7cTeIX8IG37KxtNfcvUafJy25}}']\";\r\n\r\n\r\n    /**\r\n     *\r\n     *      ##########################################\r\n     *      ###                                    ###\r\n     *      ###          Data Structures           ###\r\n     *      ###                                    ###\r\n     *      ##########################################\r\n     *\r\n     */\r\n    mapping (uint => rafStruct) public raffle;\r\n    struct rafStruct {\r\n        mapping (address => bytes32[]) entries;\r\n        uint tktPrice;\r\n        uint unclaimed;\r\n        uint[] winNums;\r\n        uint[] winAmts;\r\n        uint timeStamp;\r\n        bool wdrawOpen;\r\n        uint numEntries;\r\n        uint freeEntries;\r\n    }\r\n\r\n    mapping (bytes32 => qIDStruct) public qID;\r\n    struct qIDStruct {\r\n        uint weekNo;\r\n        bool isRandom;\r\n        bool isManual;\r\n    }\r\n    /**\r\n     *\r\n     *      ##########################################\r\n     *      ###                                    ###\r\n     *      ###             Modifiers              ###\r\n     *      ###                                    ###\r\n     *      ##########################################\r\n     *\r\n     */\r\n    /**\r\n    * @notice   Modifier to prepend to functions adding the additional\r\n    *           conditional requiring caller of the method to be the\r\n    *           etheraffle address.\r\n    */\r\n    modifier onlyEtheraffle() {\r\n        require(msg.sender == etheraffle);\r\n        _;\r\n    }\r\n    /**\r\n    * @notice   Modifier to prepend to functions adding the additional\r\n    *           conditional requiring the paused bool to be false.\r\n    */\r\n    modifier onlyIfNotPaused() {\r\n        require(!paused);\r\n        _;\r\n    }\r\n    /**\r\n     * @notice  Modifier to prepend to functions adding the additional\r\n     *          conditional requiring caller of the method to be either\r\n     *          the Oraclize or Etheraffle address.\r\n     *\r\n     */\r\n    modifier onlyOraclize() {\r\n        require(msg.sender == oraclize_cbAddress() || msg.sender == etheraffle);\r\n        _;\r\n    }\r\n    /**\r\n     *\r\n     *      ##########################################\r\n     *      ###                                    ###\r\n     *      ###              Events                ###\r\n     *      ###                                    ###\r\n     *      ##########################################\r\n     *\r\n     */\r\n    event LogFunctionsPaused(uint identifier, uint atTime);\r\n    event LogQuerySent(bytes32 queryID, uint dueAt, uint sendTime);\r\n    event LogReclaim(uint indexed fromRaffle, uint amount, uint atTime);\r\n    event LogUpgrade(address newContract, uint ethTransferred, uint atTime);\r\n    event LogPrizePoolAddition(address fromWhom, uint howMuch, uint atTime);\r\n    event LogFreeLOTWin(uint indexed forRaffle, address toWhom, uint entryNumber, uint amount, uint atTime);\r\n    event LogOraclizeCallback(address functionCaller, bytes32 queryID, string result, uint indexed forRaffle, uint atTime);\r\n    event LogFundsDisbursed(uint indexed forRaffle, uint oraclizeTotal, uint amount, address indexed toAddress, uint atTime);\r\n    event LogWithdraw(uint indexed forRaffle, address indexed toWhom, uint forEntryNumber, uint matches, uint amountWon, uint atTime);\r\n    event LogWinningNumbers(uint indexed forRaffle, uint numberOfEntries, uint[] wNumbers, uint currentPrizePool, uint randomSerialNo, uint atTime);\r\n    event LogTicketBought(uint indexed forRaffle, uint indexed entryNumber, address indexed theEntrant, uint[] chosenNumbers, uint personalEntryNumber, uint tktCost, uint atTime, uint affiliateID);\r\n    event LogPrizePoolsUpdated(uint newMainPrizePool, uint indexed forRaffle, uint ticketPrice, uint unclaimedPrizePool, uint[] winningAmounts, uint atTime);\r\n    /**\r\n     *\r\n     *      ##########################################\r\n     *      ###                                    ###\r\n     *      ###            Constructor             ###\r\n     *      ###                                    ###\r\n     *      ##########################################\r\n     *\r\n     */\r\n    /**\r\n     * @notice  Constructor. Sets the Etheraffle multisig address, \r\n     *          the EthRelief & Disbursal contract addresses and \r\n     *          instantiates the FreeLOT contract. Sets up an \r\n     *          initial raffle struct.\r\n     *\r\n     * @param   _etheraffle Address of the Etheraffle multisig.\r\n     *\r\n     * @param   _disburse   Address of the disbursal contract.\r\n     *\r\n     * @param   _ethRelief  Address of the EthRelief contract.\r\n     *\r\n     * @param   _freeLOT    Address of the freeLOT contract.\r\n     *\r\n     * 0x97f535e98cf250cdd7ff0cb9b29e4548b609a0bd - Etheraffle\r\n     * 0xb6a5f50b5ce5909a9c75ce27fec96e5de393af61 - Disbursal\r\n     * 0x7ee65fe55accd9430f425379851fe768270c6699 - EthRelief\r\n     * 0xc39f7bB97B31102C923DaF02bA3d1bD16424F4bb - FreeLOT\r\n     */\r\n    function Etheraffle(address _etheraffle, address _disburse, address _ethRelief, address _freeLOT) public payable {\r\n        week         = getWeek();\r\n        etheraffle   = _etheraffle;\r\n        disburseAddr = _disburse;\r\n        ethRelief    = _ethRelief;\r\n        freeLOT      = FreeLOTInterface(_freeLOT);\r\n        setUpRaffleStruct(week, 2500000000000000, (week * WEEKDUR) + BIRTHDAY);\r\n        // TODO: Remove in prod!\r\n        OAR = OraclizeAddrResolverI(0x6f485C8BF6fc43eA212E93BBF8ce046C7f1cb475);\r\n    }\r\n    /**\r\n     *\r\n     *      ##########################################\r\n     *      ###                                    ###\r\n     *      ###           Raffle Setup             ###\r\n     *      ###                                    ###\r\n     *      ##########################################\r\n     *\r\n     */\r\n    /**\r\n     * @notice  Function which gets current week number and if different\r\n     *          from the global var week number, it updates that and sets\r\n     *          up the new raffle struct. Should only be called once a\r\n     *          week after the raffle is closed. Should it get called\r\n     *          sooner, the contract is paused for inspection.\r\n     *\r\n     */\r\n    function setUpNewRaffle() internal {\r\n        uint newWeek = getWeek();\r\n        if (newWeek == week) return pauseContract(true, 4);\r\n        setWeek(newWeek);\r\n        setUpRaffleStruct(newWeek, tktPrice, BIRTHDAY + (newWeek * WEEKDUR));\r\n    }\r\n    /**\r\n     * @notice  Function using Etheraffle's birthday to calculate the\r\n     *          week number since then.\r\n     *\r\n     * @return  The current week number.\r\n     *\r\n     */\r\n    function getWeek() public constant returns (uint) {\r\n        uint curWeek = (now - BIRTHDAY) / WEEKDUR;\r\n        return pastClosingTime(curWeek) ? curWeek + 1 : curWeek;\r\n    }\r\n    /**\r\n     * @notice  Calculates if time function is called is past a raffle's \r\n     *          designated end time.\r\n     *\r\n     * @return  True if past closing else false.\r\n     *\r\n     */\r\n    function pastClosingTime(uint _curWeek) internal view returns (bool) {\r\n        return now - ((_curWeek * WEEKDUR) + BIRTHDAY) > rafEnd;\r\n    }\r\n\t/**\r\n\t * @notice\tSets up new raffle via creating a struct with the correct \r\n     *          timestamp and ticket price. \r\n\t *\r\n\t * @param   _week       Desired week number for new raffle struct.\r\n     *\r\n     * @param   _tktPrice   Desired ticket price for the raffle\r\n     *\r\n     * @param    _timeStamp Timestamp of Mon 00:00 of the week of this raffle\r\n     *\r\n\t */\r\n   \tfunction setUpRaffleStruct(uint _week, uint _tktPrice, uint _timeStamp) internal {\r\n        raffle[_week].tktPrice  = _tktPrice;\r\n        raffle[_week].timeStamp = _timeStamp;\r\n   \t}\r\n\t/**\r\n\t * @notice\tSets the withdraw status of a raffle.\r\n\t *\r\n\t * @param   _week   Week number for raffle in question.\r\n     *\r\n     * @param   _status Desired withdraw status for raffle.\r\n     *\r\n\t */\r\n    function setWithdraw(uint _week, bool _status) internal {\r\n        raffle[_week].wdrawOpen = _status;\r\n    }\r\n    /**\r\n\t * @notice\tSets the global week variable.\r\n\t *\r\n\t * @param   _week   Desired week number.\r\n     *\r\n\t */\r\n    function setWeek(uint _week) internal {\r\n        week = _week;\r\n    }\r\n    /**\r\n     *\r\n     *      ##########################################\r\n     *      ###                                    ###\r\n     *      ###           Pause Contract           ###\r\n     *      ###                                    ###\r\n     *      ##########################################\r\n     *\r\n     */\r\n    /**\r\n     * @notice  Sets the paused status of the contract to the bool \r\n     *          passed in. Logs an event with a uint identifying the \r\n     *          reason for pausing the contract to the front-end \r\n     *          event watcher.\r\n     *\r\n     * @param   _status Desired pause status.\r\n     *\r\n     * @param   _id     Uint identifing the reason function was called.\r\n     */\r\n    function pauseContract(bool _status, uint _id) internal {\r\n        pauseContract(_status);\r\n        emit LogFunctionsPaused(_id, now);\r\n    }\r\n    /**\r\n     * @notice  Sets the paused status of the contract to the bool \r\n     *          passed in. This affects various of the contracts \r\n     *          functions via the onlyIfNotPaused modifier.\r\n     *\r\n     * @param   _status     Desired pause status.\r\n     *\r\n     */\r\n    function pauseContract(bool _status) internal {\r\n        paused = _status;\r\n    }\r\n    /**\r\n     *\r\n     *      ##########################################\r\n     *      ###                                    ###\r\n     *      ###         Ticket Purchasing          ###\r\n     *      ###                                    ###\r\n     *      ##########################################\r\n     *\r\n     */\r\n   /**\r\n     * @notice  Function to enter a raffle. Checks for correct ticket price, \r\n     *          then purchases ticket. Only callable when the contract is \r\n     *          not paused.\r\n     *\r\n     * @param   _cNums  Ordered array of entrant's six selected numbers.\r\n     *\r\n     * @param   _affID  Affiliate ID of the source of this entry.\r\n     *\r\n     */\r\n    function enterRaffle(uint[] _cNums, uint _affID) payable public onlyIfNotPaused {\r\n        require (validTktPrice(week));\r\n        buyTicket(_cNums, msg.sender, msg.value, _affID);\r\n    }\r\n    /**\r\n     * @notice  Function to enter the raffle on behalf of another address.  \r\n     *          Checks for correct ticket price. Only callable when the \r\n     *          contract is not paused. In the event of a win, only the \r\n     *          onBehalfOf address can claim it.\r\n     *  \r\n     * @param   _cNums        Ordered array of entrant's six selected numbers.\r\n     *\r\n     * @param   _affID        Affiliate ID of the source of this entry.\r\n     *\r\n     * @param   _onBehalfOf   The address to be entered on behalf of.\r\n     *\r\n     */\r\n    function enterOnBehalfOf(uint[] _cNums, uint _affID, address _onBehalfOf) payable public onlyIfNotPaused {\r\n        require (validTktPrice(week));\r\n        buyTicket(_cNums, _onBehalfOf, msg.value, _affID);\r\n    }\r\n    /**\r\n     * @notice  Function to enter the raffle for free. Requires the caller's\r\n     *          balance of the Etheraffle freeLOT token to be greater than\r\n     *          zero. Function destroys one freeLOT token, increments the\r\n     *          freeEntries variable in the raffle struct then purchases the\r\n     *          ticket. Only callable if contract is not paused.\r\n     *\r\n     * @param   _cNums    Ordered array of entrant's six selected numbers.\r\n     *\r\n     * @param   _affID    Affiliate ID of the source of this entry.\r\n     *\r\n     */\r\n    function enterFreeRaffle(uint[] _cNums, uint _affID) payable public onlyIfNotPaused {\r\n        decrementFreeLOT(msg.sender, 1);\r\n        incremementEntries(week, true);\r\n        buyTicket(_cNums, msg.sender, msg.value, _affID);\r\n    }\r\n    /**\r\n     * @notice  Checks that a raffle struct has a ticket price set and whether \r\n     *          the caller's msg.value is greater than or equal to that price.\r\n     *\r\n     * @param   _week   Week number for raffle in question.\r\n     *\r\n     * @return  True if msg.value greater than tktPrice, else false.\r\n     *\r\n     */\r\n    function validTktPrice(uint _week) internal view returns (bool) {\r\n        return (\r\n            raffle[_week].tktPrice > 0 && \r\n            msg.value >= raffle[_week].tktPrice\r\n        );\r\n    }\r\n    /**\r\n     * @notice  Decrement an address' FreeLOT token holdings by a specified \r\n     *          amount.\r\n     *\r\n     * @param   _address  The address owning the FreeLOT token(s)\r\n     *\r\n     * @param   _amt      The amount of FreeLOT to destroy.\r\n     *\r\n     */\r\n    function decrementFreeLOT(address _address, uint _amt) internal {\r\n        freeLOT.destroy(_address, _amt);\r\n    }\r\n    /**\r\n     * @notice  Internal function that purchases raffle tickets. Requires the \r\n     *          raffle be open for entry and the chosen numbers be valid. \r\n     *          Increments number of entries in the raffle strut, adds the ticket \r\n     *          price to the prize pool and stores a hash of the entrants chosen \r\n     *          numbers before logging the purchase.   \r\n     *\r\n     * @param   _cNums      Array of users selected numbers.\r\n     *\r\n     * @param   _entrant    Entrant's ethereum address.\r\n     *\r\n     * @param   _value      The ticket purchase price.\r\n     *\r\n     * @param   _affID      Affiliate ID of the source of this entry.\r\n     *\r\n     */\r\n    function buyTicket(uint[] _cNums, address _entrant, uint _value, uint _affID) internal {\r\n        require (raffleOpenForEntry() && validNumbers(_cNums));\r\n        incremementEntries(week, false);\r\n        modifyPrizePool(true, _value);\r\n        storeEntry(week, _entrant, _cNums);\r\n        emit LogTicketBought(week, raffle[week].numEntries, _entrant, _cNums, raffle[week].entries[_entrant].length, _value, now, _affID);\r\n    }\r\n    /**\r\n     * @notice  Stores a ticket purchase by hashing the chosen numbers \r\n     *          and pushing them into an array mapped to the user's \r\n     *          address in the relevant raffle's struct.\r\n     *\r\n     * @param   _week       Week number for raffle in question.\r\n     *\r\n     * @param   _entrant    The entrant's address.\r\n     *\r\n     * @param   _cNums      The entrant's chosen numbers.\r\n     *\r\n     */\r\n    function storeEntry(uint _week, address _entrant, uint[] _cNums) internal {\r\n        raffle[_week].entries[_entrant].push(keccak256(_cNums));\r\n    }\r\n    /**\r\n     * @notice  Increments the number of entries in a raffle struct. \r\n     *          Increments free entries if bool passed is true, else \r\n     *          normal entries otherwise.\r\n     *\r\n     * @param   _week   Week number for raffle in question\r\n     *\r\n     * @param   _free   Whether it is a free entry or not.\r\n     *\r\n     */\r\n    function incremementEntries(uint _week, bool _free) internal {\r\n        _free ? raffle[week].freeEntries++ : raffle[_week].numEntries++;\r\n    }\r\n    /**\r\n     * @notice  Temporal & raffle struct setup requirements that need to be \r\n     *          satisfied before a raffle ticket can be purchased.\r\n     *\r\n     * @return  True if raffle is open for entry, else false.\r\n     *\r\n     */\r\n    function raffleOpenForEntry() internal view returns (bool) {\r\n        return (\r\n            raffle[week].timeStamp > 0 &&\r\n            now < raffle[week].timeStamp + rafEnd\r\n        );\r\n    }\r\n    /**\r\n     * @notice  Series of requirements a raffle ticket's chosen numbers must \r\n     *          pass in order to qualify as valid. Ensures that there are six \r\n     *          numbers, in ascending order, between one and 49.\r\n     *\r\n     * @param   _cNums  Array of a ticket's proposed numbers in question.\r\n     *\r\n     * @return  True if numbers are valid, else false.\r\n     *\r\n     */\r\n    function validNumbers(uint[] _cNums) internal pure returns (bool) {\r\n        return (\r\n            _cNums.length == 6    &&\r\n            0         < _cNums[0] &&\r\n            _cNums[0] < _cNums[1] &&\r\n            _cNums[1] < _cNums[2] &&\r\n            _cNums[2] < _cNums[3] &&\r\n            _cNums[3] < _cNums[4] &&\r\n            _cNums[4] < _cNums[5] &&\r\n            _cNums[5] <= 49\r\n        );\r\n    }\r\n    /**\r\n     * @notice  Modifies prizePool var. If true passed is in as first \r\n     *          argument, prizePool is incremented by _amt, if  false, \r\n     *          decremented. In which latter case, it requires the minuend \r\n     *          be smaller than the subtrahend.  \r\n     *\r\n     * @param   _bool   Boolean signifying addtion or subtraction. \r\n     *\r\n     * @param   _amt    Amount to modify the prize pool by.\r\n     *\r\n     */\r\n    function modifyPrizePool(bool _bool, uint _amt) private {\r\n        if (!_bool) require (_amt <= prizePool);\r\n        prizePool = _bool ? prizePool + _amt : prizePool - _amt;\r\n    }\r\n    /**\r\n     *\r\n     *      ##########################################\r\n     *      ###                                    ###\r\n     *      ###         Withdraw Winnings          ###\r\n     *      ###                                    ###\r\n     *      ##########################################\r\n     *\r\n     */\r\n    /**\r\n     * @notice  User calls this function in order to withdraw whatever \r\n     *          winnings they are owed. It requires the entry be valid \r\n     *          and the raffle open for withdraw. Function retrieves the\r\n     *          number of matches then pays out accordingly. Only callable \r\n     *          if the contract is not paused.\r\n     *\r\n     * @param   _week       Week number of the raffle the winning entry is from.\r\n     *\r\n     * @param   _entryNum   The entrant's entry number into this raffle.\r\n     *\r\n     */\r\n    function withdrawWinnings(uint _week, uint _entryNum, uint[] _cNums) external onlyIfNotPaused {\r\n        require (validEntry(_week, _entryNum, _cNums, msg.sender) && openForWithdraw(_week));\r\n        uint matches = getMatches(_cNums, raffle[_week].winNums);\r\n        require (matches >= 2);\r\n        matches == 2 \r\n            ? winFreeGo(_week, _entryNum, msg.sender) \r\n            : payWinnings(_week, _entryNum, matches, msg.sender);\r\n    }\r\n    /*\r\n     * @notice  Mints a FreeLOT coupon to a two match winner allowing them \r\n     *          a free entry to Etheraffle. Function pausable by pause toggle.\r\n     *\r\n     * @param   _week       Week number of raffle whence the win originates.\r\n     *\r\n     * @param   _entryNum   Entry number of the win in question.\r\n     *\r\n     * @param   _entrant    Entry to whom the win belongs.\r\n     *\r\n     */\r\n    function winFreeGo(uint _week, uint _entryNum, address _entrant) private onlyIfNotPaused {\r\n        invalidateEntry(_week, _entrant, _entryNum);\r\n        freeLOT.mint(_entrant, 1);\r\n        emit LogFreeLOTWin(_week, _entrant, _entryNum, 1, now);\r\n    }\r\n    /**\r\n     * @notice  If ticket wins ETH this function first checks the eligibility \r\n     *          for withdraw before invalidating the ticket, deducting the win \r\n     *          from the unclaimed prizepool and finally transferring the winnings.\r\n     *\r\n     * @param   _week       Week number for raffle in question.\r\n     *\r\n     * @param   _entryNum   Entry number for ticket in question.\r\n     *\r\n     * @param   _matches    Number of matches ticket make to winning numbers.\r\n     *\r\n     * @param   _entrant    Address of the ticket holder.\r\n     *\r\n     */\r\n    function payWinnings(uint _week, uint _entryNum, uint _matches, address _entrant) private {\r\n        require (eligibleForWithdraw(_week, _matches));\r\n        invalidateEntry(_week, _entrant, _entryNum);\r\n        modifyUnclaimed(false, _week, raffle[_week].winAmts[_matches - 3]);\r\n        transferWinnings(_entrant, raffle[_week].winAmts[_matches - 3]);\r\n        emit LogWithdraw(_week, _entrant, _entryNum, _matches, raffle[_week].winAmts[_matches - 3], now);\r\n    }\r\n    /**\r\n     * @notice  Tranfers an amount of ETH to an address.\r\n     *\r\n     * @param   _address    Address to transger ETH to.\r\n     *\r\n     * @param   _amt        Amount of Wei to transfer.\r\n     *\r\n     */\r\n    function transferWinnings(address _address, uint _amt) private {\r\n        _address.transfer(_amt);\r\n    }\r\n    /**\r\n     * @notice  Modifies the unclaimed variable in a struct. If true passed \r\n     *          in as first argument, unclaimed is incremented by _amt, if \r\n     *          false, decremented. In which latter case, it requires the \r\n     *          minuend is smaller than the subtrahend.   \r\n     *\r\n     * @param   _bool     Boolean signifying addtion or subtraction.\r\n     *\r\n     * @param   _week     Week number for raffle in question.\r\n     *\r\n     * @param   _amt      Amount unclaimed is to be modified by.\r\n     *\r\n     */\r\n    function modifyUnclaimed(bool _bool, uint _week, uint _amt) private {\r\n        if (!_bool) require (_amt <= raffle[_week].unclaimed);\r\n        raffle[_week].unclaimed = _bool ? raffle[_week].unclaimed + _amt : raffle[_week].unclaimed - _amt;\r\n    }\r\n    /**\r\n     * @notice  Various requirements w/r/t number of matches, win amounts \r\n     *          being set in the raffle struct and contract balance that \r\n     *          need to be passed before withdrawal can be processed.\r\n     *\r\n     * @param   _week     Week number for raffle in question.\r\n     *\r\n     * @param   _matches  Number of matches the entry in question has made.\r\n     *\r\n     * @return  True if eligible for withdraw, else false.\r\n     *\r\n     */\r\n    function eligibleForWithdraw(uint _week, uint _matches) view internal returns (bool) {\r\n        return (\r\n            _matches >= 3 &&\r\n            raffle[_week].winAmts[_matches - 3] > 0 &&\r\n            raffle[_week].winAmts[_matches - 3] <= this.balance\r\n        );\r\n    }\r\n    /**\r\n     * @notice  Compares hash of provided entry numbers to previously bought \r\n     *          ticket's hashed entry numbers.\r\n     *\r\n     * @param   _week       Week number for raffle in question.\r\n     *\r\n     * @param   _entryNum   Entry number in question.\r\n     *\r\n     * @param   _cNums      Propsed entry numbers for entry in question.\r\n     *\r\n     * @param   _entrant    Address of entrant in question.\r\n     *\r\n     * @return  True if entry is valid, else false.\r\n     *\r\n     */\r\n    function validEntry(uint _week, uint _entryNum, uint[] _cNums, address _entrant) view internal returns (bool) {\r\n        return raffle[_week].entries[_entrant][_entryNum - 1] == keccak256(_cNums);\r\n    }\r\n    /**\r\n     * @notice  Function zeroes the previously stored hash of an entrant's \r\n     *          ticket's chosen numbers.\r\n     *\r\n     * @param   _week       Week number for raffle in question.\r\n     *\r\n     * @param   _entrant    Address of the entrant in question.\r\n     *\r\n     * @param   _entryNum   Entry number in question.\r\n     *\r\n     */\r\n    function invalidateEntry(uint _week, address _entrant, uint _entryNum) private {\r\n        raffle[_week].entries[_entrant][_entryNum - 1] = 0;\r\n    }\r\n    /**\r\n     * @notice  Various temporal requirements plus struct setup requirements \r\n     *          that need to be met before a prize withdrawal can be processed. \r\n     *          In order: Winning numbers need to be set, withdraw bool needs \r\n     *          to be true, raffle's timestamp needs to be set, that the time \r\n     *          the function is called needs to be before the withdraw deadline, \r\n     *          and that the time the function is called needs to be six days \r\n     *          beyond the timestamp. \r\n     *\r\n     * @param   _week   Week number for the raffle in question.\r\n     *\r\n     * @return  True if raffle is open for withdraw, else false.\r\n     *\r\n     */\r\n    function openForWithdraw(uint _week) view internal returns (bool) {\r\n        return (\r\n            winNumbersSet(_week) &&\r\n            raffle[_week].wdrawOpen &&\r\n            raffle[_week].timeStamp > 0 &&\r\n            now - raffle[_week].timeStamp < wdrawBfr &&\r\n            now - raffle[_week].timeStamp > WEEKDUR - (WEEKDUR / 7)\r\n        );\r\n    }\r\n    /**\r\n     * @notice  Function performs set intersection on two arrays\r\n     *          and counts to see how many numbers they have in common.\r\n     *\r\n     * @param   _cNums  Array of entrant's chosen numbers.\r\n     *\r\n     * @param   _wNums  Array of winning numbers.\r\n     *\r\n     * @return  Amount of numbers two arrays have in common.\r\n     *\r\n     */\r\n    function getMatches(uint[] _cNums, uint[] _wNums) pure internal returns (uint) {\r\n        require(_cNums.length == 6 && _wNums.length == 6);\r\n        uint matches;\r\n        for (uint i = 0; i < 6; i++) {\r\n            for (uint j = 0; j < 6; j++) {\r\n                if (_cNums[i] == _wNums[j]) {\r\n                    matches++;\r\n                    break;\r\n                }\r\n            }\r\n        }\r\n        return matches;\r\n    }\r\n    /**\r\n     *\r\n     *      ##########################################\r\n     *      ###                                    ###\r\n     *      ###         Oraclize Callback          ###\r\n     *      ###                                    ###\r\n     *      ##########################################\r\n     *\r\n     */\r\n    /**\r\n     * @notice  The Oralize call back function. Only callable by Etheraffle \r\n     *          or the Oraclize address. Emits an event detailing the callback, \r\n     *          before running the relevant method that acts on the callback.\r\n     * \r\n     * @param   _myID    Unique id oraclize provides with their callbacks.\r\n     *                            \r\n     * @param   _result  The result of the api call.\r\n     *\r\n     */\r\n    function __callback(bytes32 _myID, string _result) public onlyIfNotPaused onlyOraclize {\r\n        emit LogOraclizeCallback(msg.sender, _myID, _result, qID[_myID].weekNo, now);\r\n        queryIsRandom(_myID) \r\n            ? randomCallback(_myID, _result) \r\n            : apiCallback(_myID, _result);\r\n    }\r\n        /**\r\n     * @notice  Checks if an Oraclize query was made manually or not.\r\n     *\r\n     * @param   _ID     Bytes32 hash identifying the query in question.\r\n     *\r\n     * @return  True if query was made manually, else false.\r\n     *\r\n     */\r\n    function queryIsManual(bytes32 _ID) internal view returns (bool) {\r\n        return qID[_ID].isManual;\r\n    }\r\n    /**\r\n     * @notice  Checks if an Oraclize query was to Random.org or not.\r\n     *\r\n     * @param   _ID     Bytes32 hash identifying the query in question.\r\n     *\r\n     * @return  True if query pertains to a Random.org api call, else false.\r\n     *\r\n     */\r\n    function queryIsRandom(bytes32 _ID) internal view returns (bool) {\r\n        return qID[_ID].isRandom;\r\n    }\r\n    /**\r\n     *\r\n     *      ##########################################\r\n     *      ###                                    ###\r\n     *      ###          Random Callback           ###\r\n     *      ###                                    ###\r\n     *      ##########################################\r\n     *\r\n     */\r\n    /**\r\n     * @notice  Called when a random.org api callback comes in. It first \r\n     *          reclaims unclaimed prizes from the raffle ten weeks previous,\r\n     *          disburses this week's raffle's profits, sets the winning \r\n     *          numbers from the callback in this raffle's struct and finally \r\n     *          prepares the next Oraclize query to call the Etheraffle API.\r\n     *          Function requires the winning numbers to not already have been\r\n     *          set which stops Oraclize replays causing havoc!\r\n     *\r\n     * @param   _myID       The hash of the Oraclize query\r\n     *\r\n     * @param   _result     The result of the Oraclize query\r\n     *\r\n     */\r\n    function randomCallback(bytes32 _myID, string _result) internal onlyOraclize {\r\n        require(!winNumbersSet(qID[_myID].weekNo));\r\n        reclaimUnclaimed();\r\n        performAccounting(qID[_myID].weekNo);\r\n        setWinningNumbers(qID[_myID].weekNo, _result);\r\n        if (queryIsManual(_myID)) return;\r\n        sendQuery(matchesDelay, getQueryString(false, qID[_myID].weekNo), qID[_myID].weekNo, false, false);\r\n    }\r\n    /**\r\n     * @notice  Returns bool depending on whether the winning numbers\r\n     *          have been set in the struct or not.\r\n     *\r\n     * @param   _week   Week number for raffle in question.\r\n     *\r\n     * @return  True if winning numbers are set correctly in raffle struct.\r\n     *\r\n     */\r\n    function winNumbersSet(uint _week) internal view returns (bool) {\r\n        return raffle[_week].winNums.length > 0;\r\n    }\r\n    /**\r\n     * @notice  Called by the weekly Oraclize callback. Checks raffle 10\r\n     *          weeks older than current raffle for any unclaimed prize\r\n     *          pool. If any found, returns it to the main prizePool and\r\n     *          zeros the amount.\r\n     *\r\n     */\r\n    function reclaimUnclaimed() internal {\r\n        uint old = getWeek() - 11;\r\n        uint amt = getUnclaimed(old);\r\n        if (amt == 0) return;\r\n        modifyPrizePool(true, amt);\r\n        modifyUnclaimed(false, old, amt);\r\n        emit LogReclaim(old, amt, now);\r\n    }\r\n    //TODO: Check is this is used more than once - might be a refactor too far?\r\n    /**\r\n     * @notice  Returns the unclaimed prize pool sequestered in a raffle's\r\n     *          struct.\r\n     *\r\n     * @param   _week   Week number for raffle in question.\r\n     *\r\n     * @return  Unclaimed prize pool sequestered in raffle's struct in Wei.\r\n     *\r\n     */\r\n    function getUnclaimed(uint _week) public view returns (uint) {\r\n        return raffle[_week].unclaimed;\r\n    }\r\n        /**\r\n     * @notice  Calculates and accounts for a raffle's costs and profits, \r\n     *          before distributing the latter should there be any.\r\n     *\r\n     * @param   _week   Week number for raffle in question.\r\n     *\r\n     */\r\n    function performAccounting(uint _week) internal {\r\n        uint cost = getOraclizeCost();\r\n        accountForCosts(cost);\r\n        uint profit = calcProfit(_week);\r\n        accountForProfit(profit);\r\n        distributeFunds(_week, cost, profit);\r\n    }\r\n    /**\r\n     * @notice  Returns the cost of the Oraclize api calls\r\n     *          (two per draw).\r\n     *\r\n     * @return  The cost of the two Oraclize API calls per draw.\r\n     *\r\n     */\r\n    function getOraclizeCost() internal view returns (uint) {\r\n        return ((gasAmt * gasPrc) + oracCost) * 2;\r\n    }\r\n    /**\r\n     * @notice  Subtracts a given cost from the prize pool. Pauses contract \r\n     *          instead if cost is greater than the prize pool.\r\n     *\r\n     * @param   _cost   Amount to be deducted from the prize pool.\r\n     *\r\n     */\r\n    function accountForCosts(uint _cost) private {\r\n        if (_cost > prizePool) return pauseContract(true, 1);\r\n        if (_cost == 0) return; // TODO: Unnecessary? Will save a little gas except on deploy...\r\n        modifyPrizePool(false, _cost);\r\n    }\r\n    /**\r\n     * @notice  Calculates profits earnt from a raffle. If there are \r\n     *          no paid entries or if free entries outweigh paid \r\n     *          entries, returns 0.\r\n     *\r\n     * @param   _week   Week number for raffle in question.\r\n     *\r\n     * @return  The profit generated from a raffle's ticket sales.\r\n     *\r\n     */\r\n    function calcProfit(uint _week) internal view returns (uint) {\r\n        return (raffle[_week].numEntries > 0 && \r\n                raffle[_week].numEntries > raffle[_week].freeEntries)\r\n            ? ((raffle[_week].numEntries - raffle[_week].freeEntries) * tktPrice * take) / 1000\r\n            : 0;\r\n    }\r\n    /**\r\n     * @notice  Subtracts a given amount of profit from the prize pool, if \r\n     *          said amount is greater than zero.\r\n     *\r\n     * @param   _profit   Amount to be deducted from the prize pool.\r\n     *\r\n     */\r\n    function accountForProfit(uint _profit) private {\r\n        if (_profit == 0) return \r\n        modifyPrizePool(false, _profit);\r\n    }\r\n    /**\r\n     * @notice  Distributes any profit earnt from a raffle. Half goes to \r\n     *          the disbursal contract for the DAO of token holders, and \r\n     *          the remainder to the EthRelief contract for charitable \r\n     *          donations.\r\n     *\r\n     * @param   _week       Week number for raffle in question.\r\n     *\r\n     * @param   _cost       Cost of running this raffle.\r\n     *\r\n     * @param   _profit     Profit from running this raffle.\r\n     *\r\n     */\r\n    function distributeFunds(uint _week, uint _cost, uint _profit) private {\r\n        if (_profit == 0) return LogFundsDisbursed(_week, _cost, 0, 0, now); // Can't use emit keyword after return statement...\r\n        uint half = _profit / 2;\r\n        disburseFunds(_week, _cost, half, disburseAddr);\r\n        disburseFunds(_week, _cost, _profit - half, ethRelief);\r\n    }\r\n    /**\r\n     * @notice  Sends funds via a given contract's \"receiver\" interface,\r\n     *          which ensures an event is fired in the receiving contract, \r\n     *          announcing the funds' arrival.\r\n     *\r\n     * @param   _addr   Address of receiving contract.\r\n     *\r\n     * @param   _amt    Amount of Wei to send.\r\n     *\r\n     */\r\n    function disburseFunds(uint _week, uint _cost, uint _amt, address _addr) private {\r\n        ReceiverInterface(_addr).receiveEther.value(_amt)();\r\n        emit LogFundsDisbursed(_week, _cost, _amt, _addr, now);\r\n    }\r\n    /**\r\n     *\r\n     *      ##########################################\r\n     *      ###                                    ###\r\n     *      ###          Random Callback           ###\r\n     *      ###                                    ###\r\n     *      ##########################################\r\n     *\r\n     */\r\n    /**\r\n     * @notice  Called when the Etheraffle API callback is received. It sets \r\n     *          up the next raffle's struct, calculates this raffle's payouts \r\n     *          then makes the next Oraclize query to call the Random.org api.\r\n     *          Function requires the winning amounts to not already have been\r\n     *          set which stops Oraclize replays causing havoc!\r\n     *\r\n     * @param   _myID       The hash of the Oraclize query\r\n     *\r\n     * @param   _result     The result of the Oraclize query\r\n     *\r\n     */\r\n    function apiCallback(bytes32 _myID, string _result) internal onlyOraclize {\r\n        require (!winAmountsSet(qID[_myID].weekNo));\r\n        setUpNewRaffle();\r\n        setPayOuts(qID[_myID].weekNo, _result);\r\n        if (queryIsManual(_myID)) return;\r\n        sendQuery(getNextDeadline(), getQueryString(true, getWeek()), getWeek(), true, false);\r\n    }\r\n    /**\r\n     * @notice  Returns bool depending on whether the win amounts have \r\n     *          been set in the struct or not.\r\n     *\r\n     * @param   _week   Week number for raffle in question.\r\n     *\r\n     * @return  True if the winning amounts are set correctly in the \r\n     *          raffle's struct, else false.\r\n     *\r\n     */\r\n    function winAmountsSet(uint _week) internal view returns (bool) {\r\n        return raffle[_week].winAmts.length > 0;\r\n    }\r\n    /**\r\n     * @notice  Takes oraclize random.org api call result string and splits\r\n     *          it at the commas into an array, parses those strings in that\r\n     *          array as integers and pushes them into the winning numbers\r\n     *          array in the raffle's struct. Fires event logging the data,\r\n     *          including the serial number of the random.org callback so\r\n     *          its veracity can be proven.\r\n     *\r\n     * @param   _week    The week number of the raffle in question.\r\n     *\r\n     * @param   _result   The results string from oraclize callback.\r\n     *\r\n     */\r\n    function setWinningNumbers(uint _week, string _result) internal {\r\n        string[] memory arr = stringToArray(_result);\r\n        for (uint i = 0; i < 6; i++){\r\n            raffle[_week].winNums.push(parseInt(arr[i]));\r\n        }\r\n        uint serialNo = parseInt(arr[6]);\r\n        emit LogWinningNumbers(_week, raffle[_week].numEntries, raffle[_week].winNums, prizePool, serialNo, now);\r\n    }\r\n    /**\r\n     * @notice  Returns the number of seconds until the next occurring \r\n     *          raffle deadline.\r\n     *\r\n     * @return  The deadline in UTC format of the raffle calculated \r\n     *          from the current week number.\r\n     *\r\n     */\r\n    function getNextDeadline() internal view returns (uint) {\r\n        return (getWeek() * WEEKDUR) + BIRTHDAY + rafEnd + resultsDelay;\r\n    }\r\n    /**\r\n     * @notice  Takes the results of the oraclize Etheraffle api call back\r\n     *          and uses them to calculate the prizes due to each tier\r\n     *          (3 matches, 4 matches etc) then pushes them into the winning\r\n     *          amounts array in the raffle in question's struct. Calculates\r\n     *          the total winnings of the raffle, subtracts it from the\r\n     *          global prize pool sequesters that amount into the raffle's\r\n     *          struct \"unclaimed\" variable,  \"rolling over\" the unwon\r\n     *          ether. Enables winner withdrawals by setting the withdraw\r\n     *          open bool to true.\r\n     *\r\n     * @param   _week       The week number of the raffle in question.\r\n     *\r\n     * @param   _result     The results string from oraclize callback.\r\n     *\r\n     */\r\n    function setPayOuts(uint _week, string _result) internal {\r\n        string[] memory numWinnersStr = stringToArray(_result);\r\n        if (numWinnersStr.length < 4) return pauseContract(true, 2);\r\n        for (uint i = 0; i < 4; i++) {\r\n            uint amt = 0;\r\n            uint numWinners = parseInt(numWinnersStr[i]);\r\n            if (numWinners != 0) {\r\n                amt = calcPrize(numWinners, i, _week);\r\n                modifyUnclaimed(true, _week, amt * numWinners);\r\n            }\r\n            raffle[_week].winAmts.push(amt);\r\n        }\r\n        if (raffle[_week].unclaimed > prizePool) return pauseContract(true, 3); // now a double check, is this bad?\r\n        modifyPrizePool(false, raffle[_week].unclaimed);\r\n        setWithdraw(_week, true);\r\n        emit LogPrizePoolsUpdated(prizePool, _week, raffle[_week].tktPrice, raffle[_week].unclaimed, raffle[_week].winAmts, now);\r\n    }\r\n    /**\r\n     * @notice  Calculates the total prizes for a given tier using the \r\n     *          splits method & the odds method, and returns the singular \r\n     *          prize using whichever method returned from the preceeding.\r\n     *\r\n     * @param   _numWinners   Number of winners in this tier\r\n     *\r\n     * @param   _i            Index this tier corresponds to in odds/splits arrays\r\n     *\r\n     * @param   _week         The week number of the raffle in question.\r\n     *\r\n     * @return  The prize amount in Wei for a given tier w/r/t number of\r\n     *          winners in that tier.\r\n     *\r\n     */\r\n    function calcPrize(uint _numWinners, uint _i, uint _week) internal view returns (uint) {\r\n        return oddsTotal(_numWinners, _i, _week) <= splitsTotal(_numWinners, _i) ? oddsSingle(_i, _week) : splitsSingle(_numWinners, _i); \r\n    }\r\n    /*  \r\n     * @notice  Calculates the total payout per tier when calculated using \r\n     *          the odds method.\r\n     *\r\n     * @param   _numWinners     Number of X match winners.\r\n     *\r\n     * @param   _matchesIndex   Index of matches array ( 3 match win,\r\n     *                          4 match win etc).\r\n     *\r\n     * @return  The total prize amount in Wei for a given tier, calculated \r\n     *          using the true odds for a given number of matches.\r\n     *\r\n     */\r\n    function oddsTotal(uint _numWinners, uint _matchesIndex, uint _week) internal view returns (uint) {\r\n        return oddsSingle(_matchesIndex, _week) * _numWinners;\r\n    }\r\n    /*\r\n     * @notice  Calculates the total payout per tier when calculated using\r\n     *          the splits method.\r\n     *\r\n     * @param    _numWinners     Number of X match winners.\r\n     *\r\n     * @param    _matchesIndex   Index of matches array ( 3 match win,\r\n     *                           4 match win etc).\r\n     *\r\n     * @return  The total prize amount in Wei for a given tier, calculated\r\n     *          using a percentage split for a given tier of the total \r\n     *          prize pool.\r\n     *\r\n     */\r\n    function splitsTotal(uint _numWinners, uint _matchesIndex) internal view returns (uint) {\r\n        return splitsSingle(_numWinners, _matchesIndex) * _numWinners;\r\n    }\r\n    /*\r\n     * @notice  Calculates single payout when calculated using the odds\r\n     *          method.\r\n     *\r\n     * @param   _matchesIndex   Index of matches array ( 3 match win,\r\n     *                          4 match win etc).\r\n     *\r\n     * @return  A single prize amount in Wei for a given tier, calculated\r\n     *          using the true odds for a given number of matches.\r\n     *\r\n     */\r\n    function oddsSingle(uint _matchesIndex, uint _week) internal view returns (uint) {\r\n        return (raffle[_week].tktPrice * odds[_matchesIndex] * (1000 - take)) / 1000;\r\n    }\r\n    /*\r\n     * @notice  Calculates a single payout when calculated using the \r\n     *          splits method.\r\n     *\r\n     * @param   _numWinners     Number of X match winners.\r\n     *\r\n     * @param   _matchesIndex   Index of matches array ( 3 match win,\r\n     *                          4 match win etc).\r\n     *\r\n     * @return  A single prize amount in Wei for a given tier, calculated\r\n     *          using a percentage split for a given tier of the total \r\n     *          prize pool.\r\n     *\r\n     */\r\n    function splitsSingle(uint _numWinners, uint _matchesIndex) internal view returns (uint) {\r\n        return (prizePool * pctOfPool[_matchesIndex]) / (_numWinners * 1000);\r\n    }\r\n    /**\r\n     *\r\n     *      ##########################################\r\n     *      ###                                    ###\r\n     *      ###         Oraclize Queries           ###\r\n     *      ###                                    ###\r\n     *      ##########################################\r\n     *\r\n     */\r\n    /**\r\n     * @notice  Modifies a query ID struct with the passed in information. \r\n     *          (Or creates it if struct doesn't exist yet...)\r\n     *\r\n     * @param   _ID         Bytes32 hash identifier for the struct.\r\n     *\r\n     * @param   _weekNo     Week number relevant to struct.\r\n     *\r\n     * @param   _isRandom   Whether the struct refers to a Random.org api call.\r\n     *\r\n     * @param   _isManual   Whether the struct was manually created or not.\r\n     *                      If manual, the Oraclize callback returns before the \r\n     *                      next recursive Oraclize query is sent.\r\n     *\r\n     */\r\n    function modifyQIDStruct(bytes32 _ID, uint _weekNo, bool _isRandom, bool _isManual) internal {\r\n        qID[_ID].weekNo    = _weekNo;\r\n        qID[_ID].isRandom  = _isRandom;\r\n        qID[_ID].isManual  = _isManual;\r\n    }\r\n    /**\r\n     * @notice  Prepares the correct Oraclize query string using Oraclize's \r\n     *          contract's string concat function.\r\n     *\r\n     * @param   _isRandom   Whether the query is to the Random.org api, or Etheraffle's.\r\n     *\r\n     * @param   _weekNo     Raffle number the call is being made on behalf of.\r\n     *\r\n     * @return  A string making up the full Oraclize query for either the Random.org\r\n     *          or Etheraffle API calls, depending on bool passed in.\r\n     *\r\n     */\r\n    function getQueryString(bool _isRandom, uint _weekNo) internal onlyOraclize returns (string) {\r\n        return _isRandom \r\n               ? strConcat(randomStr1, uint2str(_weekNo), randomStr2)\r\n               : strConcat(apiStr1, uint2str(_weekNo), apiStr2);\r\n    }\r\n    /**\r\n     * @notice  Sends an Oraclize query, stores info w/r/t that query in a\r\n     *          struct mapped to by the hash of the query, and logs the \r\n     *          pertinent details.\r\n     *\r\n     * @param   _delay      Desired return time for query from sending.\r\n     *\r\n     * @param   _str        The Oraclize call string.\r\n     *\r\n     * @param   _weekNo     Week number for raffle in question.\r\n     *\r\n     * @param   _isRandom   Whether the call is destined for Random.org \r\n     *                      or Etheraffle.\r\n     *\r\n     * @param   _isManual   Whether the call is being made manually or \r\n     *                      recursively.\r\n     *\r\n     */\r\n    function sendQuery(uint _delay, string _str, uint _weekNo, bool _isRandom, bool _isManual) internal onlyOraclize {\r\n        bytes32 query = oraclize_query(_delay, \"nested\", _str, gasAmt);\r\n        modifyQIDStruct(query, _weekNo, _isRandom, _isManual);\r\n        emit LogQuerySent(query, _delay, now);\r\n    }\r\n    /**\r\n     *\r\n     *      ##########################################\r\n     *      ###                                    ###\r\n     *      ###             Utilities              ###\r\n     *      ###                                    ###\r\n     *      ##########################################\r\n     *\r\n     */\r\n    /**\r\n     * @notice  Slices a string according to specified delimiter, returning\r\n     *          the sliced parts in an array. Courtesy of Nick Johnson via\r\n     *          https://github.com/Arachnid/solidity-stringutils\r\n     *\r\n     * @param   _string   The string to be sliced.\r\n     *\r\n     * @return  An array of strings.\r\n     *\r\n     */\r\n    function stringToArray(string _string) internal pure returns (string[]) {\r\n        var str    = _string.toSlice();\r\n        var delim  = \",\".toSlice();\r\n        var parts  = new string[](str.count(delim) + 1);\r\n        for (uint i = 0; i < parts.length; i++) {\r\n            parts[i] = str.split(delim).toString();\r\n        }\r\n        return parts;\r\n    }\r\n    /**\r\n     * @notice  Fallback function.\r\n     */\r\n    function () payable external {}\r\n    /**\r\n     *\r\n     *      ##########################################\r\n     *      ###                                    ###\r\n     *      ###              Setters               ###\r\n     *      ###                                    ###\r\n     *      ##########################################\r\n     *\r\n     */\r\n    /**\r\n     * @notice  Function allowing manual addition to the global prizepool.\r\n     *          Requires the caller to send ether, by which amount the \r\n     *          prize pool is increased.\r\n     *\r\n     */\r\n    function manuallyAddToPrizePool() payable public {\r\n        require (msg.value > 0);\r\n        modifyPrizePool(true, msg.value);\r\n        emit LogPrizePoolAddition(msg.sender, msg.value, now);\r\n    }\r\n    /**\r\n     * @notice  Set the Oraclize strings, in case of url changes. Only callable by\r\n     *          the Etheraffle address.\r\n     *\r\n     * @param   _randomStr1     String with properly escaped characters for \r\n     *                          first half of Random.org api call.\r\n     *\r\n     * @param   _randomStr2     String with properly escaped characters for \r\n     *                          second half of Random.org api call.\r\n     *\r\n     * @param   _apiStr1        String with properly escaped characters for \r\n     *                          first half of Etheraffle api call.\r\n     *\r\n     * @param   _apiStr2        String with properly escaped characters for \r\n     *                          second half of Etheraffle api call.\r\n     *\r\n     */\r\n    function manuallySetOraclizeString(string _randomStr1, string _randomStr2, string _apiStr1, string _apiStr2) external onlyEtheraffle {\r\n        randomStr1 = _randomStr1;\r\n        randomStr2 = _randomStr2;\r\n        apiStr1    = _apiStr1;\r\n        apiStr2    = _apiStr2;\r\n    }\r\n    /**\r\n     * @notice  Set the ticket price of the raffle. Only callable by the\r\n     *          Etheraffle address.\r\n     *\r\n     * @param   _newPrice   The desired new ticket price.\r\n     *\r\n     */\r\n    function manuallySetTktPrice(uint _newPrice) external onlyEtheraffle {\r\n        tktPrice = _newPrice;\r\n    }\r\n    /**\r\n     * @notice  Set new take percentage. Only callable by the Etheraffle\r\n     *          address.\r\n     *\r\n     * @param   _newTake   The desired new take, parts per thousand.\r\n     *\r\n     */\r\n    function manuallySetTake(uint _newTake) external onlyEtheraffle {\r\n        take = _newTake;\r\n    }\r\n    /**\r\n     * @notice  Set the payouts manually, in case of a failed Oraclize call.\r\n     *          Only callable by the Etheraffle address.\r\n     *\r\n     * @param   _week           The week number of the raffle to set the payouts for.\r\n     *\r\n     * @param   _numMatches     Number of matches. Comma-separated STRING of 4\r\n     *                          integers long, consisting of the number of 3 match\r\n     *                          winners, 4 match winners, 5 & 6 match winners in\r\n     *                          that order.\r\n     *\r\n     */\r\n    function manuallySetPayouts(uint _week, string _numMatches) external onlyEtheraffle {\r\n        setPayOuts(_week, _numMatches);\r\n    }\r\n    /**\r\n     * @notice  Set the FreeLOT token contract address, in case of future updrades.\r\n     *          Only allable by the Etheraffle address.\r\n     *\r\n     * @param   _newAddr   New address of FreeLOT contract.\r\n     */\r\n    function manuallySetFreeLOT(address _newAddr) external onlyEtheraffle {\r\n        freeLOT = FreeLOTInterface(_newAddr);\r\n      }\r\n    /**\r\n     * @notice  Set the EthRelief contract address, and gas required to run\r\n     *          the receiving function. Only allable by the Etheraffle address.\r\n     *\r\n     * @param   _newAddr   New address of the EthRelief contract.\r\n     */\r\n    function manuallySetEthReliefAddr(address _newAddr) external onlyEtheraffle {\r\n        ethRelief = _newAddr;\r\n    }\r\n    /**\r\n     * @notice  Set the dividend contract address, and gas required to run\r\n     *          the receive ether function. Only callable by the Etheraffle\r\n     *          address.\r\n     *\r\n     * @param   _newAddr   New address of dividend contract.\r\n     */\r\n    function manuallySetDisbursingAddr(address _newAddr) external onlyEtheraffle {\r\n        disburseAddr = _newAddr;\r\n    }\r\n    /**\r\n     * @notice  Set the Etheraffle multisig contract address, in case of future\r\n     *          upgrades. Only callable by the current Etheraffle address.\r\n     *\r\n     * @param   _newAddr   New address of Etheraffle multisig contract.\r\n     */\r\n    function manuallySetEtheraffleAddr(address _newAddr) external onlyEtheraffle {\r\n        etheraffle = _newAddr;\r\n    }\r\n    /**\r\n     * @notice  Set the raffle end time, in number of seconds passed\r\n     *          the start time of 00:00am Monday. Only callable by\r\n     *          the Etheraffle address.\r\n     *\r\n     * @param   _newTime    The time desired in seconds.\r\n     */\r\n    function manuallySetRafEndTime(uint _newTime) external onlyEtheraffle {\r\n        rafEnd = _newTime;\r\n    }\r\n    /**\r\n     * @notice  Set the wdrawBfr time - the time a winner has to withdraw\r\n     *          their winnings before the unclaimed prizepool is rolled\r\n     *          back into the global prizepool. Only callable by the\r\n     *          Etheraffle address.\r\n     *\r\n     * @param   _newTime    The time desired in seconds.\r\n     */\r\n    function manuallySetWithdrawBefore(uint _newTime) external onlyEtheraffle {\r\n        wdrawBfr = _newTime;\r\n    }\r\n    /**\r\n     * @notice  Set the paused status of the raffles. Only callable by\r\n     *          the Etheraffle address.\r\n     *\r\n     * @param   _status    The desired status of the raffles.\r\n     */\r\n    function manuallySetPaused(bool _status) external onlyEtheraffle {\r\n        pauseContract(_status);\r\n    }\r\n    /**\r\n     * @notice  Set the percentage-of-prizepool array. Only callable by the\r\n     *          Etheraffle address.\r\n     *\r\n     * @param   _newPoP     An array of four integers totalling 1000.\r\n     */\r\n    function manuallySetPercentOfPool(uint[] _newPoP) external onlyEtheraffle {\r\n        pctOfPool = _newPoP;\r\n    }\r\n    /**\r\n\t * @notice\tAllows manual set up of a new raffle via creating a struct\r\n     *          with the correct timestamp and ticket price. Only callable\r\n     *          by the Etheraffle multisig address.\r\n\t *\r\n\t * @param   _week       Desired week number for new raffle struct.\r\n     *\r\n     * @param   _tktPrice   Desired ticket price for the raffle\r\n     *\r\n     * @param   _timeStamp  Timestamp of Mon 00:00 of the week of this raffle\r\n     *\r\n\t */\r\n    function manuallySetupRaffleStruct(uint _week, uint _tktPrice, uint _timeStamp) external onlyEtheraffle {\r\n        setUpRaffleStruct(_week, _tktPrice, _timeStamp);\r\n    }\r\n\t/**\r\n\t * @notice\tManually sets the withdraw status of a raffle. Only\r\n     *          callable by the Etheraffle multisig.\r\n\t *\r\n\t * @param   _week   Week number for raffle in question.\r\n     *\r\n     * @param   _status Desired withdraw status for raffle.\r\n     *\r\n\t */\r\n    function manuallySetWithdraw(uint _week, bool _status) external onlyEtheraffle {\r\n        setWithdraw(_week, _status);\r\n    }\r\n    /**\r\n\t * @notice\tManually sets the global week variable. Only callable\r\n     *          by the Etheraffle multisig wallet.\r\n\t *\r\n\t * @param   _week   Desired week number.\r\n     *\r\n\t */\r\n    function manuallySetWeek(uint _week) external onlyEtheraffle {\r\n        setWeek(_week);\r\n    }\r\n        /**\r\n     * @notice  Manually make an Oraclize API call, incase of automation\r\n     *          failure. Only callable by the Etheraffle address.\r\n     *\r\n     * @param   _delay      Either a time in seconds before desired callback\r\n     *                      time for the API call, or a future UTC format time\r\n     *                      for the desired time for the API callback.\r\n     *\r\n     * @param   _week       The week number this query is for.\r\n     *\r\n     * @param   _isRandom   Whether or not the api call being made is for\r\n     *                      the random.org results draw, or for the \r\n     *                      Etheraffle API results call.\r\n     *\r\n     * @param   _isManual   The Oraclize call back is a recursive function in\r\n     *                      which each call fires off another call in perpetuity.\r\n     *                      This bool allows that recursiveness for this call to\r\n     *                      be turned on or off depending on caller's requirements.\r\n     *\r\n     * @param   _status     The desired paused status of the contract.\r\n     *\r\n     */\r\n    function manuallyMakeOraclizeCall(uint _week, uint _delay, bool _isRandom, bool _isManual, bool _status) onlyEtheraffle external {\r\n        pauseContract(_status);\r\n        sendQuery(_delay, getQueryString(_isRandom, _week), _week, _isRandom, _isManual);\r\n    }\r\n    /**\r\n     * @notice  Manually edit (or make!) a query ID struct, that Oraclize callbacks \r\n     *          can reference.\r\n     *\r\n     * @param   _ID         Desired keccak hash key for the struct\r\n     *\r\n     * @param   _weekNo     Desired week/raffle number the struct refers to. \r\n     *\r\n     * @param   _isRandom   Whether or not the api call being made is for\r\n     *                      the random.org results draw, or for the Etheraffle\r\n     *                      API results call.\r\n     *\r\n     * @param   _isManual   The Oraclize call back is a recursive function in\r\n     *                      which each call fires off another call in perpetuity.\r\n     *                      This bool allows that recursiveness for this call to be\r\n     *                      turned on or off depending on caller's requirements.\r\n     *\r\n     */\r\n    function manuallyModifyQID(bytes32 _ID, uint _weekNo, bool _isRandom, bool _isManual) onlyEtheraffle external {\r\n        modifyQIDStruct(_ID, _weekNo, _isRandom, _isManual);\r\n    }\r\n    /**\r\n     *\r\n     *      ##########################################\r\n     *      ###                                    ###\r\n     *      ###              Getters               ###\r\n     *      ###                                    ###\r\n     *      ##########################################\r\n     *\r\n     */\r\n    /**\r\n     * @notice  Get a entrant's number of entries into a specific raffle\r\n     *\r\n     * @param   _week       The week number of the raffle in question.\r\n     *\r\n     * @param   _entrant    The entrant in question.\r\n     *\r\n     * @return  The number of entries an entrant has made in a given raffle.\r\n     *\r\n     */\r\n    function getUserNumEntries(address _entrant, uint _week) constant external returns (uint) {\r\n        return raffle[_week].entries[_entrant].length;\r\n    }\r\n    /**\r\n     * @notice  Get chosen numbers of an entrant, for a specific raffle.\r\n     *          Returns an array.\r\n     *\r\n     * @param   _entrant    The entrant in question's address.\r\n     *\r\n     * @param   _week       The week number of raffle in question.\r\n     *\r\n     * @param   _entryNum   The entrant's entry number in this raffle.\r\n     *\r\n     * @return  The hash of an entrant's entry numbers in the specified raffle. \r\n     *\r\n     */\r\n    function getChosenNumbersHash(address _entrant, uint _week, uint _entryNum) constant external returns (bytes32) {\r\n        return raffle[_week].entries[_entrant][_entryNum-1];\r\n    }\r\n    /**\r\n     * @notice  Get winning details of a raffle, ie, it's winning numbers\r\n     *          and the prize amounts. Returns two arrays.\r\n     *\r\n     * @param   _week   The week number of the raffle in question.\r\n     *\r\n     * @return  The two arrays stored in the given raffle's struct, \r\n     *          containing if set the winning numbers and the winning\r\n     *          winning amounts respectively.\r\n     *\r\n     */\r\n    function getWinningDetails(uint _week) constant external returns (uint[], uint[]) {\r\n        return (raffle[_week].winNums, raffle[_week].winAmts);\r\n    }\r\n    /**\r\n     *\r\n     *      ##########################################\r\n     *      ###                                    ###\r\n     *      ###         Upgrade Functions          ###\r\n     *      ###                                    ###\r\n     *      ##########################################\r\n     *\r\n     */\r\n    /**\r\n     * @notice  Upgrades the Etheraffle contract. Only callable by the\r\n     *          Etheraffle address. Calls an addToPrizePool method as\r\n     *          per the abstract contract above. Function renders the\r\n     *          entry method uncallable, cancels the Oraclize recursion,\r\n     *          then zeroes the prizepool and sends the funds to the new\r\n     *          contract. Sets a var tracking when upgrade occurred and logs\r\n     *          the event.\r\n     *\r\n     * @param   _newAddr   The new contract address.\r\n     */\r\n    function upgradeContract(address _newAddr) onlyEtheraffle external {\r\n        require(upgraded == 0 && upgradeAddr == address(0));\r\n        uint amt    = prizePool;\r\n        upgradeAddr = _newAddr;\r\n        upgraded    = now;\r\n        week        = 0;\r\n        prizePool   = 0;\r\n        gasAmt      = 0;\r\n        apiStr1     = \"\";\r\n        randomStr1  = \"\";\r\n        require(this.balance >= amt);\r\n        EtheraffleUpgrade(_newAddr).manuallyAddToPrizePool.value(amt)();\r\n        emit LogUpgrade(_newAddr, amt, upgraded);\r\n    }\r\n    /**\r\n     * @notice  Self destruct contract. Only callable by Etheraffle address.\r\n     *          function. It deletes all contract code and data and forwards\r\n     *          any remaining ether from non-claimed winning raffle tickets\r\n     *          to the EthRelief charity contract. Requires the upgrade contract\r\n     *          method to have been called 10 or more weeks prior, to allow\r\n     *          winning tickets to be claimed within the usual withdrawal time\r\n     *          frame.\r\n     */\r\n    function selfDestruct() onlyEtheraffle external {\r\n        require(now - upgraded > WEEKDUR * 10);\r\n        selfdestruct(ethRelief);\r\n    }\r\n}\r\n\r\n",
  "sourcePath": "C:\\Users\\Greg\\Desktop\\ER\\solidity\\contracts\\etheraffle.sol",
  "compiler": {
    "name": "solc",
    "version": "0.4.24+commit.e67f0147.Emscripten.clang"
  },
  "schemaVersion": "2.0.0",
  "updatedAt": "2018-06-08T10:36:14.084Z"
}