{
  "contractName": "EtheraffleLOT",
  "abi": [
    {
      "constant": true,
      "inputs": [],
      "name": "frozen",
      "outputs": [
        {
          "name": "",
          "type": "bool"
        }
      ],
      "payable": false,
      "stateMutability": "view",
      "type": "function"
    },
    {
      "constant": true,
      "inputs": [],
      "name": "name",
      "outputs": [
        {
          "name": "",
          "type": "string"
        }
      ],
      "payable": false,
      "stateMutability": "view",
      "type": "function"
    },
    {
      "constant": true,
      "inputs": [],
      "name": "totalSupply",
      "outputs": [
        {
          "name": "",
          "type": "uint256"
        }
      ],
      "payable": false,
      "stateMutability": "view",
      "type": "function"
    },
    {
      "constant": true,
      "inputs": [
        {
          "name": "",
          "type": "address"
        }
      ],
      "name": "balances",
      "outputs": [
        {
          "name": "",
          "type": "uint256"
        }
      ],
      "payable": false,
      "stateMutability": "view",
      "type": "function"
    },
    {
      "constant": true,
      "inputs": [],
      "name": "decimals",
      "outputs": [
        {
          "name": "",
          "type": "uint8"
        }
      ],
      "payable": false,
      "stateMutability": "view",
      "type": "function"
    },
    {
      "constant": true,
      "inputs": [
        {
          "name": "",
          "type": "address"
        }
      ],
      "name": "canFreeze",
      "outputs": [
        {
          "name": "",
          "type": "bool"
        }
      ],
      "payable": false,
      "stateMutability": "view",
      "type": "function"
    },
    {
      "constant": true,
      "inputs": [],
      "name": "etheraffle",
      "outputs": [
        {
          "name": "",
          "type": "address"
        }
      ],
      "payable": false,
      "stateMutability": "view",
      "type": "function"
    },
    {
      "constant": true,
      "inputs": [
        {
          "name": "",
          "type": "uint256"
        }
      ],
      "name": "freezers",
      "outputs": [
        {
          "name": "",
          "type": "address"
        }
      ],
      "payable": false,
      "stateMutability": "view",
      "type": "function"
    },
    {
      "constant": true,
      "inputs": [],
      "name": "symbol",
      "outputs": [
        {
          "name": "",
          "type": "string"
        }
      ],
      "payable": false,
      "stateMutability": "view",
      "type": "function"
    },
    {
      "constant": false,
      "inputs": [
        {
          "name": "_from",
          "type": "address"
        },
        {
          "name": "_value",
          "type": "uint256"
        },
        {
          "name": "_data",
          "type": "bytes"
        }
      ],
      "name": "tokenFallback",
      "outputs": [],
      "payable": false,
      "stateMutability": "nonpayable",
      "type": "function"
    },
    {
      "inputs": [
        {
          "name": "_etheraffle",
          "type": "address"
        },
        {
          "name": "_supply",
          "type": "uint256"
        }
      ],
      "payable": false,
      "stateMutability": "nonpayable",
      "type": "constructor"
    },
    {
      "payable": true,
      "stateMutability": "payable",
      "type": "fallback"
    },
    {
      "anonymous": false,
      "inputs": [
        {
          "indexed": false,
          "name": "status",
          "type": "bool"
        },
        {
          "indexed": false,
          "name": "atTime",
          "type": "uint256"
        }
      ],
      "name": "LogFrozenStatus",
      "type": "event"
    },
    {
      "anonymous": false,
      "inputs": [
        {
          "indexed": false,
          "name": "newFreezer",
          "type": "address"
        },
        {
          "indexed": false,
          "name": "atTime",
          "type": "uint256"
        }
      ],
      "name": "LogFreezerAddition",
      "type": "event"
    },
    {
      "anonymous": false,
      "inputs": [
        {
          "indexed": false,
          "name": "freezerRemoved",
          "type": "address"
        },
        {
          "indexed": false,
          "name": "atTime",
          "type": "uint256"
        }
      ],
      "name": "LogFreezerRemoval",
      "type": "event"
    },
    {
      "anonymous": false,
      "inputs": [
        {
          "indexed": false,
          "name": "prevER",
          "type": "address"
        },
        {
          "indexed": false,
          "name": "newER",
          "type": "address"
        },
        {
          "indexed": false,
          "name": "atTime",
          "type": "uint256"
        }
      ],
      "name": "LogEtheraffleChange",
      "type": "event"
    },
    {
      "anonymous": false,
      "inputs": [
        {
          "indexed": true,
          "name": "from",
          "type": "address"
        },
        {
          "indexed": true,
          "name": "to",
          "type": "address"
        },
        {
          "indexed": false,
          "name": "value",
          "type": "uint256"
        },
        {
          "indexed": true,
          "name": "data",
          "type": "bytes"
        }
      ],
      "name": "LogTransfer",
      "type": "event"
    },
    {
      "constant": false,
      "inputs": [
        {
          "name": "_to",
          "type": "address"
        },
        {
          "name": "_value",
          "type": "uint256"
        }
      ],
      "name": "transfer",
      "outputs": [],
      "payable": false,
      "stateMutability": "nonpayable",
      "type": "function"
    },
    {
      "constant": false,
      "inputs": [
        {
          "name": "_to",
          "type": "address"
        },
        {
          "name": "_value",
          "type": "uint256"
        },
        {
          "name": "_data",
          "type": "bytes"
        }
      ],
      "name": "transfer",
      "outputs": [],
      "payable": false,
      "stateMutability": "nonpayable",
      "type": "function"
    },
    {
      "constant": true,
      "inputs": [
        {
          "name": "_owner",
          "type": "address"
        }
      ],
      "name": "balanceOf",
      "outputs": [
        {
          "name": "balance",
          "type": "uint256"
        }
      ],
      "payable": false,
      "stateMutability": "view",
      "type": "function"
    },
    {
      "constant": false,
      "inputs": [
        {
          "name": "_status",
          "type": "bool"
        }
      ],
      "name": "setFrozen",
      "outputs": [
        {
          "name": "",
          "type": "bool"
        }
      ],
      "payable": false,
      "stateMutability": "nonpayable",
      "type": "function"
    },
    {
      "constant": false,
      "inputs": [
        {
          "name": "_new",
          "type": "address"
        }
      ],
      "name": "addFreezer",
      "outputs": [],
      "payable": false,
      "stateMutability": "nonpayable",
      "type": "function"
    },
    {
      "constant": false,
      "inputs": [
        {
          "name": "_freezer",
          "type": "address"
        }
      ],
      "name": "removeFreezer",
      "outputs": [],
      "payable": false,
      "stateMutability": "nonpayable",
      "type": "function"
    },
    {
      "constant": false,
      "inputs": [
        {
          "name": "_new",
          "type": "address"
        }
      ],
      "name": "setEtheraffle",
      "outputs": [],
      "payable": false,
      "stateMutability": "nonpayable",
      "type": "function"
    },
    {
      "constant": false,
      "inputs": [],
      "name": "selfDestruct",
      "outputs": [],
      "payable": false,
      "stateMutability": "nonpayable",
      "type": "function"
    }
  ],
  "bytecode": "0x60806040523480156200001157600080fd5b5060405160408062001a59833981018060405281019080805190602001909291908051906020019092919050505060038290806001815401808255809150509060018203906000526020600020016000909192909190916101000a81548173ffffffffffffffffffffffffffffffffffffffff021916908373ffffffffffffffffffffffffffffffffffffffff160217905550506040805190810160405280600e81526020017f45746865726166666c65204c4f5400000000000000000000000000000000000081525060009080519060200190620000f292919062000262565b506040805190810160405280600381526020017f4c4f540000000000000000000000000000000000000000000000000000000000815250600190805190602001906200014092919062000262565b506006600260016101000a81548160ff021916908360ff16021790555081600460006101000a81548173ffffffffffffffffffffffffffffffffffffffff021916908373ffffffffffffffffffffffffffffffffffffffff160217905550600260019054906101000a900460ff1660ff16600a0a8102600581905550600554600660008473ffffffffffffffffffffffffffffffffffffffff1673ffffffffffffffffffffffffffffffffffffffff168152602001908152602001600020819055506001600760008473ffffffffffffffffffffffffffffffffffffffff1673ffffffffffffffffffffffffffffffffffffffff16815260200190815260200160002060006101000a81548160ff021916908315150217905550505062000311565b828054600181600116156101000203166002900490600052602060002090601f016020900481019282601f10620002a557805160ff1916838001178555620002d6565b82800160010185558215620002d6579182015b82811115620002d5578251825591602001919060010190620002b8565b5b509050620002e59190620002e9565b5090565b6200030e91905b808211156200030a576000816000905550600101620002f0565b5090565b90565b61173880620003216000396000f3006080604052600436106100fc576000357c0100000000000000000000000000000000000000000000000000000000900463ffffffff168063054f7d9c1461010157806306fdde031461013057806318160ddd146101c057806327e235e3146101eb5780632acd200014610242578063313ce56714610285578063526606c9146102b65780636bc388b2146102f957806370a082311461035457806379cb5a2f146103ab5780637e932d32146103ee5780638ca177551461043557806393edaf591461048c57806395d89b41146104f95780639cb8a26a14610589578063a9059cbb146105a0578063be45fd62146105ed578063c0ee0b8a14610652575b600080fd5b34801561010d57600080fd5b506101166106e5565b604051808215151515815260200191505060405180910390f35b34801561013c57600080fd5b506101456106f8565b6040518080602001828103825283818151815260200191508051906020019080838360005b8381101561018557808201518184015260208101905061016a565b50505050905090810190601f1680156101b25780820380516001836020036101000a031916815260200191505b509250505060405180910390f35b3480156101cc57600080fd5b506101d5610796565b6040518082815260200191505060405180910390f35b3480156101f757600080fd5b5061022c600480360381019080803573ffffffffffffffffffffffffffffffffffffffff16906020019092919050505061079c565b6040518082815260200191505060405180910390f35b34801561024e57600080fd5b50610283600480360381019080803573ffffffffffffffffffffffffffffffffffffffff1690602001909291905050506107b4565b005b34801561029157600080fd5b5061029a610a74565b604051808260ff1660ff16815260200191505060405180910390f35b3480156102c257600080fd5b506102f7600480360381019080803573ffffffffffffffffffffffffffffffffffffffff169060200190929190505050610a87565b005b34801561030557600080fd5b5061033a600480360381019080803573ffffffffffffffffffffffffffffffffffffffff169060200190929190505050610c0f565b604051808215151515815260200191505060405180910390f35b34801561036057600080fd5b50610395600480360381019080803573ffffffffffffffffffffffffffffffffffffffff169060200190929190505050610c2f565b6040518082815260200191505060405180910390f35b3480156103b757600080fd5b506103ec600480360381019080803573ffffffffffffffffffffffffffffffffffffffff169060200190929190505050610c78565b005b3480156103fa57600080fd5b5061041b600480360381019080803515159060200190929190505050610dd9565b604051808215151515815260200191505060405180910390f35b34801561044157600080fd5b5061044a610eb6565b604051808273ffffffffffffffffffffffffffffffffffffffff1673ffffffffffffffffffffffffffffffffffffffff16815260200191505060405180910390f35b34801561049857600080fd5b506104b760048036038101908080359060200190929190505050610edc565b604051808273ffffffffffffffffffffffffffffffffffffffff1673ffffffffffffffffffffffffffffffffffffffff16815260200191505060405180910390f35b34801561050557600080fd5b5061050e610f1a565b6040518080602001828103825283818151815260200191508051906020019080838360005b8381101561054e578082015181840152602081019050610533565b50505050905090810190601f16801561057b5780820380516001836020036101000a031916815260200191505b509250505060405180910390f35b34801561059557600080fd5b5061059e610fb8565b005b3480156105ac57600080fd5b506105eb600480360381019080803573ffffffffffffffffffffffffffffffffffffffff1690602001909291908035906020019092919050505061106a565b005b3480156105f957600080fd5b50610650600480360381019080803573ffffffffffffffffffffffffffffffffffffffff169060200190929190803590602001909291908035906020019082018035906020019190919293919293905050506113be565b005b34801561065e57600080fd5b506106e3600480360381019080803573ffffffffffffffffffffffffffffffffffffffff16906020019092919080359060200190929190803590602001908201803590602001908080601f016020809104026020016040519081016040528093929190818152602001838380828437820191505050505050919291929050505061167f565b005b600260009054906101000a900460ff1681565b60008054600181600116156101000203166002900480601f01602080910402602001604051908101604052809291908181526020018280546001816001161561010002031660029004801561078e5780601f106107635761010080835404028352916020019161078e565b820191906000526020600020905b81548152906001019060200180831161077157829003601f168201915b505050505081565b60055481565b60066020528060005260406000206000915090505481565b6000600460009054906101000a900473ffffffffffffffffffffffffffffffffffffffff1673ffffffffffffffffffffffffffffffffffffffff163373ffffffffffffffffffffffffffffffffffffffff1614151561081257600080fd5b600760008373ffffffffffffffffffffffffffffffffffffffff1673ffffffffffffffffffffffffffffffffffffffff16815260200190815260200160002060009054906101000a900460ff16151561086a57600080fd5b6000600760008473ffffffffffffffffffffffffffffffffffffffff1673ffffffffffffffffffffffffffffffffffffffff16815260200190815260200160002060006101000a81548160ff021916908315150217905550600090505b6001600380549050038110156109ef578173ffffffffffffffffffffffffffffffffffffffff166003828154811015156108fd57fe5b9060005260206000200160009054906101000a900473ffffffffffffffffffffffffffffffffffffffff1673ffffffffffffffffffffffffffffffffffffffff1614156109e257600360016003805490500381548110151561095b57fe5b9060005260206000200160009054906101000a900473ffffffffffffffffffffffffffffffffffffffff1660038281548110151561099557fe5b9060005260206000200160006101000a81548173ffffffffffffffffffffffffffffffffffffffff021916908373ffffffffffffffffffffffffffffffffffffffff1602179055506109ef565b80806001019150506108c7565b6003805480919060019003610a0491906116bb565b507f06845c4ab0c2721bc27c684cd47602d6f763a3c0ba282a020dfe9445efe61d5b8242604051808373ffffffffffffffffffffffffffffffffffffffff1673ffffffffffffffffffffffffffffffffffffffff1681526020018281526020019250505060405180910390a15050565b600260019054906101000a900460ff1681565b600460009054906101000a900473ffffffffffffffffffffffffffffffffffffffff1673ffffffffffffffffffffffffffffffffffffffff163373ffffffffffffffffffffffffffffffffffffffff16141515610ae357600080fd5b60038190806001815401808255809150509060018203906000526020600020016000909192909190916101000a81548173ffffffffffffffffffffffffffffffffffffffff021916908373ffffffffffffffffffffffffffffffffffffffff160217905550506001600760008373ffffffffffffffffffffffffffffffffffffffff1673ffffffffffffffffffffffffffffffffffffffff16815260200190815260200160002060006101000a81548160ff0219169083151502179055507f1b42f904f78a7e8a1031a9a546dee6cb580c50d997aa21f9fbf8978bfff6e6788142604051808373ffffffffffffffffffffffffffffffffffffffff1673ffffffffffffffffffffffffffffffffffffffff1681526020018281526020019250505060405180910390a150565b60076020528060005260406000206000915054906101000a900460ff1681565b6000600660008373ffffffffffffffffffffffffffffffffffffffff1673ffffffffffffffffffffffffffffffffffffffff168152602001908152602001600020549050919050565b600460009054906101000a900473ffffffffffffffffffffffffffffffffffffffff1673ffffffffffffffffffffffffffffffffffffffff163373ffffffffffffffffffffffffffffffffffffffff16141515610cd457600080fd5b7f956e5f0002e9aef9b3aeaa9406c84a299c16b40ec542961c1970720ee6581063600460009054906101000a900473ffffffffffffffffffffffffffffffffffffffff168242604051808473ffffffffffffffffffffffffffffffffffffffff1673ffffffffffffffffffffffffffffffffffffffff1681526020018373ffffffffffffffffffffffffffffffffffffffff1673ffffffffffffffffffffffffffffffffffffffff168152602001828152602001935050505060405180910390a180600460006101000a81548173ffffffffffffffffffffffffffffffffffffffff021916908373ffffffffffffffffffffffffffffffffffffffff16021790555050565b6000600760003373ffffffffffffffffffffffffffffffffffffffff1673ffffffffffffffffffffffffffffffffffffffff16815260200190815260200160002060009054906101000a900460ff161515610e3357600080fd5b81600260006101000a81548160ff0219169083151502179055507f8da8524f2ca9d1d04aa3d3ad33aa27a98fe2bd0faa7cfcedc03365a618241105600260009054906101000a900460ff164260405180831515151581526020018281526020019250505060405180910390a1600260009054906101000a900460ff169050919050565b600460009054906101000a900473ffffffffffffffffffffffffffffffffffffffff1681565b600381815481101515610eeb57fe5b906000526020600020016000915054906101000a900473ffffffffffffffffffffffffffffffffffffffff1681565b60018054600181600116156101000203166002900480601f016020809104026020016040519081016040528092919081815260200182805460018160011615610100020316600290048015610fb05780601f10610f8557610100808354040283529160200191610fb0565b820191906000526020600020905b815481529060010190602001808311610f9357829003601f168201915b505050505081565b600460009054906101000a900473ffffffffffffffffffffffffffffffffffffffff1673ffffffffffffffffffffffffffffffffffffffff163373ffffffffffffffffffffffffffffffffffffffff1614151561101457600080fd5b600260009054906101000a900460ff16151561102f57600080fd5b600460009054906101000a900473ffffffffffffffffffffffffffffffffffffffff1673ffffffffffffffffffffffffffffffffffffffff16ff5b600060606000600260009054906101000a900460ff1615151561108c57600080fd5b843b92506110e284600660003373ffffffffffffffffffffffffffffffffffffffff1673ffffffffffffffffffffffffffffffffffffffff1681526020019081526020016000205461168490919063ffffffff16565b600660003373ffffffffffffffffffffffffffffffffffffffff1673ffffffffffffffffffffffffffffffffffffffff1681526020019081526020016000208190555061117784600660008873ffffffffffffffffffffffffffffffffffffffff1673ffffffffffffffffffffffffffffffffffffffff1681526020019081526020016000205461169d90919063ffffffff16565b600660008773ffffffffffffffffffffffffffffffffffffffff1673ffffffffffffffffffffffffffffffffffffffff1681526020019081526020016000208190555060008311156112ef578490508073ffffffffffffffffffffffffffffffffffffffff1663c0ee0b8a3386856040518463ffffffff167c0100000000000000000000000000000000000000000000000000000000028152600401808473ffffffffffffffffffffffffffffffffffffffff1673ffffffffffffffffffffffffffffffffffffffff16815260200183815260200180602001828103825283818151815260200191508051906020019080838360005b8381101561128857808201518184015260208101905061126d565b50505050905090810190601f1680156112b55780820380516001836020036101000a031916815260200191505b50945050505050600060405180830381600087803b1580156112d657600080fd5b505af11580156112ea573d6000803e3d6000fd5b505050505b816040518082805190602001908083835b6020831015156113255780518252602082019150602081019050602083039250611300565b6001836020036101000a03801982511681845116808217855250505050505090500191505060405180910390208573ffffffffffffffffffffffffffffffffffffffff163373ffffffffffffffffffffffffffffffffffffffff167f76a5b5b99a9d7ae1bbce58b63dce7219d77b55ca2eeb9455507919d3aac0638b876040518082815260200191505060405180910390a45050505050565b600080600260009054906101000a900460ff161515156113dd57600080fd5b853b915061143385600660003373ffffffffffffffffffffffffffffffffffffffff1673ffffffffffffffffffffffffffffffffffffffff1681526020019081526020016000205461168490919063ffffffff16565b600660003373ffffffffffffffffffffffffffffffffffffffff1673ffffffffffffffffffffffffffffffffffffffff168152602001908152602001600020819055506114c885600660008973ffffffffffffffffffffffffffffffffffffffff1673ffffffffffffffffffffffffffffffffffffffff1681526020019081526020016000205461169d90919063ffffffff16565b600660008873ffffffffffffffffffffffffffffffffffffffff1673ffffffffffffffffffffffffffffffffffffffff1681526020019081526020016000208190555060008211156115f5578590508073ffffffffffffffffffffffffffffffffffffffff1663c0ee0b8a338787876040518563ffffffff167c0100000000000000000000000000000000000000000000000000000000028152600401808573ffffffffffffffffffffffffffffffffffffffff1673ffffffffffffffffffffffffffffffffffffffff168152602001848152602001806020018281038252848482818152602001925080828437820191505095505050505050600060405180830381600087803b1580156115dc57600080fd5b505af11580156115f0573d6000803e3d6000fd5b505050505b83836040518083838082843782019150509250505060405180910390208673ffffffffffffffffffffffffffffffffffffffff163373ffffffffffffffffffffffffffffffffffffffff167f76a5b5b99a9d7ae1bbce58b63dce7219d77b55ca2eeb9455507919d3aac0638b886040518082815260200191505060405180910390a4505050505050565b505050565b600082821115151561169257fe5b818303905092915050565b60008082840190508381101515156116b157fe5b8091505092915050565b8154818355818111156116e2578183600052602060002091820191016116e191906116e7565b5b505050565b61170991905b808211156117055760008160009055506001016116ed565b5090565b905600a165627a7a7230582057b27ba72d876ac67e7e4dfdb07986adf7b8af34da1ca8172008a43d75e705aa0029",
  "source": "pragma solidity ^0.4.11;\r\n\r\nlibrary SafeMath {\r\n    function sub(uint256 a, uint256 b) internal constant returns (uint256) {\r\n        assert(b <= a);\r\n        return a - b;\r\n    }\r\n    function add(uint256 a, uint256 b) internal constant returns (uint256) {\r\n        uint256 c = a + b;\r\n        assert(c >= a);\r\n        return c;\r\n    }\r\n}\r\n\r\ncontract ERC223Compliant {\r\n    function tokenFallback(address _from, uint _value, bytes _data) {}\r\n}\r\n\r\ncontract EtheraffleLOT is ERC223Compliant {\r\n    using SafeMath for uint;\r\n\r\n    string    public name;\r\n    string    public symbol;\r\n    bool      public frozen;\r\n    uint8     public decimals;\r\n    address[] public freezers;\r\n    address   public etheraffle;\r\n    uint      public totalSupply;\r\n\r\n    mapping (address => uint) public balances;\r\n    mapping (address => bool) public canFreeze;\r\n\r\n    event LogFrozenStatus(bool status, uint atTime);\r\n    event LogFreezerAddition(address newFreezer, uint atTime);\r\n    event LogFreezerRemoval(address freezerRemoved, uint atTime);\r\n    event LogEtheraffleChange(address prevER, address newER, uint atTime);\r\n    event LogTransfer(address indexed from, address indexed to, uint value, bytes indexed data);\r\n\r\n    /**\r\n     * @dev   Modifier function to prepend to methods rendering them only callable\r\n     *        by the Etheraffle MultiSig wallet.\r\n     */\r\n    modifier onlyEtheraffle() {\r\n        require(msg.sender == etheraffle);\r\n        _;\r\n    }\r\n    /**\r\n     * @dev   Modifier function to prepend to methods rendering them only callable\r\n     *        by address approved for freezing.\r\n     */\r\n    modifier onlyFreezers() {\r\n        require(canFreeze[msg.sender]);\r\n        _;\r\n    }\r\n    /**\r\n     * @dev   Modifier function to prepend to methods to render them only callable\r\n     *        when the frozen toggle is false\r\n     */\r\n    modifier onlyIfNotFrozen() {\r\n        require(!frozen);\r\n        _;\r\n    }\r\n    /**\r\n     * @dev   Constructor: Sets the meta data for the token and gives the intial supply to the\r\n     *        Etheraffle ICO.\r\n     *\r\n     * @param _etheraffle   Address of the Etheraffle's multisig wallet, the only\r\n     *                      address via which the frozen/unfrozen state of the\r\n     *                      token transfers can be toggled.\r\n     * @param _supply       Total numner of LOT to mint on contract creation.\r\n\r\n     */\r\n    function EtheraffleLOT(address _etheraffle, uint _supply) {\r\n        freezers.push(_etheraffle);\r\n        name                   = \"Etheraffle LOT\";\r\n        symbol                 = \"LOT\";\r\n        decimals               = 6;\r\n        etheraffle             = _etheraffle;\r\n        totalSupply            = _supply * 10 ** uint256(decimals);\r\n        balances[_etheraffle]  = totalSupply;\r\n        canFreeze[_etheraffle] = true;\r\n    }\r\n    /**\r\n     * ERC223 Standard functions:\r\n     *\r\n     * @dev Transfer the specified amount of LOT to the specified address.\r\n     *      Invokes the `tokenFallback` function if the recipient is a contract.\r\n     *      The token transfer fails if the recipient is a contract\r\n     *      but does not implement the `tokenFallback` function\r\n     *      or the fallback function to receive funds.\r\n     *\r\n     * @param _to     Receiver address.\r\n     * @param _value  Amount of LOT to be transferred.\r\n     * @param _data   Transaction metadata.\r\n     */\r\n    function transfer(address _to, uint _value, bytes _data) onlyIfNotFrozen external {\r\n        uint codeLength;\r\n        assembly {\r\n            codeLength := extcodesize(_to)\r\n        }\r\n        balances[msg.sender] = balances[msg.sender].sub(_value);\r\n        balances[_to]        = balances[_to].add(_value);\r\n        if(codeLength > 0) {\r\n            ERC223Compliant receiver = ERC223Compliant(_to);\r\n            receiver.tokenFallback(msg.sender, _value, _data);\r\n        }\r\n        LogTransfer(msg.sender, _to, _value, _data);\r\n    }\r\n    /**\r\n     * @dev   Transfer the specified amount of LOT to the specified address.\r\n     *        Standard function transfer similar to ERC20 transfer with no\r\n     *        _data param. Added due to backwards compatibility reasons.\r\n     *\r\n     * @param _to     Receiver address.\r\n     * @param _value  Amount of LOT to be transferred.\r\n     */\r\n    function transfer(address _to, uint _value) onlyIfNotFrozen external {\r\n        uint codeLength;\r\n        bytes memory empty;\r\n        assembly {\r\n            codeLength := extcodesize(_to)\r\n        }\r\n        balances[msg.sender] = balances[msg.sender].sub(_value);\r\n        balances[_to]        = balances[_to].add(_value);\r\n        if(codeLength > 0) {\r\n            ERC223Compliant receiver = ERC223Compliant(_to);\r\n            receiver.tokenFallback(msg.sender, _value, empty);\r\n        }\r\n        LogTransfer(msg.sender, _to, _value, empty);\r\n    }\r\n    /**\r\n     * @dev     Returns balance of the `_owner`.\r\n     * @param _owner    The address whose balance will be returned.\r\n     * @return balance  Balance of the `_owner`.\r\n     */\r\n    function balanceOf(address _owner) constant external returns (uint balance) {\r\n        return balances[_owner];\r\n    }\r\n    /**\r\n     * @dev   Change the frozen status of the LOT token.\r\n     *\r\n     * @param _status   Desired status of the frozen bool\r\n     */\r\n    function setFrozen(bool _status) external onlyFreezers returns (bool) {\r\n        frozen = _status;\r\n        LogFrozenStatus(frozen, now);\r\n        return frozen;\r\n    }\r\n    /**\r\n     * @dev     Allow addition of freezers to allow future contracts to\r\n     *          use the role.\r\n     *\r\n     * @param _new  New freezer address.\r\n     */\r\n    function addFreezer(address _new) external onlyEtheraffle {\r\n        freezers.push(_new);\r\n        canFreeze[_new] = true;\r\n        LogFreezerAddition(_new, now);\r\n    }\r\n    /**\r\n     * @dev     Remove a freezer should they no longer require or need the\r\n     *          the privilege.\r\n     *\r\n     * @param _freezer    The desired address to be removed.\r\n     */\r\n    function removeFreezer(address _freezer) external onlyEtheraffle {\r\n        require(canFreeze[_freezer]);\r\n        canFreeze[_freezer] = false;\r\n        for(uint i = 0; i < freezers.length - 1; i++)\r\n            if(freezers[i] == _freezer) {\r\n                freezers[i] = freezers[freezers.length - 1];\r\n                break;\r\n            }\r\n        freezers.length--;\r\n        LogFreezerRemoval(_freezer, now);\r\n    }\r\n    /**\r\n     * @dev   Allow changing of contract ownership ready for future upgrades/\r\n     *        changes in management structure.\r\n     *\r\n     * @param _new  New owner/controller address.\r\n     */\r\n    function setEtheraffle(address _new) external onlyEtheraffle {\r\n        LogEtheraffleChange(etheraffle, _new, now);\r\n        etheraffle = _new;\r\n    }\r\n    /**\r\n     * @dev   Fallback in case of accidental ether transfer\r\n     */\r\n    function () external payable {\r\n        revert();\r\n    }\r\n    /**\r\n     * @dev   Housekeeping- called in the event this contract is no\r\n     *        longer needed, after a LOT upgrade for example. Deletes\r\n     *        the code from the blockchain. Only callable by the\r\n     *        Etheraffle address.\r\n     */\r\n    function selfDestruct() external onlyEtheraffle {\r\n        require(frozen);\r\n        selfdestruct(etheraffle);\r\n    }\r\n}\r\n",
  "sourcePath": "C:\\Users\\Greg\\Desktop\\ER\\solidity\\contracts\\etheraffleLOT.sol",
  "compiler": {
    "name": "solc",
    "version": "0.4.24+commit.e67f0147.Emscripten.clang"
  },
  "schemaVersion": "2.0.0",
  "updatedAt": "2018-06-06T12:25:49.728Z"
}