{
  "contractName": "EtheraffleFreeLOT",
  "abi": [
    {
      "constant": true,
      "inputs": [],
      "name": "name",
      "outputs": [
        {
          "name": "",
          "type": "string"
        }
      ],
      "payable": false,
      "stateMutability": "view",
      "type": "function"
    },
    {
      "constant": true,
      "inputs": [],
      "name": "totalSupply",
      "outputs": [
        {
          "name": "",
          "type": "uint256"
        }
      ],
      "payable": false,
      "stateMutability": "view",
      "type": "function"
    },
    {
      "constant": true,
      "inputs": [
        {
          "name": "",
          "type": "address"
        }
      ],
      "name": "balances",
      "outputs": [
        {
          "name": "",
          "type": "uint256"
        }
      ],
      "payable": false,
      "stateMutability": "view",
      "type": "function"
    },
    {
      "constant": true,
      "inputs": [],
      "name": "decimals",
      "outputs": [
        {
          "name": "",
          "type": "uint8"
        }
      ],
      "payable": false,
      "stateMutability": "view",
      "type": "function"
    },
    {
      "constant": true,
      "inputs": [
        {
          "name": "",
          "type": "address"
        }
      ],
      "name": "isDestroyer",
      "outputs": [
        {
          "name": "",
          "type": "bool"
        }
      ],
      "payable": false,
      "stateMutability": "view",
      "type": "function"
    },
    {
      "constant": true,
      "inputs": [
        {
          "name": "",
          "type": "uint256"
        }
      ],
      "name": "minters",
      "outputs": [
        {
          "name": "",
          "type": "address"
        }
      ],
      "payable": false,
      "stateMutability": "view",
      "type": "function"
    },
    {
      "constant": true,
      "inputs": [],
      "name": "etheraffle",
      "outputs": [
        {
          "name": "",
          "type": "address"
        }
      ],
      "payable": false,
      "stateMutability": "view",
      "type": "function"
    },
    {
      "constant": true,
      "inputs": [],
      "name": "symbol",
      "outputs": [
        {
          "name": "",
          "type": "string"
        }
      ],
      "payable": false,
      "stateMutability": "view",
      "type": "function"
    },
    {
      "constant": true,
      "inputs": [
        {
          "name": "",
          "type": "address"
        }
      ],
      "name": "isMinter",
      "outputs": [
        {
          "name": "",
          "type": "bool"
        }
      ],
      "payable": false,
      "stateMutability": "view",
      "type": "function"
    },
    {
      "constant": false,
      "inputs": [
        {
          "name": "_from",
          "type": "address"
        },
        {
          "name": "_value",
          "type": "uint256"
        },
        {
          "name": "_data",
          "type": "bytes"
        }
      ],
      "name": "tokenFallback",
      "outputs": [],
      "payable": false,
      "stateMutability": "nonpayable",
      "type": "function"
    },
    {
      "constant": true,
      "inputs": [
        {
          "name": "",
          "type": "uint256"
        }
      ],
      "name": "destroyers",
      "outputs": [
        {
          "name": "",
          "type": "address"
        }
      ],
      "payable": false,
      "stateMutability": "view",
      "type": "function"
    },
    {
      "constant": true,
      "inputs": [],
      "name": "redeemed",
      "outputs": [
        {
          "name": "",
          "type": "uint256"
        }
      ],
      "payable": false,
      "stateMutability": "view",
      "type": "function"
    },
    {
      "inputs": [
        {
          "name": "_etheraffle",
          "type": "address"
        },
        {
          "name": "_amt",
          "type": "uint256"
        }
      ],
      "payable": false,
      "stateMutability": "nonpayable",
      "type": "constructor"
    },
    {
      "payable": true,
      "stateMutability": "payable",
      "type": "fallback"
    },
    {
      "anonymous": false,
      "inputs": [
        {
          "indexed": false,
          "name": "newMinter",
          "type": "address"
        },
        {
          "indexed": false,
          "name": "atTime",
          "type": "uint256"
        }
      ],
      "name": "LogMinterAddition",
      "type": "event"
    },
    {
      "anonymous": false,
      "inputs": [
        {
          "indexed": false,
          "name": "minterRemoved",
          "type": "address"
        },
        {
          "indexed": false,
          "name": "atTime",
          "type": "uint256"
        }
      ],
      "name": "LogMinterRemoval",
      "type": "event"
    },
    {
      "anonymous": false,
      "inputs": [
        {
          "indexed": false,
          "name": "newDestroyer",
          "type": "address"
        },
        {
          "indexed": false,
          "name": "atTime",
          "type": "uint256"
        }
      ],
      "name": "LogDestroyerAddition",
      "type": "event"
    },
    {
      "anonymous": false,
      "inputs": [
        {
          "indexed": false,
          "name": "destroyerRemoved",
          "type": "address"
        },
        {
          "indexed": false,
          "name": "atTime",
          "type": "uint256"
        }
      ],
      "name": "LogDestroyerRemoval",
      "type": "event"
    },
    {
      "anonymous": false,
      "inputs": [
        {
          "indexed": true,
          "name": "toWhom",
          "type": "address"
        },
        {
          "indexed": false,
          "name": "amountMinted",
          "type": "uint256"
        },
        {
          "indexed": false,
          "name": "atTime",
          "type": "uint256"
        }
      ],
      "name": "LogMinting",
      "type": "event"
    },
    {
      "anonymous": false,
      "inputs": [
        {
          "indexed": true,
          "name": "toWhom",
          "type": "address"
        },
        {
          "indexed": false,
          "name": "amountDestroyed",
          "type": "uint256"
        },
        {
          "indexed": false,
          "name": "atTime",
          "type": "uint256"
        }
      ],
      "name": "LogDestruction",
      "type": "event"
    },
    {
      "anonymous": false,
      "inputs": [
        {
          "indexed": false,
          "name": "prevController",
          "type": "address"
        },
        {
          "indexed": false,
          "name": "newController",
          "type": "address"
        },
        {
          "indexed": false,
          "name": "atTime",
          "type": "uint256"
        }
      ],
      "name": "LogEtheraffleChange",
      "type": "event"
    },
    {
      "anonymous": false,
      "inputs": [
        {
          "indexed": true,
          "name": "from",
          "type": "address"
        },
        {
          "indexed": true,
          "name": "to",
          "type": "address"
        },
        {
          "indexed": false,
          "name": "value",
          "type": "uint256"
        },
        {
          "indexed": true,
          "name": "data",
          "type": "bytes"
        }
      ],
      "name": "LogTransfer",
      "type": "event"
    },
    {
      "constant": false,
      "inputs": [
        {
          "name": "_to",
          "type": "address"
        },
        {
          "name": "_value",
          "type": "uint256"
        },
        {
          "name": "_data",
          "type": "bytes"
        }
      ],
      "name": "transfer",
      "outputs": [],
      "payable": false,
      "stateMutability": "nonpayable",
      "type": "function"
    },
    {
      "constant": false,
      "inputs": [
        {
          "name": "_to",
          "type": "address"
        },
        {
          "name": "_value",
          "type": "uint256"
        }
      ],
      "name": "transfer",
      "outputs": [],
      "payable": false,
      "stateMutability": "nonpayable",
      "type": "function"
    },
    {
      "constant": true,
      "inputs": [
        {
          "name": "_owner",
          "type": "address"
        }
      ],
      "name": "balanceOf",
      "outputs": [
        {
          "name": "balance",
          "type": "uint256"
        }
      ],
      "payable": false,
      "stateMutability": "view",
      "type": "function"
    },
    {
      "constant": false,
      "inputs": [
        {
          "name": "_new",
          "type": "address"
        }
      ],
      "name": "setEtheraffle",
      "outputs": [],
      "payable": false,
      "stateMutability": "nonpayable",
      "type": "function"
    },
    {
      "constant": false,
      "inputs": [
        {
          "name": "_new",
          "type": "address"
        }
      ],
      "name": "addMinter",
      "outputs": [],
      "payable": false,
      "stateMutability": "nonpayable",
      "type": "function"
    },
    {
      "constant": false,
      "inputs": [
        {
          "name": "_minter",
          "type": "address"
        }
      ],
      "name": "removeMinter",
      "outputs": [],
      "payable": false,
      "stateMutability": "nonpayable",
      "type": "function"
    },
    {
      "constant": false,
      "inputs": [
        {
          "name": "_new",
          "type": "address"
        }
      ],
      "name": "addDestroyer",
      "outputs": [],
      "payable": false,
      "stateMutability": "nonpayable",
      "type": "function"
    },
    {
      "constant": false,
      "inputs": [
        {
          "name": "_destroyer",
          "type": "address"
        }
      ],
      "name": "removeDestroyer",
      "outputs": [],
      "payable": false,
      "stateMutability": "nonpayable",
      "type": "function"
    },
    {
      "constant": false,
      "inputs": [
        {
          "name": "_to",
          "type": "address"
        },
        {
          "name": "_amt",
          "type": "uint256"
        }
      ],
      "name": "mint",
      "outputs": [],
      "payable": false,
      "stateMutability": "nonpayable",
      "type": "function"
    },
    {
      "constant": false,
      "inputs": [
        {
          "name": "_from",
          "type": "address"
        },
        {
          "name": "_amt",
          "type": "uint256"
        }
      ],
      "name": "destroy",
      "outputs": [],
      "payable": false,
      "stateMutability": "nonpayable",
      "type": "function"
    },
    {
      "constant": false,
      "inputs": [],
      "name": "selfDestruct",
      "outputs": [],
      "payable": false,
      "stateMutability": "nonpayable",
      "type": "function"
    }
  ],
  "bytecode": "0x60806040523480156200001157600080fd5b50604051604080620022f583398101806040528101908080519060200190929190805190602001909291905050506040805190810160405280601281526020017f45746865726166666c6520467265654c4f540000000000000000000000000000815250600090805190602001906200008c929190620002eb565b506040805190810160405280600781526020017f467265654c4f540000000000000000000000000000000000000000000000000081525060019080519060200190620000da929190620002eb565b5081600660006101000a81548173ffffffffffffffffffffffffffffffffffffffff021916908373ffffffffffffffffffffffffffffffffffffffff16021790555060028290806001815401808255809150509060018203906000526020600020016000909192909190916101000a81548173ffffffffffffffffffffffffffffffffffffffff021916908373ffffffffffffffffffffffffffffffffffffffff1602179055505060058290806001815401808255809150509060018203906000526020600020016000909192909190916101000a81548173ffffffffffffffffffffffffffffffffffffffff021916908373ffffffffffffffffffffffffffffffffffffffff160217905550508060078190555080600860008473ffffffffffffffffffffffffffffffffffffffff1673ffffffffffffffffffffffffffffffffffffffff168152602001908152602001600020819055506001600960008473ffffffffffffffffffffffffffffffffffffffff1673ffffffffffffffffffffffffffffffffffffffff16815260200190815260200160002060006101000a81548160ff0219169083151502179055506001600a60008473ffffffffffffffffffffffffffffffffffffffff1673ffffffffffffffffffffffffffffffffffffffff16815260200190815260200160002060006101000a81548160ff02191690831515021790555050506200039a565b828054600181600116156101000203166002900490600052602060002090601f016020900481019282601f106200032e57805160ff19168380011785556200035f565b828001600101855582156200035f579182015b828111156200035e57825182559160200191906001019062000341565b5b5090506200036e919062000372565b5090565b6200039791905b808211156200039357600081600090555060010162000379565b5090565b90565b611f4b80620003aa6000396000f300608060405260043610610133576000357c0100000000000000000000000000000000000000000000000000000000900463ffffffff16806306fdde031461013857806318160ddd146101c857806327e235e3146101f35780633092afd51461024a578063313ce5671461028d57806340c10f19146102be57806350b4c6071461030b57806370a082311461036657806379cb5a2f146103bd5780638623ec7b146104005780638ca177551461046d57806395d89b41146104c4578063983b2d56146105545780639cb8a26a14610597578063a24835d1146105ae578063a9059cbb146105fb578063aa271e1a14610648578063b0c13bfb146106a3578063b7c8561f146106e6578063be45fd6214610729578063c0ee0b8a1461078e578063c4c59b5314610821578063e231bff01461088e575b600080fd5b34801561014457600080fd5b5061014d6108b9565b6040518080602001828103825283818151815260200191508051906020019080838360005b8381101561018d578082015181840152602081019050610172565b50505050905090810190601f1680156101ba5780820380516001836020036101000a031916815260200191505b509250505060405180910390f35b3480156101d457600080fd5b506101dd610957565b6040518082815260200191505060405180910390f35b3480156101ff57600080fd5b50610234600480360381019080803573ffffffffffffffffffffffffffffffffffffffff16906020019092919050505061095d565b6040518082815260200191505060405180910390f35b34801561025657600080fd5b5061028b600480360381019080803573ffffffffffffffffffffffffffffffffffffffff169060200190929190505050610975565b005b34801561029957600080fd5b506102a2610c35565b604051808260ff1660ff16815260200191505060405180910390f35b3480156102ca57600080fd5b50610309600480360381019080803573ffffffffffffffffffffffffffffffffffffffff16906020019092919080359060200190929190505050610c48565b005b34801561031757600080fd5b5061034c600480360381019080803573ffffffffffffffffffffffffffffffffffffffff169060200190929190505050610daa565b604051808215151515815260200191505060405180910390f35b34801561037257600080fd5b506103a7600480360381019080803573ffffffffffffffffffffffffffffffffffffffff169060200190929190505050610dca565b6040518082815260200191505060405180910390f35b3480156103c957600080fd5b506103fe600480360381019080803573ffffffffffffffffffffffffffffffffffffffff169060200190929190505050610e13565b005b34801561040c57600080fd5b5061042b60048036038101908080359060200190929190505050610f74565b604051808273ffffffffffffffffffffffffffffffffffffffff1673ffffffffffffffffffffffffffffffffffffffff16815260200191505060405180910390f35b34801561047957600080fd5b50610482610fb2565b604051808273ffffffffffffffffffffffffffffffffffffffff1673ffffffffffffffffffffffffffffffffffffffff16815260200191505060405180910390f35b3480156104d057600080fd5b506104d9610fd8565b6040518080602001828103825283818151815260200191508051906020019080838360005b838110156105195780820151818401526020810190506104fe565b50505050905090810190601f1680156105465780820380516001836020036101000a031916815260200191505b509250505060405180910390f35b34801561056057600080fd5b50610595600480360381019080803573ffffffffffffffffffffffffffffffffffffffff169060200190929190505050611076565b005b3480156105a357600080fd5b506105ac6111fe565b005b3480156105ba57600080fd5b506105f9600480360381019080803573ffffffffffffffffffffffffffffffffffffffff16906020019092919080359060200190929190505050611295565b005b34801561060757600080fd5b50610646600480360381019080803573ffffffffffffffffffffffffffffffffffffffff16906020019092919080359060200190929190505050611409565b005b34801561065457600080fd5b50610689600480360381019080803573ffffffffffffffffffffffffffffffffffffffff169060200190929190505050611741565b604051808215151515815260200191505060405180910390f35b3480156106af57600080fd5b506106e4600480360381019080803573ffffffffffffffffffffffffffffffffffffffff169060200190929190505050611761565b005b3480156106f257600080fd5b50610727600480360381019080803573ffffffffffffffffffffffffffffffffffffffff1690602001909291905050506118e9565b005b34801561073557600080fd5b5061078c600480360381019080803573ffffffffffffffffffffffffffffffffffffffff16906020019092919080359060200190929190803590602001908201803590602001919091929391929390505050611ba9565b005b34801561079a57600080fd5b5061081f600480360381019080803573ffffffffffffffffffffffffffffffffffffffff16906020019092919080359060200190929190803590602001908201803590602001908080601f0160208091040260200160405190810160405280939291908181526020018383808284378201915050505050509192919290505050611e4e565b005b34801561082d57600080fd5b5061084c60048036038101908080359060200190929190505050611e53565b604051808273ffffffffffffffffffffffffffffffffffffffff1673ffffffffffffffffffffffffffffffffffffffff16815260200191505060405180910390f35b34801561089a57600080fd5b506108a3611e91565b6040518082815260200191505060405180910390f35b60008054600181600116156101000203166002900480601f01602080910402602001604051908101604052809291908181526020018280546001816001161561010002031660029004801561094f5780601f106109245761010080835404028352916020019161094f565b820191906000526020600020905b81548152906001019060200180831161093257829003601f168201915b505050505081565b60075481565b60086020528060005260406000206000915090505481565b6000600660009054906101000a900473ffffffffffffffffffffffffffffffffffffffff1673ffffffffffffffffffffffffffffffffffffffff163373ffffffffffffffffffffffffffffffffffffffff161415156109d357600080fd5b600960008373ffffffffffffffffffffffffffffffffffffffff1673ffffffffffffffffffffffffffffffffffffffff16815260200190815260200160002060009054906101000a900460ff161515610a2b57600080fd5b6000600960008473ffffffffffffffffffffffffffffffffffffffff1673ffffffffffffffffffffffffffffffffffffffff16815260200190815260200160002060006101000a81548160ff021916908315150217905550600090505b600160028054905003811015610bb0578173ffffffffffffffffffffffffffffffffffffffff16600282815481101515610abe57fe5b9060005260206000200160009054906101000a900473ffffffffffffffffffffffffffffffffffffffff1673ffffffffffffffffffffffffffffffffffffffff161415610ba3576002600160028054905003815481101515610b1c57fe5b9060005260206000200160009054906101000a900473ffffffffffffffffffffffffffffffffffffffff16600282815481101515610b5657fe5b9060005260206000200160006101000a81548173ffffffffffffffffffffffffffffffffffffffff021916908373ffffffffffffffffffffffffffffffffffffffff160217905550610bb0565b8080600101915050610a88565b6002805480919060019003610bc59190611ece565b507fb3ecd17412d619efbc5172de3de21ac2910d5e70996b244f70513067d7a035b28242604051808373ffffffffffffffffffffffffffffffffffffffff1673ffffffffffffffffffffffffffffffffffffffff1681526020018281526020019250505060405180910390a15050565b600460009054906101000a900460ff1681565b600960003373ffffffffffffffffffffffffffffffffffffffff1673ffffffffffffffffffffffffffffffffffffffff16815260200190815260200160002060009054906101000a900460ff161515610ca057600080fd5b610cb581600754611e9790919063ffffffff16565b600781905550610d0d81600860008573ffffffffffffffffffffffffffffffffffffffff1673ffffffffffffffffffffffffffffffffffffffff16815260200190815260200160002054611e9790919063ffffffff16565b600860008473ffffffffffffffffffffffffffffffffffffffff1673ffffffffffffffffffffffffffffffffffffffff168152602001908152602001600020819055508173ffffffffffffffffffffffffffffffffffffffff167fb09609d523356220e8517cf569bef39310896f4b92bf2a33bb61c0b1c85d02f48242604051808381526020018281526020019250505060405180910390a25050565b600a6020528060005260406000206000915054906101000a900460ff1681565b6000600860008373ffffffffffffffffffffffffffffffffffffffff1673ffffffffffffffffffffffffffffffffffffffff168152602001908152602001600020549050919050565b600660009054906101000a900473ffffffffffffffffffffffffffffffffffffffff1673ffffffffffffffffffffffffffffffffffffffff163373ffffffffffffffffffffffffffffffffffffffff16141515610e6f57600080fd5b7f956e5f0002e9aef9b3aeaa9406c84a299c16b40ec542961c1970720ee6581063600660009054906101000a900473ffffffffffffffffffffffffffffffffffffffff168242604051808473ffffffffffffffffffffffffffffffffffffffff1673ffffffffffffffffffffffffffffffffffffffff1681526020018373ffffffffffffffffffffffffffffffffffffffff1673ffffffffffffffffffffffffffffffffffffffff168152602001828152602001935050505060405180910390a180600660006101000a81548173ffffffffffffffffffffffffffffffffffffffff021916908373ffffffffffffffffffffffffffffffffffffffff16021790555050565b600281815481101515610f8357fe5b906000526020600020016000915054906101000a900473ffffffffffffffffffffffffffffffffffffffff1681565b600660009054906101000a900473ffffffffffffffffffffffffffffffffffffffff1681565b60018054600181600116156101000203166002900480601f01602080910402602001604051908101604052809291908181526020018280546001816001161561010002031660029004801561106e5780601f106110435761010080835404028352916020019161106e565b820191906000526020600020905b81548152906001019060200180831161105157829003601f168201915b505050505081565b600660009054906101000a900473ffffffffffffffffffffffffffffffffffffffff1673ffffffffffffffffffffffffffffffffffffffff163373ffffffffffffffffffffffffffffffffffffffff161415156110d257600080fd5b60028190806001815401808255809150509060018203906000526020600020016000909192909190916101000a81548173ffffffffffffffffffffffffffffffffffffffff021916908373ffffffffffffffffffffffffffffffffffffffff160217905550506001600960008373ffffffffffffffffffffffffffffffffffffffff1673ffffffffffffffffffffffffffffffffffffffff16815260200190815260200160002060006101000a81548160ff0219169083151502179055507fc9cdef9d13077450deb4400202599bec0c01bb70bad2ab774ed7238cdb1680288142604051808373ffffffffffffffffffffffffffffffffffffffff1673ffffffffffffffffffffffffffffffffffffffff1681526020018281526020019250505060405180910390a150565b600660009054906101000a900473ffffffffffffffffffffffffffffffffffffffff1673ffffffffffffffffffffffffffffffffffffffff163373ffffffffffffffffffffffffffffffffffffffff1614151561125a57600080fd5b600660009054906101000a900473ffffffffffffffffffffffffffffffffffffffff1673ffffffffffffffffffffffffffffffffffffffff16ff5b600a60003373ffffffffffffffffffffffffffffffffffffffff1673ffffffffffffffffffffffffffffffffffffffff16815260200190815260200160002060009054906101000a900460ff1615156112ed57600080fd5b61130281600754611eb590919063ffffffff16565b60078190555061135a81600860008573ffffffffffffffffffffffffffffffffffffffff1673ffffffffffffffffffffffffffffffffffffffff16815260200190815260200160002054611eb590919063ffffffff16565b600860008473ffffffffffffffffffffffffffffffffffffffff1673ffffffffffffffffffffffffffffffffffffffff168152602001908152602001600020819055506003600081548092919060010191905055508173ffffffffffffffffffffffffffffffffffffffff167fdb5141a366b991d5f0459684b00ad8c65e00b577df1957b71d8fa09f83f870378242604051808381526020018281526020019250505060405180910390a25050565b600060606000843b925061146584600860003373ffffffffffffffffffffffffffffffffffffffff1673ffffffffffffffffffffffffffffffffffffffff16815260200190815260200160002054611eb590919063ffffffff16565b600860003373ffffffffffffffffffffffffffffffffffffffff1673ffffffffffffffffffffffffffffffffffffffff168152602001908152602001600020819055506114fa84600860008873ffffffffffffffffffffffffffffffffffffffff1673ffffffffffffffffffffffffffffffffffffffff16815260200190815260200160002054611e9790919063ffffffff16565b600860008773ffffffffffffffffffffffffffffffffffffffff1673ffffffffffffffffffffffffffffffffffffffff168152602001908152602001600020819055506000831115611672578490508073ffffffffffffffffffffffffffffffffffffffff1663c0ee0b8a3386856040518463ffffffff167c0100000000000000000000000000000000000000000000000000000000028152600401808473ffffffffffffffffffffffffffffffffffffffff1673ffffffffffffffffffffffffffffffffffffffff16815260200183815260200180602001828103825283818151815260200191508051906020019080838360005b8381101561160b5780820151818401526020810190506115f0565b50505050905090810190601f1680156116385780820380516001836020036101000a031916815260200191505b50945050505050600060405180830381600087803b15801561165957600080fd5b505af115801561166d573d6000803e3d6000fd5b505050505b816040518082805190602001908083835b6020831015156116a85780518252602082019150602081019050602083039250611683565b6001836020036101000a03801982511681845116808217855250505050505090500191505060405180910390208573ffffffffffffffffffffffffffffffffffffffff163373ffffffffffffffffffffffffffffffffffffffff167f76a5b5b99a9d7ae1bbce58b63dce7219d77b55ca2eeb9455507919d3aac0638b876040518082815260200191505060405180910390a45050505050565b60096020528060005260406000206000915054906101000a900460ff1681565b600660009054906101000a900473ffffffffffffffffffffffffffffffffffffffff1673ffffffffffffffffffffffffffffffffffffffff163373ffffffffffffffffffffffffffffffffffffffff161415156117bd57600080fd5b60058190806001815401808255809150509060018203906000526020600020016000909192909190916101000a81548173ffffffffffffffffffffffffffffffffffffffff021916908373ffffffffffffffffffffffffffffffffffffffff160217905550506001600a60008373ffffffffffffffffffffffffffffffffffffffff1673ffffffffffffffffffffffffffffffffffffffff16815260200190815260200160002060006101000a81548160ff0219169083151502179055507fafe9bfc7fd0b7aafaa6200e906ccf81ea79e24e593e9c350783371d113224ad48142604051808373ffffffffffffffffffffffffffffffffffffffff1673ffffffffffffffffffffffffffffffffffffffff1681526020018281526020019250505060405180910390a150565b6000600660009054906101000a900473ffffffffffffffffffffffffffffffffffffffff1673ffffffffffffffffffffffffffffffffffffffff163373ffffffffffffffffffffffffffffffffffffffff1614151561194757600080fd5b600a60008373ffffffffffffffffffffffffffffffffffffffff1673ffffffffffffffffffffffffffffffffffffffff16815260200190815260200160002060009054906101000a900460ff16151561199f57600080fd5b6000600a60008473ffffffffffffffffffffffffffffffffffffffff1673ffffffffffffffffffffffffffffffffffffffff16815260200190815260200160002060006101000a81548160ff021916908315150217905550600090505b600160058054905003811015611b24578173ffffffffffffffffffffffffffffffffffffffff16600582815481101515611a3257fe5b9060005260206000200160009054906101000a900473ffffffffffffffffffffffffffffffffffffffff1673ffffffffffffffffffffffffffffffffffffffff161415611b17576005600160058054905003815481101515611a9057fe5b9060005260206000200160009054906101000a900473ffffffffffffffffffffffffffffffffffffffff16600582815481101515611aca57fe5b9060005260206000200160006101000a81548173ffffffffffffffffffffffffffffffffffffffff021916908373ffffffffffffffffffffffffffffffffffffffff160217905550611b24565b80806001019150506119fc565b6005805480919060019003611b399190611ece565b507f0608bdf965b482913831d50d69c497a110816935d5f1f1773e603d65b9906b9c8242604051808373ffffffffffffffffffffffffffffffffffffffff1673ffffffffffffffffffffffffffffffffffffffff1681526020018281526020019250505060405180910390a15050565b600080853b9150611c0285600860003373ffffffffffffffffffffffffffffffffffffffff1673ffffffffffffffffffffffffffffffffffffffff16815260200190815260200160002054611eb590919063ffffffff16565b600860003373ffffffffffffffffffffffffffffffffffffffff1673ffffffffffffffffffffffffffffffffffffffff16815260200190815260200160002081905550611c9785600860008973ffffffffffffffffffffffffffffffffffffffff1673ffffffffffffffffffffffffffffffffffffffff16815260200190815260200160002054611e9790919063ffffffff16565b600860008873ffffffffffffffffffffffffffffffffffffffff1673ffffffffffffffffffffffffffffffffffffffff168152602001908152602001600020819055506000821115611dc4578590508073ffffffffffffffffffffffffffffffffffffffff1663c0ee0b8a338787876040518563ffffffff167c0100000000000000000000000000000000000000000000000000000000028152600401808573ffffffffffffffffffffffffffffffffffffffff1673ffffffffffffffffffffffffffffffffffffffff168152602001848152602001806020018281038252848482818152602001925080828437820191505095505050505050600060405180830381600087803b158015611dab57600080fd5b505af1158015611dbf573d6000803e3d6000fd5b505050505b83836040518083838082843782019150509250505060405180910390208673ffffffffffffffffffffffffffffffffffffffff163373ffffffffffffffffffffffffffffffffffffffff167f76a5b5b99a9d7ae1bbce58b63dce7219d77b55ca2eeb9455507919d3aac0638b886040518082815260200191505060405180910390a4505050505050565b505050565b600581815481101515611e6257fe5b906000526020600020016000915054906101000a900473ffffffffffffffffffffffffffffffffffffffff1681565b60035481565b6000808284019050838110151515611eab57fe5b8091505092915050565b6000828211151515611ec357fe5b818303905092915050565b815481835581811115611ef557818360005260206000209182019101611ef49190611efa565b5b505050565b611f1c91905b80821115611f18576000816000905550600101611f00565b5090565b905600a165627a7a723058209bec6d73af51d8df88ec772a4bea9d54c73342c2d9636d306a23c2ed6fc22a3a0029",
  "source": "pragma solidity ^0.4.11;\r\n\r\ncontract ERC223 {\r\n    function tokenFallback(address _from, uint _value, bytes _data) public {}\r\n}\r\n\r\nlibrary SafeMath {\r\n    function sub(uint256 a, uint256 b) internal constant returns (uint256) {\r\n        assert(b <= a);\r\n        return a - b;\r\n    }\r\n    function add(uint256 a, uint256 b) internal constant returns (uint256) {\r\n        uint256 c = a + b;\r\n        assert(c >= a);\r\n        return c;\r\n    }\r\n}\r\n\r\ncontract EtheraffleFreeLOT is ERC223 {\r\n    using SafeMath for uint;\r\n\r\n    string    public name;\r\n    string    public symbol;\r\n    address[] public minters;\r\n    uint      public redeemed;\r\n    uint8     public decimals;\r\n    address[] public destroyers;\r\n    address   public etheraffle;\r\n    uint      public totalSupply;\r\n\r\n    mapping (address => uint) public balances;\r\n    mapping (address => bool) public isMinter;\r\n    mapping (address => bool) public isDestroyer;\r\n\r\n\r\n    event LogMinterAddition(address newMinter, uint atTime);\r\n    event LogMinterRemoval(address minterRemoved, uint atTime);\r\n    event LogDestroyerAddition(address newDestroyer, uint atTime);\r\n    event LogDestroyerRemoval(address destroyerRemoved, uint atTime);\r\n    event LogMinting(address indexed toWhom, uint amountMinted, uint atTime);\r\n    event LogDestruction(address indexed toWhom, uint amountDestroyed, uint atTime);\r\n    event LogEtheraffleChange(address prevController, address newController, uint atTime);\r\n    event LogTransfer(address indexed from, address indexed to, uint value, bytes indexed data);\r\n    /**\r\n     * @dev   Modifier function to prepend to methods rendering them only callable\r\n     *        by the Etheraffle MultiSig wallet.\r\n     */\r\n    modifier onlyEtheraffle() {\r\n        require(msg.sender == etheraffle);\r\n        _;\r\n    }\r\n    /**\r\n     * @dev   Constructor: Sets the meta data & controller for the token.\r\n     *\r\n     * @param _etheraffle   The Etheraffle multisig wallet.\r\n     * @param _amt          Amount to mint on contract creation.\r\n     */\r\n    function EtheraffleFreeLOT(address _etheraffle, uint _amt) {\r\n        name       = \"Etheraffle FreeLOT\";\r\n        symbol     = \"FreeLOT\";\r\n        etheraffle = _etheraffle;\r\n        minters.push(_etheraffle);\r\n        destroyers.push(_etheraffle);\r\n        totalSupply              = _amt;\r\n        balances[_etheraffle]    = _amt;\r\n        isMinter[_etheraffle]    = true;\r\n        isDestroyer[_etheraffle] = true;\r\n    }\r\n    /**\r\n     * ERC223 Standard functions:\r\n     *\r\n     * @dev Transfer the specified amount of FreeLOT to the specified address.\r\n     *      Invokes the tokenFallback function if the recipient is a contract.\r\n     *      The token transfer fails if the recipient is a contract but does not\r\n     *      implement the tokenFallback function.\r\n     *\r\n     * @param _to     Receiver address.\r\n     * @param _value  Amount of FreeLOT to be transferred.\r\n     * @param _data   Transaction metadata.\r\n     */\r\n    function transfer(address _to, uint _value, bytes _data) external {\r\n        uint codeLength;\r\n        assembly {\r\n            codeLength := extcodesize(_to)\r\n        }\r\n        balances[msg.sender] = balances[msg.sender].sub(_value);\r\n        balances[_to]        = balances[_to].add(_value);\r\n        if(codeLength > 0) {\r\n            ERC223 receiver = ERC223(_to);\r\n            receiver.tokenFallback(msg.sender, _value, _data);\r\n        }\r\n        LogTransfer(msg.sender, _to, _value, _data);\r\n    }\r\n    /**\r\n     * @dev     Transfer the specified amount of FreeLOT to the specified address.\r\n     *          Standard function transfer similar to ERC20 transfer with no\r\n     *          _data param. Added due to backwards compatibility reasons.\r\n     *\r\n     * @param _to     Receiver address.\r\n     * @param _value  Amount of FreeLOT to be transferred.\r\n     */\r\n    function transfer(address _to, uint _value) external {\r\n        uint codeLength;\r\n        bytes memory empty;\r\n        assembly {\r\n            codeLength := extcodesize(_to)\r\n        }\r\n        balances[msg.sender] = balances[msg.sender].sub(_value);\r\n        balances[_to]        = balances[_to].add(_value);\r\n        if(codeLength > 0) {\r\n            ERC223 receiver = ERC223(_to);\r\n            receiver.tokenFallback(msg.sender, _value, empty);\r\n        }\r\n        LogTransfer(msg.sender, _to, _value, empty);\r\n    }\r\n    /**\r\n     * @dev     Returns balance of a queried address.\r\n     * @param _owner    The address whose balance will be returned.\r\n     * @return balance  Balance of the of the queried address.\r\n     */\r\n    function balanceOf(address _owner) constant external returns (uint balance) {\r\n        return balances[_owner];\r\n    }\r\n    /**\r\n     * @dev     Allow changing of contract ownership ready for future upgrades/\r\n     *          changes in management structure.\r\n     *\r\n     * @param _new  New owner/controller address.\r\n     */\r\n    function setEtheraffle(address _new) external onlyEtheraffle {\r\n        LogEtheraffleChange(etheraffle, _new, now);\r\n        etheraffle = _new;\r\n    }\r\n    /**\r\n     * @dev     Allow addition of minters to allow future contracts to\r\n     *          use the role.\r\n     *\r\n     * @param _new  New minter address.\r\n     */\r\n    function addMinter(address _new) external onlyEtheraffle {\r\n        minters.push(_new);\r\n        isMinter[_new] = true;\r\n        LogMinterAddition(_new, now);\r\n    }\r\n    /**\r\n     * @dev     Remove a minter should they no longer require or need the\r\n     *          the privilege.\r\n     *\r\n     * @param _minter    The desired address to be removed.\r\n     */\r\n    function removeMinter(address _minter) external onlyEtheraffle {\r\n        require(isMinter[_minter]);\r\n        isMinter[_minter] = false;\r\n        for(uint i = 0; i < minters.length - 1; i++)\r\n            if(minters[i] == _minter) {\r\n                minters[i] = minters[minters.length - 1];\r\n                break;\r\n            }\r\n        minters.length--;\r\n        LogMinterRemoval(_minter, now);\r\n    }\r\n    /**\r\n     * @dev     Allow addition of a destroyer to allow future contracts to\r\n     *          use the role.\r\n     *\r\n     * @param _new  New destroyer address.\r\n     */\r\n    function addDestroyer(address _new) external onlyEtheraffle {\r\n        destroyers.push(_new);\r\n        isDestroyer[_new] = true;\r\n        LogDestroyerAddition(_new, now);\r\n    }\r\n    /**\r\n     * @dev     Remove a destroyer should they no longer require or need the\r\n     *          the privilege.\r\n     *\r\n     * @param _destroyer    The desired address to be removed.\r\n     */\r\n    function removeDestroyer(address _destroyer) external onlyEtheraffle {\r\n        require(isDestroyer[_destroyer]);\r\n        isDestroyer[_destroyer] = false;\r\n        for(uint i = 0; i < destroyers.length - 1; i++)\r\n            if(destroyers[i] == _destroyer) {\r\n                destroyers[i] = destroyers[destroyers.length - 1];\r\n                break;\r\n            }\r\n        destroyers.length--;\r\n        LogDestroyerRemoval(_destroyer, now);\r\n    }\r\n    /**\r\n     * @dev    This function mints tokens by adding tokens to the total supply\r\n     *         and assigning them to the given address.\r\n     *\r\n     * @param _to      The address recipient of the minted tokens.\r\n     * @param _amt     The amount of tokens to mint & assign.\r\n     */\r\n    function mint(address _to, uint _amt) external {\r\n        require(isMinter[msg.sender]);\r\n        totalSupply   = totalSupply.add(_amt);\r\n        balances[_to] = balances[_to].add(_amt);\r\n        LogMinting(_to, _amt, now);\r\n    }\r\n    /**\r\n     * @dev    This function destroys tokens by subtracting them from the total\r\n     *         supply and removing them from the given address. Increments the\r\n     *         redeemed variable to track the number of \"used\" tokens. Only\r\n     *         callable by the Etheraffle multisig or a designated destroyer.\r\n     *\r\n     * @param _from    The address from whom the token is destroyed.\r\n     * @param _amt     The amount of tokens to destroy.\r\n     */\r\n    function destroy(address _from, uint _amt) external {\r\n        require(isDestroyer[msg.sender]);\r\n        totalSupply     = totalSupply.sub(_amt);\r\n        balances[_from] = balances[_from].sub(_amt);\r\n        redeemed++;\r\n        LogDestruction(_from, _amt, now);\r\n    }\r\n    /**\r\n     * @dev   Housekeeping- called in the event this contract is no\r\n     *        longer needed. Deletes the code from the blockchain.\r\n     *        Only callable by the Etheraffle address.\r\n     */\r\n    function selfDestruct() external onlyEtheraffle {\r\n        selfdestruct(etheraffle);\r\n    }\r\n    /**\r\n     * @dev   Fallback in case of accidental ether transfer\r\n     */\r\n    function () external payable {\r\n        revert();\r\n    }\r\n}\r\n",
  "sourcePath": "c:\\Users\\Greg\\Desktop\\ER\\solidity\\contracts\\etheraffleFreeLOT.sol",
  "compiler": {
    "name": "solc",
    "version": "0.4.24+commit.e67f0147.Emscripten.clang"
  },
  "schemaVersion": "2.0.0",
  "updatedAt": "2018-06-07T13:18:25.784Z"
}