{
  "contractName": "EtherReceiverStub",
  "abi": [
    {
      "constant": true,
      "inputs": [],
      "name": "etheraffle",
      "outputs": [
        {
          "name": "",
          "type": "address"
        }
      ],
      "payable": false,
      "stateMutability": "view",
      "type": "function"
    },
    {
      "inputs": [
        {
          "name": "_etheraffle",
          "type": "address"
        }
      ],
      "payable": false,
      "stateMutability": "nonpayable",
      "type": "constructor"
    },
    {
      "anonymous": false,
      "inputs": [
        {
          "indexed": false,
          "name": "fromWhere",
          "type": "address"
        },
        {
          "indexed": false,
          "name": "howMuch",
          "type": "uint256"
        },
        {
          "indexed": false,
          "name": "atTime",
          "type": "uint256"
        }
      ],
      "name": "LogEtherReceived",
      "type": "event"
    },
    {
      "constant": false,
      "inputs": [],
      "name": "receiveEther",
      "outputs": [],
      "payable": true,
      "stateMutability": "payable",
      "type": "function"
    },
    {
      "constant": false,
      "inputs": [
        {
          "name": "_addr",
          "type": "address"
        }
      ],
      "name": "selfDestruct",
      "outputs": [],
      "payable": false,
      "stateMutability": "nonpayable",
      "type": "function"
    }
  ],
  "bytecode": "0x608060405234801561001057600080fd5b506040516020806102bd83398101806040528101908080519060200190929190505050806000806101000a81548173ffffffffffffffffffffffffffffffffffffffff021916908373ffffffffffffffffffffffffffffffffffffffff1602179055505061023a806100836000396000f300608060405260043610610057576000357c0100000000000000000000000000000000000000000000000000000000900463ffffffff1680633f5a0bdd1461005c5780638ca177551461009f578063a3912ec8146100f6575b600080fd5b34801561006857600080fd5b5061009d600480360381019080803573ffffffffffffffffffffffffffffffffffffffff169060200190929190505050610100565b005b3480156100ab57600080fd5b506100b4610174565b604051808273ffffffffffffffffffffffffffffffffffffffff1673ffffffffffffffffffffffffffffffffffffffff16815260200191505060405180910390f35b6100fe610199565b005b6000809054906101000a900473ffffffffffffffffffffffffffffffffffffffff1673ffffffffffffffffffffffffffffffffffffffff163373ffffffffffffffffffffffffffffffffffffffff1614151561015b57600080fd5b8073ffffffffffffffffffffffffffffffffffffffff16ff5b6000809054906101000a900473ffffffffffffffffffffffffffffffffffffffff1681565b7f606bd383d36fb6a21cc52432fedf43ae990ef5625eb266d0ddf50cc9cc114c7a333442604051808473ffffffffffffffffffffffffffffffffffffffff1673ffffffffffffffffffffffffffffffffffffffff168152602001838152602001828152602001935050505060405180910390a15600a165627a7a723058202994f46d69221a2fd8131c6892b7a3fbdcab68e1c6b7652135c0ea3dcc9cbc0b0029",
  "source": "pragma solidity^0.4.24;\r\n\r\ncontract EtherReceiverStub {\r\n    \r\n    address public etheraffle;\r\n\r\n    event LogEtherReceived(address fromWhere, uint howMuch, uint atTime);\r\n    /**\r\n     * @notice  Sets the etheraffle var to the Etheraffle mangerial\r\n     *          multisig account.\r\n     *\r\n     * @param   _etheraffle   The Etheraffle multisig account\r\n     *\r\n     */\r\n    constructor(address _etheraffle) {\r\n        etheraffle = _etheraffle;\r\n    }\r\n    /**\r\n     * @notice  Standard receive ether function. Fires event\r\n     *          announcing arrivale of ETH.\r\n     *\r\n     */\r\n    function receiveEther() payable external {\r\n        emit LogEtherReceived(msg.sender, msg.value, now);\r\n    }\r\n    /**\r\n     * @notice  Deletes contract data and moves any funds to given\r\n     *          address.\r\n     *\r\n     * @param   _addr   The destination address for any ether herein.\r\n     *\r\n     */\r\n    function selfDestruct(address _addr) external {\r\n        require(msg.sender == etheraffle);\r\n        selfdestruct(_addr);\r\n    }\r\n\r\n}",
  "sourcePath": "C:\\Users\\Greg\\Desktop\\ER\\solidity\\contracts\\etherReceiverStub.sol",
  "compiler": {
    "name": "solc",
    "version": "0.4.24+commit.e67f0147.Emscripten.clang"
  },
  "schemaVersion": "2.0.0",
  "updatedAt": "2018-06-07T20:47:11.587Z"
}