{
  "contractName": "EthRelief",
  "abi": [
    {
      "constant": true,
      "inputs": [],
      "name": "etheraffle",
      "outputs": [
        {
          "name": "",
          "type": "address"
        }
      ],
      "payable": false,
      "stateMutability": "view",
      "type": "function"
    },
    {
      "constant": true,
      "inputs": [],
      "name": "upgraded",
      "outputs": [
        {
          "name": "",
          "type": "bool"
        }
      ],
      "payable": false,
      "stateMutability": "view",
      "type": "function"
    },
    {
      "inputs": [
        {
          "name": "_etheraffle",
          "type": "address"
        }
      ],
      "payable": false,
      "stateMutability": "nonpayable",
      "type": "constructor"
    },
    {
      "payable": true,
      "stateMutability": "payable",
      "type": "fallback"
    },
    {
      "anonymous": false,
      "inputs": [
        {
          "indexed": false,
          "name": "fromWhere",
          "type": "address"
        },
        {
          "indexed": false,
          "name": "howMuch",
          "type": "uint256"
        },
        {
          "indexed": false,
          "name": "atTime",
          "type": "uint256"
        }
      ],
      "name": "LogEtherReceived",
      "type": "event"
    },
    {
      "anonymous": false,
      "inputs": [
        {
          "indexed": false,
          "name": "toWhere",
          "type": "address"
        },
        {
          "indexed": false,
          "name": "amountTransferred",
          "type": "uint256"
        },
        {
          "indexed": false,
          "name": "atTime",
          "type": "uint256"
        }
      ],
      "name": "LogUpgrade",
      "type": "event"
    },
    {
      "constant": false,
      "inputs": [
        {
          "name": "_addr",
          "type": "address"
        }
      ],
      "name": "upgrade",
      "outputs": [],
      "payable": false,
      "stateMutability": "nonpayable",
      "type": "function"
    },
    {
      "constant": false,
      "inputs": [],
      "name": "receiveEther",
      "outputs": [],
      "payable": true,
      "stateMutability": "payable",
      "type": "function"
    },
    {
      "constant": false,
      "inputs": [
        {
          "name": "_newAddr",
          "type": "address"
        }
      ],
      "name": "setEtheraffle",
      "outputs": [],
      "payable": false,
      "stateMutability": "nonpayable",
      "type": "function"
    },
    {
      "constant": false,
      "inputs": [
        {
          "name": "_addr",
          "type": "address"
        }
      ],
      "name": "selfDestruct",
      "outputs": [],
      "payable": false,
      "stateMutability": "nonpayable",
      "type": "function"
    }
  ],
  "bytecode": "0x608060405234801561001057600080fd5b506040516020806105f68339810180604052810190808051906020019092919050505080600060016101000a81548173ffffffffffffffffffffffffffffffffffffffff021916908373ffffffffffffffffffffffffffffffffffffffff16021790555050610572806100846000396000f300608060405260043610610078576000357c0100000000000000000000000000000000000000000000000000000000900463ffffffff1680630900f0101461007a5780633f5a0bdd146100bd57806379cb5a2f146101005780638ca1775514610143578063a3912ec81461019a578063c28de2cd146101a4575b005b34801561008657600080fd5b506100bb600480360381019080803573ffffffffffffffffffffffffffffffffffffffff1690602001909291905050506101d3565b005b3480156100c957600080fd5b506100fe600480360381019080803573ffffffffffffffffffffffffffffffffffffffff16906020019092919050505061036a565b005b34801561010c57600080fd5b50610141600480360381019080803573ffffffffffffffffffffffffffffffffffffffff1690602001909291905050506103f9565b005b34801561014f57600080fd5b50610158610499565b604051808273ffffffffffffffffffffffffffffffffffffffff1673ffffffffffffffffffffffffffffffffffffffff16815260200191505060405180910390f35b6101a26104bf565b005b3480156101b057600080fd5b506101b9610534565b604051808215151515815260200191505060405180910390f35b600060019054906101000a900473ffffffffffffffffffffffffffffffffffffffff1673ffffffffffffffffffffffffffffffffffffffff163373ffffffffffffffffffffffffffffffffffffffff1614151561022f57600080fd5b60016000806101000a81548160ff0219169083151502179055507faab9bba4fcd15de155f5c12ace41cb1b506009169b2ca88c26fa17282a6a2866813073ffffffffffffffffffffffffffffffffffffffff163142604051808473ffffffffffffffffffffffffffffffffffffffff1673ffffffffffffffffffffffffffffffffffffffff168152602001838152602001828152602001935050505060405180910390a18073ffffffffffffffffffffffffffffffffffffffff1663a3912ec83073ffffffffffffffffffffffffffffffffffffffff16316040518263ffffffff167c01000000000000000000000000000000000000000000000000000000000281526004016000604051808303818588803b15801561034e57600080fd5b505af1158015610362573d6000803e3d6000fd5b505050505050565b600060019054906101000a900473ffffffffffffffffffffffffffffffffffffffff1673ffffffffffffffffffffffffffffffffffffffff163373ffffffffffffffffffffffffffffffffffffffff161415156103c657600080fd5b6000809054906101000a900460ff1615156103e057600080fd5b8073ffffffffffffffffffffffffffffffffffffffff16ff5b600060019054906101000a900473ffffffffffffffffffffffffffffffffffffffff1673ffffffffffffffffffffffffffffffffffffffff163373ffffffffffffffffffffffffffffffffffffffff1614151561045557600080fd5b80600060016101000a81548173ffffffffffffffffffffffffffffffffffffffff021916908373ffffffffffffffffffffffffffffffffffffffff16021790555050565b600060019054906101000a900473ffffffffffffffffffffffffffffffffffffffff1681565b7f606bd383d36fb6a21cc52432fedf43ae990ef5625eb266d0ddf50cc9cc114c7a333442604051808473ffffffffffffffffffffffffffffffffffffffff1673ffffffffffffffffffffffffffffffffffffffff168152602001838152602001828152602001935050505060405180910390a1565b6000809054906101000a900460ff16815600a165627a7a7230582041399d6ab1c11fbbdeac22e5b72f2c5dc3e6d827540462ebf5d8b81a2c55121e0029",
  "source": "/*\r\n *      ##########################################\r\n *      ##########################################\r\n *      ###                                    ###\r\n *      ###          ğğ¥ğšğ² & ğ–ğ¢ğ§ ğ„ğ­ğ¡ğğ«          ###\r\n *      ###                 at                 ###\r\n *      ###          ğ„ğ“ğ‡ğ„ğ‘ğ€ğ…ğ…ğ‹ğ„.ğ‚ğğŒ          ###\r\n *      ###                                    ###\r\n *      ##########################################\r\n *      ##########################################\r\n *\r\n *      Welcome to the temporary ğ„ğ­ğ¡ğ‘ğğ¥ğ¢ğğŸ contract. It's just\r\n *      a place-holder for now, with little functionality other \r\n *      than being forward compatible with the first version of \r\n *      the ğ„ğ­ğ¡ğ‘ğğ¥ğ¢ğğŸ contract in current development. \r\n *\r\n *      This contract acts as a temporary store for the ether \r\n *      raised each week from the ticket sales of ğ„ğ­ğ¡ğğ«ğšğŸğŸğ¥ğ, \r\n *      for the future funding of the charitable arm of the \r\n *      enterprise. It is the nascent beginnings of a blockchain \r\n *      portal for donations to good causes worldwide, driven by a \r\n *      decentralized cadre of ğ‹ğğ“ token holders, forming part\r\n *      of a ğƒğ€ğ who both own and run ğ„ğ­ğ¡ğğ«ğšğŸğŸğ¥ğ & ğ„ğ­ğ¡ğ‘ğğ¥ğ¢ğğŸ.\r\n * \r\n *\r\n *                  ğ„ğ±ğœğ¢ğ­ğ¢ğ§ğ  ğ­ğ¢ğ¦ğğ¬ - ğ¬ğ­ğšğ² ğ­ğ®ğ§ğğ!\r\n *\r\n *\r\n *      Learn more and take part at ğ¡ğ­ğ­ğ©ğ¬://ğğ­ğ¡ğğ«ğšğŸğŸğ¥ğ.ğœğ¨ğ¦/ğ¢ğœğ¨\r\n *      If you want to chat to us you have loads of options:\r\n *      On ğ“ğğ¥ğğ ğ«ğšğ¦ @ ğ¡ğ­ğ­ğ©ğ¬://ğ­.ğ¦ğ/ğğ­ğ¡ğğ«ğšğŸğŸğ¥ğ\r\n *      Or on ğ“ğ°ğ¢ğ­ğ­ğğ« @ ğ¡ğ­ğ­ğ©ğ¬://ğ­ğ°ğ¢ğ­ğ­ğğ«.ğœğ¨ğ¦/ğğ­ğ¡ğğ«ğšğŸğŸğ¥ğ\r\n *      Or on ğ‘ğğğğ¢ğ­ @ ğ¡ğ­ğ­ğ©ğ¬://ğğ­ğ¡ğğ«ğšğŸğŸğ¥ğ.ğ«ğğğğ¢ğ­.ğœğ¨ğ¦\r\n *\r\n *\r\n *\r\n *                                  ğ„ğ­ğ¡ğ‘ğğ¥ğ¢ğğŸ  \r\n *      Building the largest source of decentralized altruism in the world!\r\n *\r\n *\r\n */\r\npragma solidity^0.4.21;\r\n\r\ncontract ReceiverInterface {\r\n    function receiveEther() external payable {}\r\n}\r\n\r\ncontract EthRelief {\r\n\r\n    bool    public upgraded;\r\n    address public etheraffle;\r\n    /**\r\n     * @dev  Modifier to prepend to functions rendering them\r\n     *       only callable by the Etheraffle multisig address.\r\n     */\r\n    modifier onlyEtheraffle() {\r\n        require(msg.sender == etheraffle);\r\n        _;\r\n    }\r\n    event LogEtherReceived(address fromWhere, uint howMuch, uint atTime);\r\n    event LogUpgrade(address toWhere, uint amountTransferred, uint atTime);\r\n    /**\r\n     * @dev   Constructor - sets the etheraffle var to the Etheraffle\r\n     *        managerial multisig account.\r\n     *\r\n     * @param _etheraffle   The Etheraffle multisig account.\r\n     */\r\n    function EthRelief(address _etheraffle) {\r\n        etheraffle = _etheraffle;\r\n    }\r\n    /**\r\n     * @dev   Upgrade function transferring all this contract's ether\r\n     *        via the standard receive ether function in the proposed\r\n     *        new disbursal contract.\r\n     *\r\n     * @param _addr    The new disbursal contract address.\r\n     */\r\n    function upgrade(address _addr) onlyEtheraffle external {\r\n        upgraded = true;\r\n        emit LogUpgrade(_addr, this.balance, now);\r\n        ReceiverInterface(_addr).receiveEther.value(this.balance)();\r\n    }\r\n    /**\r\n     * @dev   Standard receive ether function, forward-compatible\r\n     *        with proposed future disbursal contract.\r\n     */\r\n    function receiveEther() payable external {\r\n        emit LogEtherReceived(msg.sender, msg.value, now);\r\n    }\r\n    /**\r\n     * @dev   Set the Etheraffle multisig contract address, in case of future\r\n     *        upgrades. Only callable by the current Etheraffle address.\r\n     *\r\n     * @param _newAddr   New address of Etheraffle multisig contract.\r\n     */\r\n    function setEtheraffle(address _newAddr) onlyEtheraffle external {\r\n        etheraffle = _newAddr;\r\n    }\r\n    /**\r\n     * @dev   selfDestruct - used here to delete this placeholder contract\r\n     *        and forward any funds sent to it on to the final EthRelief\r\n     *        contract once it is fully developed. Only callable by the\r\n     *        Etheraffle multisig.\r\n     *\r\n     * @param _addr   The destination address for any ether herein.\r\n     */\r\n    function selfDestruct(address _addr) onlyEtheraffle {\r\n        require(upgraded);\r\n        selfdestruct(_addr);\r\n    }\r\n    /**\r\n     * @dev   Fallback function that accepts ether and announces it's\r\n     *        arrival via an event.\r\n     */\r\n    function () payable external {\r\n    }\r\n}\r\n",
  "sourcePath": "c:\\Users\\Greg\\Desktop\\ER\\solidity\\contracts\\ethRelief.sol",
  "compiler": {
    "name": "solc",
    "version": "0.4.24+commit.e67f0147.Emscripten.clang"
  },
  "schemaVersion": "2.0.0",
  "updatedAt": "2018-06-07T13:18:25.699Z"
}