{
  "contractName": "EthRelief",
  "abi": [
    {
      "inputs": [
        {
          "name": "_etheraffle",
          "type": "address"
        }
      ],
      "payable": false,
      "stateMutability": "nonpayable",
      "type": "constructor"
    },
    {
      "payable": true,
      "stateMutability": "payable",
      "type": "fallback"
    },
    {
      "anonymous": false,
      "inputs": [
        {
          "indexed": false,
          "name": "fromWhere",
          "type": "address"
        },
        {
          "indexed": false,
          "name": "howMuch",
          "type": "uint256"
        },
        {
          "indexed": false,
          "name": "atTime",
          "type": "uint256"
        }
      ],
      "name": "LogEtherReceived",
      "type": "event"
    },
    {
      "anonymous": false,
      "inputs": [
        {
          "indexed": false,
          "name": "toWhere",
          "type": "address"
        },
        {
          "indexed": false,
          "name": "amountTransferred",
          "type": "uint256"
        },
        {
          "indexed": false,
          "name": "atTime",
          "type": "uint256"
        }
      ],
      "name": "LogUpgrade",
      "type": "event"
    },
    {
      "constant": false,
      "inputs": [
        {
          "name": "_addr",
          "type": "address"
        }
      ],
      "name": "upgrade",
      "outputs": [],
      "payable": false,
      "stateMutability": "nonpayable",
      "type": "function"
    },
    {
      "constant": false,
      "inputs": [],
      "name": "receiveEther",
      "outputs": [],
      "payable": true,
      "stateMutability": "payable",
      "type": "function"
    },
    {
      "constant": false,
      "inputs": [
        {
          "name": "_newAddr",
          "type": "address"
        }
      ],
      "name": "setEtheraffle",
      "outputs": [],
      "payable": false,
      "stateMutability": "nonpayable",
      "type": "function"
    },
    {
      "constant": false,
      "inputs": [
        {
          "name": "_addr",
          "type": "address"
        }
      ],
      "name": "selfDestruct",
      "outputs": [],
      "payable": false,
      "stateMutability": "nonpayable",
      "type": "function"
    }
  ],
  "bytecode": "0x608060405234801561001057600080fd5b506040516020806105228339810180604052810190808051906020019092919050505080600060016101000a81548173ffffffffffffffffffffffffffffffffffffffff021916908373ffffffffffffffffffffffffffffffffffffffff1602179055505061049e806100846000396000f300608060405260043610610062576000357c0100000000000000000000000000000000000000000000000000000000900463ffffffff1680630900f010146100645780633f5a0bdd146100a757806379cb5a2f146100ea578063a3912ec81461012d575b005b34801561007057600080fd5b506100a5600480360381019080803573ffffffffffffffffffffffffffffffffffffffff169060200190929190505050610137565b005b3480156100b357600080fd5b506100e8600480360381019080803573ffffffffffffffffffffffffffffffffffffffff1690602001909291905050506102ce565b005b3480156100f657600080fd5b5061012b600480360381019080803573ffffffffffffffffffffffffffffffffffffffff16906020019092919050505061035d565b005b6101356103fd565b005b600060019054906101000a900473ffffffffffffffffffffffffffffffffffffffff1673ffffffffffffffffffffffffffffffffffffffff163373ffffffffffffffffffffffffffffffffffffffff1614151561019357600080fd5b60016000806101000a81548160ff0219169083151502179055507faab9bba4fcd15de155f5c12ace41cb1b506009169b2ca88c26fa17282a6a2866813073ffffffffffffffffffffffffffffffffffffffff163142604051808473ffffffffffffffffffffffffffffffffffffffff1673ffffffffffffffffffffffffffffffffffffffff168152602001838152602001828152602001935050505060405180910390a18073ffffffffffffffffffffffffffffffffffffffff1663a3912ec83073ffffffffffffffffffffffffffffffffffffffff16316040518263ffffffff167c01000000000000000000000000000000000000000000000000000000000281526004016000604051808303818588803b1580156102b257600080fd5b505af11580156102c6573d6000803e3d6000fd5b505050505050565b600060019054906101000a900473ffffffffffffffffffffffffffffffffffffffff1673ffffffffffffffffffffffffffffffffffffffff163373ffffffffffffffffffffffffffffffffffffffff1614151561032a57600080fd5b6000809054906101000a900460ff16151561034457600080fd5b8073ffffffffffffffffffffffffffffffffffffffff16ff5b600060019054906101000a900473ffffffffffffffffffffffffffffffffffffffff1673ffffffffffffffffffffffffffffffffffffffff163373ffffffffffffffffffffffffffffffffffffffff161415156103b957600080fd5b80600060016101000a81548173ffffffffffffffffffffffffffffffffffffffff021916908373ffffffffffffffffffffffffffffffffffffffff16021790555050565b7f606bd383d36fb6a21cc52432fedf43ae990ef5625eb266d0ddf50cc9cc114c7a333442604051808473ffffffffffffffffffffffffffffffffffffffff1673ffffffffffffffffffffffffffffffffffffffff168152602001838152602001828152602001935050505060405180910390a15600a165627a7a72305820bb7f6a174bec47467019240ca6d0f3874d7e518f270d43664710aa65abcaa21a0029",
  "source": "/*\r\n *      ##########################################\r\n *      ##########################################\r\n *      ###                                    ###\r\n *      ###          ğğ¥ğšğ² & ğ–ğ¢ğ§ ğ„ğ­ğ¡ğğ«          ###\r\n *      ###                 at                 ###\r\n *      ###          ğ„ğ“ğ‡ğ„ğ‘ğ€ğ…ğ…ğ‹ğ„.ğ‚ğğŒ          ###\r\n *      ###                                    ###\r\n *      ##########################################\r\n *      ##########################################\r\n *\r\n *      Welcome to the temporary ğ„ğ­ğ¡ğ‘ğğ¥ğ¢ğğŸ contract. It's just\r\n *      a place-holder for now, with little functionality other \r\n *      than being forward compatible with the first version of \r\n *      the ğ„ğ­ğ¡ğ‘ğğ¥ğ¢ğğŸ contract in current development. \r\n *\r\n *      This contract acts as a temporary store for the ether \r\n *      raised each week from the ticket sales of ğ„ğ­ğ¡ğğ«ğšğŸğŸğ¥ğ, \r\n *      for the future funding of the charitable arm of the \r\n *      enterprise. It is the nascent beginnings of a blockchain \r\n *      portal for donations to good causes worldwide, driven by a \r\n *      decentralized cadre of ğ‹ğğ“ token holders, forming part\r\n *      of a ğƒğ€ğ who both own and run ğ„ğ­ğ¡ğğ«ğšğŸğŸğ¥ğ & ğ„ğ­ğ¡ğ‘ğğ¥ğ¢ğğŸ.\r\n * \r\n *\r\n *                  ğ„ğ±ğœğ¢ğ­ğ¢ğ§ğ  ğ­ğ¢ğ¦ğğ¬ - ğ¬ğ­ğšğ² ğ­ğ®ğ§ğğ!\r\n *\r\n *\r\n *      Learn more and take part at ğ¡ğ­ğ­ğ©ğ¬://ğğ­ğ¡ğğ«ğšğŸğŸğ¥ğ.ğœğ¨ğ¦/ğ¢ğœğ¨\r\n *      If you want to chat to us you have loads of options:\r\n *      On ğ“ğğ¥ğğ ğ«ğšğ¦ @ ğ¡ğ­ğ­ğ©ğ¬://ğ­.ğ¦ğ/ğğ­ğ¡ğğ«ğšğŸğŸğ¥ğ\r\n *      Or on ğ“ğ°ğ¢ğ­ğ­ğğ« @ ğ¡ğ­ğ­ğ©ğ¬://ğ­ğ°ğ¢ğ­ğ­ğğ«.ğœğ¨ğ¦/ğğ­ğ¡ğğ«ğšğŸğŸğ¥ğ\r\n *      Or on ğ‘ğğğğ¢ğ­ @ ğ¡ğ­ğ­ğ©ğ¬://ğğ­ğ¡ğğ«ğšğŸğŸğ¥ğ.ğ«ğğğğ¢ğ­.ğœğ¨ğ¦\r\n *\r\n *\r\n *\r\n *                                  ğ„ğ­ğ¡ğ‘ğğ¥ğ¢ğğŸ  \r\n *      Building the largest source of decentralized altruism in the world!\r\n *\r\n *\r\n */\r\npragma solidity^0.4.21;\r\n\r\ncontract ReceiverInterface {\r\n    function receiveEther() external payable {}\r\n}\r\n\r\ncontract EthRelief {\r\n\r\n    bool    upgraded;\r\n    address etheraffle;\r\n    /**\r\n     * @dev  Modifier to prepend to functions rendering them\r\n     *       only callable by the Etheraffle multisig address.\r\n     */\r\n    modifier onlyEtheraffle() {\r\n        require(msg.sender == etheraffle);\r\n        _;\r\n    }\r\n    event LogEtherReceived(address fromWhere, uint howMuch, uint atTime);\r\n    event LogUpgrade(address toWhere, uint amountTransferred, uint atTime);\r\n    /**\r\n     * @dev   Constructor - sets the etheraffle var to the Etheraffle\r\n     *        managerial multisig account.\r\n     *\r\n     * @param _etheraffle   The Etheraffle multisig account.\r\n     */\r\n    function EthRelief(address _etheraffle) {\r\n        etheraffle = _etheraffle;\r\n    }\r\n    /**\r\n     * @dev   Upgrade function transferring all this contract's ether\r\n     *        via the standard receive ether function in the proposed\r\n     *        new disbursal contract.\r\n     *\r\n     * @param _addr    The new disbursal contract address.\r\n     */\r\n    function upgrade(address _addr) onlyEtheraffle external {\r\n        upgraded = true;\r\n        emit LogUpgrade(_addr, this.balance, now);\r\n        ReceiverInterface(_addr).receiveEther.value(this.balance)();\r\n    }\r\n    /**\r\n     * @dev   Standard receive ether function, forward-compatible\r\n     *        with proposed future disbursal contract.\r\n     */\r\n    function receiveEther() payable external {\r\n        emit LogEtherReceived(msg.sender, msg.value, now);\r\n    }\r\n    /**\r\n     * @dev   Set the Etheraffle multisig contract address, in case of future\r\n     *        upgrades. Only callable by the current Etheraffle address.\r\n     *\r\n     * @param _newAddr   New address of Etheraffle multisig contract.\r\n     */\r\n    function setEtheraffle(address _newAddr) onlyEtheraffle external {\r\n        etheraffle = _newAddr;\r\n    }\r\n    /**\r\n     * @dev   selfDestruct - used here to delete this placeholder contract\r\n     *        and forward any funds sent to it on to the final EthRelief\r\n     *        contract once it is fully developed. Only callable by the\r\n     *        Etheraffle multisig.\r\n     *\r\n     * @param _addr   The destination address for any ether herein.\r\n     */\r\n    function selfDestruct(address _addr) onlyEtheraffle {\r\n        require(upgraded);\r\n        selfdestruct(_addr);\r\n    }\r\n    /**\r\n     * @dev   Fallback function that accepts ether and announces it's\r\n     *        arrival via an event.\r\n     */\r\n    function () payable external {\r\n    }\r\n}\r\n",
  "sourcePath": "C:\\Users\\Greg\\Desktop\\ER\\solidity\\contracts\\ethRelief.sol",
  "compiler": {
    "name": "solc",
    "version": "0.4.24+commit.e67f0147.Emscripten.clang"
  },
  "schemaVersion": "2.0.0",
  "updatedAt": "2018-06-06T22:02:16.999Z"
}