{
  "contractName": "ReceiverInterface",
  "abi": [
    {
      "constant": false,
      "inputs": [],
      "name": "receiveEther",
      "outputs": [],
      "payable": true,
      "stateMutability": "payable",
      "type": "function"
    }
  ],
  "bytecode": "0x6080604052348015600f57600080fd5b5060798061001e6000396000f300608060405260043610603e5763ffffffff7c0100000000000000000000000000000000000000000000000000000000600035041663a3912ec881146043575b600080fd5b6049604b565b005b5600a165627a7a72305820daba37b4791003ab5236e86be6e3d330483b156566eebbe12904c569480218370029",
  "source": "/**\r\n * NOTE: This v2 currently in testing phase, see deprecated for current main-chain version. It's also more method call-y than v1, and so slightly more expensive in gas (for turnovers, not the end user!) but MUCH more readable/maintainable.\r\n */\r\n/**\r\n *      Welcome to the ğ„ğ­ğ¡ğğ«ğšğŸğŸğ¥ğ Smart-Contract!\r\n *      The ğğğ‹ğ˜ decentralized, charitable blockchain lottery!\r\n *      \r\n *      ##########################################\r\n *      ##########################################\r\n *      ###                                    ###\r\n *      ###          ğğ¥ğšğ² & ğ–ğ¢ğ§ ğ„ğ­ğ¡ğğ«          ###\r\n *      ###                 at                 ###\r\n *      ###          ğ„ğ“ğ‡ğ„ğ‘ğ€ğ…ğ…ğ‹ğ„.ğ‚ğğŒ          ###\r\n *      ###                                    ###\r\n *      ##########################################\r\n *      ##########################################\r\n *\r\n *      Etheraffle is designed to give ğ¡ğ®ğ ğ ğ©ğ«ğ¢ğ³ğğ¬ to \r\n *      players, sustainable ğ„ğ“ğ‡ ğğ¢ğ¯ğ¢ğğğ§ğğ¬ to ğ‹ğğ“ token \r\n *      holders, and ğ¥ğ¢ğŸğ-ğœğ¡ğšğ§ğ ğ¢ğ§ğ  ğŸğ®ğ§ğğ¢ğ§ğ  to charities.\r\n *\r\n *      Learn more & get involved at ğğ­ğ¡ğğ«ğšğŸğŸğ¥ğ.ğœğ¨ğ¦/ğˆğ‚ğ to become a\r\n *      ğ‹ğğ“ token holder today! Holding ğ‹ğğ“ tokens automatically  \r\n *      makes you a part of the decentralized, autonomous organisation  \r\n *      that ğğ–ğğ’ Etheraffle. Take your place in this decentralized, \r\n *      altruistic vision of the future!\r\n *\r\n *      If you want to chat to us you have loads of options:\r\n *      On ğ“ğğ¥ğğ ğ«ğšğ¦ @ ğ¡ğ­ğ­ğ©ğ¬://ğ­.ğ¦ğ/ğğ­ğ¡ğğ«ğšğŸğŸğ¥ğ\r\n *      Or on ğ“ğ°ğ¢ğ­ğ­ğğ« @ ğ¡ğ­ğ­ğ©ğ¬://ğ­ğ°ğ¢ğ­ğ­ğğ«.ğœğ¨ğ¦/ğğ­ğ¡ğğ«ğšğŸğŸğ¥ğ\r\n *      Or on ğ‘ğğğğ¢ğ­ @ ğ¡ğ­ğ­ğ©ğ¬://ğğ­ğ¡ğğ«ğšğŸğŸğ¥ğ.ğ«ğğğğ¢ğ­.ğœğ¨ğ¦\r\n *\r\n */\r\npragma solidity^0.4.20;\r\n\r\n// import \"github.com/oraclize/ethereum-api/oraclizeAPI.sol\"; // Truffle uses the actual sol files\r\n// import \"github.com/Arachnid/solidity-stringutils/src/strings.sol\"; // Truffle uses the actual sol files\r\nimport \"./strings.sol\";\r\nimport \"installed_contracts/oraclize-api/contracts/usingOraclize.sol\";\r\n\r\ncontract ReceiverInterface {\r\n    function receiveEther() external payable {}\r\n}\r\n\r\ncontract EtheraffleUpgrade {\r\n    function manuallyAddToPrizePool() payable external {}\r\n}\r\n\r\ncontract FreeLOTInterface {\r\n    function mint(address _to, uint _amt) external {}\r\n    function destroy(address _from, uint _amt) external {}\r\n    function balanceOf(address who) constant public returns (uint) {}\r\n}\r\n\r\ncontract Etheraffle is usingOraclize {\r\n    using strings for *;\r\n    /**\r\n     * @title   Etheraffle\r\n     * @author  Greg Kapka (github.com/gskapka)\r\n     *\r\n     *      ##########################################\r\n     *      ###                                    ###\r\n     *      ###             Variables              ###\r\n     *      ###                                    ###\r\n     *      ##########################################\r\n     *\r\n     */\r\n    uint    public week;\r\n    bool    public paused;\r\n    uint    public upgraded;\r\n    uint    public prizePool;\r\n    address public ethRelief;\r\n    address public etheraffle;\r\n    address public upgradeAddr;\r\n    address public disburseAddr;\r\n    uint    public take         = 150; // ppt\r\n    uint    public gasAmt       = 500000;\r\n    uint    public resultsDelay = 3600;\r\n    uint    public matchesDelay = 3600;\r\n    uint    public rafEnd       = 500400; // 7:00pm Saturdays\r\n    uint    public wdrawBfr     = 6048000;\r\n    uint    public gasPrc       = 20000000000; // 20 gwei\r\n    uint    public tktPrice     = 2500000000000000;\r\n    uint    public oracCost     = 1500000000000000; // $1 @ $700\r\n    uint[]  public pctOfPool    = [520, 114, 47, 319]; // ppt...\r\n    uint[]  public odds         = [56, 1032, 54200, 13983816]; // Rounded down to nearest whole \r\n    uint  constant WEEKDUR      = 604800;\r\n    uint  constant BIRTHDAY     = 1500249600;//Etheraffle's birthday <3\r\n    // TODO: Can set strings after the fact to make deploy cheaper?\r\n    string public randomStr1 = \"[URL] ['json(https://api.random.org/json-rpc/1/invoke).result.random[\\\"data\\\", \\\"serialNumber\\\"]','\\\\n{\\\"jsonrpc\\\": \\\"2.0\\\",\\\"method\\\":\\\"generateSignedIntegers\\\",\\\"id\\\":\\\"\";\r\n    string public randomStr2 = \"\\\",\\\"params\\\":{\\\"n\\\":\\\"6\\\",\\\"min\\\":1,\\\"max\\\":49,\\\"replacement\\\":false,\\\"base\\\":10,\\\"apiKey\\\":${[decrypt] BKM3j7tH7qBIQKuadP5kJ547Au1uB1Zo41u6tCfLPT3GDGJJCEpXLS87u1xlYsFu/i21zycQJgVFWzev+ZSjflQKsOCFbdN5oUSiR/GvD5nuLblzG6H+xq2lVdZ0lN/EZjrCmgMfaF0r3uo/FKcRdAnbf2wxKQ5Vfg==}}']\";\r\n    string public apiStr1    = \"[URL] ['json(https://etheraffle.com/api/a).m','{\\\"r\\\":\\\"\";\r\n    string public apiStr2    = \"\\\",\\\"k\\\":${[decrypt] BGQljYtTQ+yq9TZztMcWycMiaAezwNm3ppmcBvdh37ZJVJiTFbQw+h+WycbJtaklSFe2+S228NTf9eOh+6y06dlVpbJ3S28JhDOg50j4wqAIXdtCWDZLkAgyjXI3pOa3SJY3RV2b}}']\";\r\n    FreeLOTInterface freeLOT;\r\n\r\n    /**\r\n     *\r\n     *      ##########################################\r\n     *      ###                                    ###\r\n     *      ###          Data Structures           ###\r\n     *      ###                                    ###\r\n     *      ##########################################\r\n     *\r\n     */\r\n    mapping (uint => rafStruct) public raffle;\r\n    struct rafStruct {\r\n        mapping (address => bytes32[]) entries;\r\n        uint tktPrice;\r\n        uint unclaimed;\r\n        uint[] winNums;\r\n        uint[] winAmts;\r\n        uint timeStamp;\r\n        bool wdrawOpen;\r\n        uint numEntries;\r\n        uint freeEntries;\r\n    }\r\n\r\n    mapping (bytes32 => qIDStruct) public qID;\r\n    struct qIDStruct {\r\n        uint weekNo;\r\n        bool isRandom;\r\n        bool isManual;\r\n    }\r\n    /**\r\n     *\r\n     *      ##########################################\r\n     *      ###                                    ###\r\n     *      ###             Modifiers              ###\r\n     *      ###                                    ###\r\n     *      ##########################################\r\n     *\r\n     */\r\n    /**\r\n    * @notice   Modifier to prepend to functions adding the additional\r\n    *           conditional requiring caller of the method to be the\r\n    *           etheraffle address.\r\n    */\r\n    modifier onlyEtheraffle() {\r\n        require(msg.sender == etheraffle);\r\n        _;\r\n    }\r\n    /**\r\n    * @notice   Modifier to prepend to functions adding the additional\r\n    *           conditional requiring the paused bool to be false.\r\n    */\r\n    modifier onlyIfNotPaused() {\r\n        require(!paused);\r\n        _;\r\n    }\r\n    /**\r\n     * @notice  Modifier to prepend to functions adding the additional\r\n     *          conditional requiring caller of the method to be either\r\n     *          the Oraclize or Etheraffle address.\r\n     *\r\n     */\r\n    modifier onlyOraclize() {\r\n        require(msg.sender == oraclize_cbAddress() || msg.sender == etheraffle);\r\n        _;\r\n    }\r\n    /**\r\n     *\r\n     *      ##########################################\r\n     *      ###                                    ###\r\n     *      ###              Events                ###\r\n     *      ###                                    ###\r\n     *      ##########################################\r\n     *\r\n     */\r\n    event LogFunctionsPaused(uint identifier, uint atTime);\r\n    event LogQuerySent(bytes32 queryID, uint dueAt, uint sendTime);\r\n    event LogReclaim(uint indexed fromRaffle, uint amount, uint atTime);\r\n    event LogUpgrade(address newContract, uint ethTransferred, uint atTime);\r\n    event LogPrizePoolAddition(address fromWhom, uint howMuch, uint atTime);\r\n    event LogFreeLOTWin(uint indexed forRaffle, address toWhom, uint entryNumber, uint amount, uint atTime);\r\n    event LogOraclizeCallback(address functionCaller, bytes32 queryID, string result, uint indexed forRaffle, uint atTime);\r\n    event LogFundsDisbursed(uint indexed forRaffle, uint oraclizeTotal, uint amount, address indexed toAddress, uint atTime);\r\n    event LogWithdraw(uint indexed forRaffle, address indexed toWhom, uint forEntryNumber, uint matches, uint amountWon, uint atTime);\r\n    event LogWinningNumbers(uint indexed forRaffle, uint numberOfEntries, uint[] wNumbers, uint currentPrizePool, uint randomSerialNo, uint atTime);\r\n    event LogTicketBought(uint indexed forRaffle, uint indexed entryNumber, address indexed theEntrant, uint[] chosenNumbers, uint personalEntryNumber, uint tktCost, uint atTime, uint affiliateID);\r\n    event LogPrizePoolsUpdated(uint newMainPrizePool, uint indexed forRaffle, uint ticketPrice, uint unclaimedPrizePool, uint[] winningAmounts, uint atTime);\r\n    /**\r\n     *\r\n     *      ##########################################\r\n     *      ###                                    ###\r\n     *      ###            Constructor             ###\r\n     *      ###                                    ###\r\n     *      ##########################################\r\n     *\r\n     */\r\n    /**\r\n     * @notice  Constructor. Sets the Etheraffle multisig address, \r\n     *          the EthRelief & Disbursal contract addresses and \r\n     *          instantiates the FreeLOT contract. Sets up an \r\n     *          initial raffle struct.\r\n     *\r\n     * @param   _etheraffle Address of the Etheraffle multisig.\r\n     *\r\n     * @param   _disburse   Address of the disbursal contract.\r\n     *\r\n     * @param   _ethRelief  Address of the EthRelief contract.\r\n     *\r\n     * @param   _freeLOT    Address of the freeLOT contract.\r\n     *\r\n     * 0x97f535e98cf250cdd7ff0cb9b29e4548b609a0bd - Etheraffle\r\n     * 0xb6a5f50b5ce5909a9c75ce27fec96e5de393af61 - Disbursal\r\n     * 0x7ee65fe55accd9430f425379851fe768270c6699 - EthRelief\r\n     * 0xc39f7bB97B31102C923DaF02bA3d1bD16424F4bb - FreeLOT\r\n     */\r\n    function Etheraffle(address _etheraffle, address _disburse, address _ethRelief, address _freeLOT) public payable {\r\n        week         = getWeek();\r\n        etheraffle   = _etheraffle;\r\n        disburseAddr = _disburse;\r\n        ethRelief    = _ethRelief;\r\n        freeLOT      = FreeLOTInterface(_freeLOT);\r\n        setUpRaffleStruct(week, 2500000000000000, (week * WEEKDUR) + BIRTHDAY);\r\n        // TODO: Remove in prod!\r\n        OAR = OraclizeAddrResolverI(0x6f485C8BF6fc43eA212E93BBF8ce046C7f1cb475);\r\n    }\r\n    /**\r\n     *\r\n     *      ##########################################\r\n     *      ###                                    ###\r\n     *      ###           Raffle Setup             ###\r\n     *      ###                                    ###\r\n     *      ##########################################\r\n     *\r\n     */\r\n    /**\r\n     * @notice  Function which gets current week number and if different\r\n     *          from the global var week number, it updates that and sets\r\n     *          up the new raffle struct. Should only be called once a\r\n     *          week after the raffle is closed. Should it get called\r\n     *          sooner, the contract is paused for inspection.\r\n     *\r\n     */\r\n    function setUpNewRaffle() internal {\r\n        uint newWeek = getWeek();\r\n        if (newWeek == week) return pauseContract(true, 4);\r\n        setWeek(newWeek);\r\n        setUpRaffleStruct(newWeek, tktPrice, BIRTHDAY + (newWeek * WEEKDUR));\r\n    }\r\n    /**\r\n     * @notice  Function using Etheraffle's birthday to calculate the\r\n     *          week number since then.\r\n     *\r\n     * @return  The current week number.\r\n     *\r\n     */\r\n    function getWeek() public constant returns (uint) {\r\n        uint curWeek = (now - BIRTHDAY) / WEEKDUR;\r\n        return pastClosingTime(curWeek) ? curWeek + 1 : curWeek;\r\n    }\r\n    /**\r\n     * @notice  Calculates if time function is called is past a raffle's \r\n     *          designated end time.\r\n     *\r\n     * @return  True if past closing else false.\r\n     *\r\n     */\r\n    function pastClosingTime(uint _curWeek) internal view returns (bool) {\r\n        return now - ((_curWeek * WEEKDUR) + BIRTHDAY) > rafEnd;\r\n    }\r\n\t/**\r\n\t * @notice\tSets up new raffle via creating a struct with the correct \r\n     *          timestamp and ticket price. \r\n\t *\r\n\t * @param   _week       Desired week number for new raffle struct.\r\n     *\r\n     * @param   _tktPrice   Desired ticket price for the raffle\r\n     *\r\n     * @param    _timeStamp Timestamp of Mon 00:00 of the week of this raffle\r\n     *\r\n\t */\r\n   \tfunction setUpRaffleStruct(uint _week, uint _tktPrice, uint _timeStamp) internal {\r\n        raffle[_week].tktPrice  = _tktPrice;\r\n        raffle[_week].timeStamp = _timeStamp;\r\n   \t}\r\n\t/**\r\n\t * @notice\tSets the withdraw status of a raffle.\r\n\t *\r\n\t * @param   _week   Week number for raffle in question.\r\n     *\r\n     * @param   _status Desired withdraw status for raffle.\r\n     *\r\n\t */\r\n    function setWithdraw(uint _week, bool _status) internal {\r\n        raffle[_week].wdrawOpen = _status;\r\n    }\r\n    /**\r\n\t * @notice\tSets the global week variable.\r\n\t *\r\n\t * @param   _week   Desired week number.\r\n     *\r\n\t */\r\n    function setWeek(uint _week) internal {\r\n        week = _week;\r\n    }\r\n    /**\r\n     *\r\n     *      ##########################################\r\n     *      ###                                    ###\r\n     *      ###           Pause Contract           ###\r\n     *      ###                                    ###\r\n     *      ##########################################\r\n     *\r\n     */\r\n    /**\r\n     * @notice  Sets the paused status of the contract to the bool \r\n     *          passed in. Logs an event with a uint identifying the \r\n     *          reason for pausing the contract to the front-end \r\n     *          event watcher.\r\n     *\r\n     * @param   _status Desired pause status.\r\n     *\r\n     * @param   _id     Uint identifing the reason function was called.\r\n     */\r\n    function pauseContract(bool _status, uint _id) internal {\r\n        pauseContract(_status);\r\n        emit LogFunctionsPaused(_id, now);\r\n    }\r\n    /**\r\n     * @notice  Sets the paused status of the contract to the bool \r\n     *          passed in. This affects various of the contracts \r\n     *          functions via the onlyIfNotPaused modifier.\r\n     *\r\n     * @param   _status     Desired pause status.\r\n     *\r\n     */\r\n    function pauseContract(bool _status) internal {\r\n        paused = _status;\r\n    }\r\n    /**\r\n     *\r\n     *      ##########################################\r\n     *      ###                                    ###\r\n     *      ###         Ticket Purchasing          ###\r\n     *      ###                                    ###\r\n     *      ##########################################\r\n     *\r\n     */\r\n   /**\r\n     * @notice  Function to enter a raffle. Checks for correct ticket price, \r\n     *          then purchases ticket. Only callable when the contract is \r\n     *          not paused.\r\n     *\r\n     * @param   _cNums  Ordered array of entrant's six selected numbers.\r\n     *\r\n     * @param   _affID  Affiliate ID of the source of this entry.\r\n     *\r\n     */\r\n    function enterRaffle(uint[] _cNums, uint _affID) payable public onlyIfNotPaused {\r\n        require (validTktPrice(week));\r\n        buyTicket(_cNums, msg.sender, msg.value, _affID);\r\n    }\r\n    /**\r\n     * @notice  Function to enter the raffle on behalf of another address.  \r\n     *          Checks for correct ticket price. Only callable when the \r\n     *          contract is not paused. In the event of a win, only the \r\n     *          onBehalfOf address can claim it.\r\n     *  \r\n     * @param   _cNums        Ordered array of entrant's six selected numbers.\r\n     *\r\n     * @param   _affID        Affiliate ID of the source of this entry.\r\n     *\r\n     * @param   _onBehalfOf   The address to be entered on behalf of.\r\n     *\r\n     */\r\n    function enterOnBehalfOf(uint[] _cNums, uint _affID, address _onBehalfOf) payable public onlyIfNotPaused {\r\n        require (validTktPrice(week));\r\n        buyTicket(_cNums, _onBehalfOf, msg.value, _affID);\r\n    }\r\n    /**\r\n     * @notice  Function to enter the raffle for free. Requires the caller's\r\n     *          balance of the Etheraffle freeLOT token to be greater than\r\n     *          zero. Function destroys one freeLOT token, increments the\r\n     *          freeEntries variable in the raffle struct then purchases the\r\n     *          ticket. Only callable if contract is not paused.\r\n     *\r\n     * @param   _cNums    Ordered array of entrant's six selected numbers.\r\n     *\r\n     * @param   _affID    Affiliate ID of the source of this entry.\r\n     *\r\n     */\r\n    function enterFreeRaffle(uint[] _cNums, uint _affID) payable public onlyIfNotPaused {\r\n        decrementFreeLOT(msg.sender, 1);\r\n        incremementEntries(week, true);\r\n        buyTicket(_cNums, msg.sender, msg.value, _affID);\r\n    }\r\n    /**\r\n     * @notice  Function to enter the raffle on behalf of another address \r\n     *          for free. Requires the caller's balance of the Etheraffle \r\n     *          freeLOT token to be greater than zero. Function destroys \r\n     *          one freeLOT token, increments the freeEntries variable in \r\n     *          the raffle struct then purchases the ticket. Only callable \r\n     *          when the contract is not paused. In the event of a win, only \r\n     *          the onBehalfOf address can claim it.\r\n     *  \r\n     * @param   _cNums        Ordered array of entrant's six selected numbers.\r\n     *\r\n     * @param   _affID        Affiliate ID of the source of this entry.\r\n     *\r\n     * @param   _onBehalfOf   The address to be entered on behalf of.\r\n     *\r\n     */\r\n    function enterOnBehalfOfFree(uint[] _cNums, uint _affID, address _onBehalfOf) payable public onlyIfNotPaused {\r\n        decrementFreeLOT(msg.sender, 1);\r\n        incremementEntries(week, true);\r\n        buyTicket(_cNums, _onBehalfOf, msg.value, _affID);\r\n    }\r\n    /**\r\n     * @notice  Checks that a raffle struct has a ticket price set and whether \r\n     *          the caller's msg.value is greater than or equal to that price.\r\n     *\r\n     * @param   _week   Week number for raffle in question.\r\n     *\r\n     * @return  True if msg.value greater than tktPrice, else false.\r\n     *\r\n     */\r\n    function validTktPrice(uint _week) internal view returns (bool) {\r\n        return (\r\n            raffle[_week].tktPrice > 0 && \r\n            msg.value >= raffle[_week].tktPrice\r\n        );\r\n    }\r\n    /**\r\n     * @notice  Decrement an address' FreeLOT token holdings by a specified \r\n     *          amount.\r\n     *\r\n     * @param   _address  The address owning the FreeLOT token(s)\r\n     *\r\n     * @param   _amt      The amount of FreeLOT to destroy.\r\n     *\r\n     */\r\n    function decrementFreeLOT(address _address, uint _amt) internal {\r\n        freeLOT.destroy(_address, _amt);\r\n    }\r\n    /**\r\n     * @notice  Internal function that purchases raffle tickets. Requires the \r\n     *          raffle be open for entry and the chosen numbers be valid. \r\n     *          Increments number of entries in the raffle strut, adds the ticket \r\n     *          price to the prize pool and stores a hash of the entrants chosen \r\n     *          numbers before logging the purchase.   \r\n     *\r\n     * @param   _cNums      Array of users selected numbers.\r\n     *\r\n     * @param   _entrant    Entrant's ethereum address.\r\n     *\r\n     * @param   _value      The ticket purchase price.\r\n     *\r\n     * @param   _affID      Affiliate ID of the source of this entry.\r\n     *\r\n     */\r\n    function buyTicket(uint[] _cNums, address _entrant, uint _value, uint _affID) internal {\r\n        require (raffleOpenForEntry() && validNumbers(_cNums));\r\n        incremementEntries(week, false);\r\n        modifyPrizePool(true, _value);\r\n        storeEntry(week, _entrant, _cNums);\r\n        emit LogTicketBought(week, raffle[week].numEntries, _entrant, _cNums, raffle[week].entries[_entrant].length, _value, now, _affID);\r\n    }\r\n    /**\r\n     * @notice  Stores a ticket purchase by hashing the chosen numbers \r\n     *          and pushing them into an array mapped to the user's \r\n     *          address in the relevant raffle's struct.\r\n     *\r\n     * @param   _week       Week number for raffle in question.\r\n     *\r\n     * @param   _entrant    The entrant's address.\r\n     *\r\n     * @param   _cNums      The entrant's chosen numbers.\r\n     *\r\n     */\r\n    function storeEntry(uint _week, address _entrant, uint[] _cNums) internal {\r\n        raffle[_week].entries[_entrant].push(keccak256(_cNums));\r\n    }\r\n    /**\r\n     * @notice  Increments the number of entries in a raffle struct. \r\n     *          Increments free entries if bool passed is true, else \r\n     *          normal entries otherwise.\r\n     *\r\n     * @param   _week   Week number for raffle in question\r\n     *\r\n     * @param   _free   Whether it is a free entry or not.\r\n     *\r\n     */\r\n    function incremementEntries(uint _week, bool _free) internal {\r\n        _free ? raffle[week].freeEntries++ : raffle[_week].numEntries++;\r\n    }\r\n    /**\r\n     * @notice  Temporal & raffle struct setup requirements that need to be \r\n     *          satisfied before a raffle ticket can be purchased.\r\n     *\r\n     * @return  True if raffle is open for entry, else false.\r\n     *\r\n     */\r\n    function raffleOpenForEntry() internal view returns (bool) {\r\n        return (\r\n            raffle[week].timeStamp > 0 &&\r\n            now < raffle[week].timeStamp + rafEnd\r\n        );\r\n    }\r\n    /**\r\n     * @notice  Series of requirements a raffle ticket's chosen numbers must \r\n     *          pass in order to qualify as valid. Ensures that there are six \r\n     *          numbers, in ascending order, between one and 49.\r\n     *\r\n     * @param   _cNums  Array of a ticket's proposed numbers in question.\r\n     *\r\n     * @return  True if numbers are valid, else false.\r\n     *\r\n     */\r\n    function validNumbers(uint[] _cNums) internal pure returns (bool) {\r\n        return (\r\n            _cNums.length == 6    &&\r\n            0         < _cNums[0] &&\r\n            _cNums[0] < _cNums[1] &&\r\n            _cNums[1] < _cNums[2] &&\r\n            _cNums[2] < _cNums[3] &&\r\n            _cNums[3] < _cNums[4] &&\r\n            _cNums[4] < _cNums[5] &&\r\n            _cNums[5] <= 49\r\n        );\r\n    }\r\n    /**\r\n     * @notice  Modifies prizePool var. If true passed is in as first \r\n     *          argument, prizePool is incremented by _amt, if  false, \r\n     *          decremented. In which latter case, it requires the minuend \r\n     *          be smaller than the subtrahend.  \r\n     *\r\n     * @param   _bool   Boolean signifying addtion or subtraction. \r\n     *\r\n     * @param   _amt    Amount to modify the prize pool by.\r\n     *\r\n     */\r\n    function modifyPrizePool(bool _bool, uint _amt) private {\r\n        if (!_bool) require (_amt <= prizePool);\r\n        prizePool = _bool ? prizePool + _amt : prizePool - _amt;\r\n    }\r\n    /**\r\n     *\r\n     *      ##########################################\r\n     *      ###                                    ###\r\n     *      ###         Withdraw Winnings          ###\r\n     *      ###                                    ###\r\n     *      ##########################################\r\n     *\r\n     */\r\n    /**\r\n     * @notice  User calls this function in order to withdraw whatever \r\n     *          winnings they are owed. It requires the entry be valid \r\n     *          and the raffle open for withdraw. Function retrieves the\r\n     *          number of matches then pays out accordingly. Only callable \r\n     *          if the contract is not paused.\r\n     *\r\n     * @param   _week       Week number of the raffle the winning entry is from.\r\n     *\r\n     * @param   _entryNum   The entrant's entry number into this raffle.\r\n     *\r\n     */\r\n    function withdrawWinnings(uint _week, uint _entryNum, uint[] _cNums) external onlyIfNotPaused {\r\n        require (validEntry(_week, _entryNum, _cNums, msg.sender) && openForWithdraw(_week));\r\n        uint matches = getMatches(_cNums, raffle[_week].winNums);\r\n        require (matches >= 2);\r\n        matches == 2 \r\n            ? winFreeGo(_week, _entryNum, msg.sender) \r\n            : payWinnings(_week, _entryNum, matches, msg.sender);\r\n    }\r\n    /*\r\n     * @notice  Mints a FreeLOT coupon to a two match winner allowing them \r\n     *          a free entry to Etheraffle. Function pausable by pause toggle.\r\n     *\r\n     * @param   _week       Week number of raffle whence the win originates.\r\n     *\r\n     * @param   _entryNum   Entry number of the win in question.\r\n     *\r\n     * @param   _entrant    Entry to whom the win belongs.\r\n     *\r\n     */\r\n    function winFreeGo(uint _week, uint _entryNum, address _entrant) private onlyIfNotPaused {\r\n        invalidateEntry(_week, _entrant, _entryNum);\r\n        freeLOT.mint(_entrant, 1);\r\n        emit LogFreeLOTWin(_week, _entrant, _entryNum, 1, now);\r\n    }\r\n    /**\r\n     * @notice  If ticket wins ETH this function first checks the eligibility \r\n     *          for withdraw before invalidating the ticket, deducting the win \r\n     *          from the unclaimed prizepool and finally transferring the winnings.\r\n     *\r\n     * @param   _week       Week number for raffle in question.\r\n     *\r\n     * @param   _entryNum   Entry number for ticket in question.\r\n     *\r\n     * @param   _matches    Number of matches ticket make to winning numbers.\r\n     *\r\n     * @param   _entrant    Address of the ticket holder.\r\n     *\r\n     */\r\n    function payWinnings(uint _week, uint _entryNum, uint _matches, address _entrant) private {\r\n        require (eligibleForWithdraw(_week, _matches));\r\n        invalidateEntry(_week, _entrant, _entryNum);\r\n        modifyUnclaimed(false, _week, raffle[_week].winAmts[_matches - 3]);\r\n        transferWinnings(_entrant, raffle[_week].winAmts[_matches - 3]);\r\n        emit LogWithdraw(_week, _entrant, _entryNum, _matches, raffle[_week].winAmts[_matches - 3], now);\r\n    }\r\n    /**\r\n     * @notice  Tranfers an amount of ETH to an address.\r\n     *\r\n     * @param   _address    Address to transger ETH to.\r\n     *\r\n     * @param   _amt        Amount of Wei to transfer.\r\n     *\r\n     */\r\n    function transferWinnings(address _address, uint _amt) private {\r\n        _address.transfer(_amt);\r\n    }\r\n    /**\r\n     * @notice  Modifies the unclaimed variable in a struct. If true passed \r\n     *          in as first argument, unclaimed is incremented by _amt, if \r\n     *          false, decremented. In which latter case, it requires the \r\n     *          minuend is smaller than the subtrahend.   \r\n     *\r\n     * @param   _bool     Boolean signifying addtion or subtraction.\r\n     *\r\n     * @param   _week     Week number for raffle in question.\r\n     *\r\n     * @param   _amt      Amount unclaimed is to be modified by.\r\n     *\r\n     */\r\n    function modifyUnclaimed(bool _bool, uint _week, uint _amt) private {\r\n        if (!_bool) require (_amt <= raffle[_week].unclaimed);\r\n        raffle[_week].unclaimed = _bool ? raffle[_week].unclaimed + _amt : raffle[_week].unclaimed - _amt;\r\n    }\r\n    /**\r\n     * @notice  Various requirements w/r/t number of matches, win amounts \r\n     *          being set in the raffle struct and contract balance that \r\n     *          need to be passed before withdrawal can be processed.\r\n     *\r\n     * @param   _week     Week number for raffle in question.\r\n     *\r\n     * @param   _matches  Number of matches the entry in question has made.\r\n     *\r\n     * @return  True if eligible for withdraw, else false.\r\n     *\r\n     */\r\n    function eligibleForWithdraw(uint _week, uint _matches) view internal returns (bool) {\r\n        return (\r\n            _matches >= 3 &&\r\n            raffle[_week].winAmts[_matches - 3] > 0 &&\r\n            raffle[_week].winAmts[_matches - 3] <= this.balance\r\n        );\r\n    }\r\n    /**\r\n     * @notice  Compares hash of provided entry numbers to previously bought \r\n     *          ticket's hashed entry numbers.\r\n     *\r\n     * @param   _week       Week number for raffle in question.\r\n     *\r\n     * @param   _entryNum   Entry number in question.\r\n     *\r\n     * @param   _cNums      Propsed entry numbers for entry in question.\r\n     *\r\n     * @param   _entrant    Address of entrant in question.\r\n     *\r\n     * @return  True if entry is valid, else false.\r\n     *\r\n     */\r\n    function validEntry(uint _week, uint _entryNum, uint[] _cNums, address _entrant) view internal returns (bool) {\r\n        return raffle[_week].entries[_entrant][_entryNum - 1] == keccak256(_cNums);\r\n    }\r\n    /**\r\n     * @notice  Function zeroes the previously stored hash of an entrant's \r\n     *          ticket's chosen numbers.\r\n     *\r\n     * @param   _week       Week number for raffle in question.\r\n     *\r\n     * @param   _entrant    Address of the entrant in question.\r\n     *\r\n     * @param   _entryNum   Entry number in question.\r\n     *\r\n     */\r\n    function invalidateEntry(uint _week, address _entrant, uint _entryNum) private {\r\n        raffle[_week].entries[_entrant][_entryNum - 1] = 0;\r\n    }\r\n    /**\r\n     * @notice  Various temporal requirements plus struct setup requirements \r\n     *          that need to be met before a prize withdrawal can be processed. \r\n     *          In order: Winning numbers need to be set, withdraw bool needs \r\n     *          to be true, raffle's timestamp needs to be set, that the time \r\n     *          the function is called needs to be before the withdraw deadline, \r\n     *          and that the time the function is called needs to be six days \r\n     *          beyond the timestamp. \r\n     *\r\n     * @param   _week   Week number for the raffle in question.\r\n     *\r\n     * @return  True if raffle is open for withdraw, else false.\r\n     *\r\n     */\r\n    function openForWithdraw(uint _week) view internal returns (bool) {\r\n        return (\r\n            winningNumbersSet(_week) &&\r\n            raffle[_week].wdrawOpen &&\r\n            raffle[_week].timeStamp > 0 &&\r\n            now - raffle[_week].timeStamp < wdrawBfr &&\r\n            now - raffle[_week].timeStamp > WEEKDUR - (WEEKDUR / 7)\r\n        );\r\n    }\r\n    /**\r\n     * @notice  Function performs set intersection on two arrays\r\n     *          and counts to see how many numbers they have in common.\r\n     *\r\n     * @param   _cNums  Array of entrant's chosen numbers.\r\n     *\r\n     * @param   _wNums  Array of winning numbers.\r\n     *\r\n     * @return  Amount of numbers two arrays have in common.\r\n     *\r\n     */\r\n    function getMatches(uint[] _cNums, uint[] _wNums) pure internal returns (uint) {\r\n        require(_cNums.length == 6 && _wNums.length == 6);\r\n        uint matches;\r\n        for (uint i = 0; i < 6; i++) {\r\n            for (uint j = 0; j < 6; j++) {\r\n                if (_cNums[i] == _wNums[j]) {\r\n                    matches++;\r\n                    break;\r\n                }\r\n            }\r\n        }\r\n        return matches;\r\n    }\r\n    /**\r\n     *\r\n     *      ##########################################\r\n     *      ###                                    ###\r\n     *      ###         Oraclize Callback          ###\r\n     *      ###                                    ###\r\n     *      ##########################################\r\n     *\r\n     */\r\n    /**\r\n     * @notice  The Oralize call back function. Only callable by Etheraffle \r\n     *          or the Oraclize address. Emits an event detailing the callback, \r\n     *          before running the relevant method that acts on the callback.\r\n     * \r\n     * @param   _myID    Unique id oraclize provides with their callbacks.\r\n     *                            \r\n     * @param   _result  The result of the api call.\r\n     *\r\n     */\r\n    function __callback(bytes32 _myID, string _result) public onlyIfNotPaused onlyOraclize {\r\n        emit LogOraclizeCallback(msg.sender, _myID, _result, qID[_myID].weekNo, now);\r\n        queryIsRandom(_myID) \r\n            ? randomCallback(_myID, _result) \r\n            : apiCallback(_myID, _result);\r\n    }\r\n        /**\r\n     * @notice  Checks if an Oraclize query was made manually or not.\r\n     *\r\n     * @param   _ID     Bytes32 hash identifying the query in question.\r\n     *\r\n     * @return  True if query was made manually, else false.\r\n     *\r\n     */\r\n    function queryIsManual(bytes32 _ID) internal view returns (bool) {\r\n        return qID[_ID].isManual;\r\n    }\r\n    /**\r\n     * @notice  Checks if an Oraclize query was to Random.org or not.\r\n     *\r\n     * @param   _ID     Bytes32 hash identifying the query in question.\r\n     *\r\n     * @return  True if query pertains to a Random.org api call, else false.\r\n     *\r\n     */\r\n    function queryIsRandom(bytes32 _ID) internal view returns (bool) {\r\n        return qID[_ID].isRandom;\r\n    }\r\n    /**\r\n     *\r\n     *      ##########################################\r\n     *      ###                                    ###\r\n     *      ###          Random Callback           ###\r\n     *      ###                                    ###\r\n     *      ##########################################\r\n     *\r\n     */\r\n    /**\r\n     * @notice  Called when a random.org api callback comes in. It first \r\n     *          reclaims unclaimed prizes from the raffle ten weeks previous,\r\n     *          disburses this week's raffle's profits, sets the winning \r\n     *          numbers from the callback in this raffle's struct and finally \r\n     *          prepares the next Oraclize query to call the Etheraffle API.\r\n     *          Function requires the winning numbers to not already have been\r\n     *          set which stops Oraclize replays causing havoc!\r\n     *\r\n     * @param   _myID       The hash of the Oraclize query\r\n     *\r\n     * @param   _result     The result of the Oraclize query\r\n     *\r\n     */\r\n    function randomCallback(bytes32 _myID, string _result) internal onlyOraclize {\r\n        require(!winningNumbersSet(qID[_myID].weekNo));\r\n        reclaimUnclaimed();\r\n        performAccounting(qID[_myID].weekNo);\r\n        setWinningNumbers(qID[_myID].weekNo, _result);\r\n        if (queryIsManual(_myID)) return;\r\n        sendQuery(matchesDelay, getQueryString(false, qID[_myID].weekNo), qID[_myID].weekNo, false, false);\r\n    }\r\n    /**\r\n     * @notice  Returns bool depending on whether the winning numbers\r\n     *          have been set in the struct or not.\r\n     *\r\n     * @param   _week   Week number for raffle in question.\r\n     *\r\n     * @return  True if winning numbers are set correctly in raffle struct.\r\n     *\r\n     */\r\n    function winningNumbersSet(uint _week) internal view returns (bool) {\r\n        return raffle[_week].winNums.length > 0;\r\n    }\r\n    /**\r\n     * @notice  Called by the weekly Oraclize callback. Checks raffle 10\r\n     *          weeks older than current raffle for any unclaimed prize\r\n     *          pool. If any found, returns it to the main prizePool and\r\n     *          zeros the amount.\r\n     *\r\n     */\r\n    function reclaimUnclaimed() internal {\r\n        uint old = getWeek() - 11;\r\n        uint amt = getUnclaimed(old);\r\n        if (amt == 0) return;\r\n        modifyPrizePool(true, amt);\r\n        modifyUnclaimed(false, old, amt);\r\n        emit LogReclaim(old, amt, now);\r\n    }\r\n    //TODO: Check is this is used more than once - might be a refactor too far?\r\n    /**\r\n     * @notice  Returns the unclaimed prize pool sequestered in a raffle's\r\n     *          struct.\r\n     *\r\n     * @param   _week   Week number for raffle in question.\r\n     *\r\n     * @return  Unclaimed prize pool sequestered in raffle's struct in Wei.\r\n     *\r\n     */\r\n    function getUnclaimed(uint _week) public view returns (uint) {\r\n        return raffle[_week].unclaimed;\r\n    }\r\n        /**\r\n     * @notice  Calculates and accounts for a raffle's costs and profits, \r\n     *          before distributing the latter should there be any.\r\n     *\r\n     * @param   _week   Week number for raffle in question.\r\n     *\r\n     */\r\n    function performAccounting(uint _week) internal {\r\n        uint cost = getOraclizeCost();\r\n        accountForCosts(cost);\r\n        uint profit = calcProfit(_week);\r\n        accountForProfit(profit);\r\n        distributeFunds(_week, cost, profit);\r\n    }\r\n    /**\r\n     * @notice  Returns the cost of the Oraclize api calls\r\n     *          (two per draw).\r\n     *\r\n     * @return  The cost of the two Oraclize API calls per draw.\r\n     *\r\n     */\r\n    function getOraclizeCost() internal view returns (uint) {\r\n        return ((gasAmt * gasPrc) + oracCost) * 2;\r\n    }\r\n    /**\r\n     * @notice  Subtracts a given cost from the prize pool. Pauses contract \r\n     *          instead if cost is greater than the prize pool.\r\n     *\r\n     * @param   _cost   Amount to be deducted from the prize pool.\r\n     *\r\n     */\r\n    function accountForCosts(uint _cost) private {\r\n        if (_cost > prizePool) return pauseContract(true, 1);\r\n        if (_cost == 0) return; // TODO: Unnecessary? Will save a little gas except on deploy...\r\n        modifyPrizePool(false, _cost);\r\n    }\r\n    /**\r\n     * @notice  Calculates profits earnt from a raffle. If there are \r\n     *          no paid entries or if free entries outweigh paid \r\n     *          entries, returns 0.\r\n     *\r\n     * @param   _week   Week number for raffle in question.\r\n     *\r\n     * @return  The profit generated from a raffle's ticket sales.\r\n     *\r\n     */\r\n    function calcProfit(uint _week) internal view returns (uint) {\r\n        return (raffle[_week].numEntries > 0 && raffle[_week].numEntries > raffle[_week].freeEntries)\r\n            ? ((raffle[_week].numEntries - raffle[_week].freeEntries) * tktPrice * take) / 1000\r\n            : 0;\r\n    }\r\n    /**\r\n     * @notice  Subtracts a given amount of profit from the prize pool, if \r\n     *          said amount is greater than zero.\r\n     *\r\n     * @param   _profit   Amount to be deducted from the prize pool.\r\n     *\r\n     */\r\n    function accountForProfit(uint _profit) private {\r\n        if (_profit == 0) return \r\n        modifyPrizePool(false, _profit);\r\n    }\r\n    /**\r\n     * @notice  Distributes any profit earnt from a raffle. Half goes to \r\n     *          the disbursal contract for the DAO of token holders, and \r\n     *          the remainder to the EthRelief contract for charitable \r\n     *          donations.\r\n     *\r\n     * @param   _week       Week number for raffle in question.\r\n     *\r\n     * @param   _cost       Cost of running this raffle.\r\n     *\r\n     * @param   _profit     Profit from running this raffle.\r\n     *\r\n     */\r\n    function distributeFunds(uint _week, uint _cost, uint _profit) private {\r\n        if (_profit == 0) return LogFundsDisbursed(_week, _cost, 0, 0, now); // Can't use emit keyword after return statement...\r\n        uint half = _profit / 2;\r\n        disburseFunds(_week, _cost, half, disburseAddr);\r\n        disburseFunds(_week, _cost, _profit - half, ethRelief);\r\n    }\r\n    /**\r\n     * @notice  Sends funds via a given contract's \"receiver\" interface,\r\n     *          which ensures an event is fired in the receiving contract, \r\n     *          announcing the funds' arrival.\r\n     *\r\n     * @param   _addr   Address of receiving contract.\r\n     *\r\n     * @param   _amt    Amount of Wei to send.\r\n     *\r\n     */\r\n    function disburseFunds(uint _week, uint _cost, uint _amt, address _addr) private {\r\n        ReceiverInterface(_addr).receiveEther.value(_amt)();\r\n        emit LogFundsDisbursed(_week, _cost, _amt, _addr, now);\r\n    }\r\n    /**\r\n     *\r\n     *      ##########################################\r\n     *      ###                                    ###\r\n     *      ###          Random Callback           ###\r\n     *      ###                                    ###\r\n     *      ##########################################\r\n     *\r\n     */\r\n    /**\r\n     * @notice  Called when the Etheraffle API callback is received. It sets \r\n     *          up the next raffle's struct, calculates this raffle's payouts \r\n     *          then makes the next Oraclize query to call the Random.org api.\r\n     *          Function requires the winning amounts to not already have been\r\n     *          set which stops Oraclize replays causing havoc!\r\n     *\r\n     * @param   _myID       The hash of the Oraclize query\r\n     *\r\n     * @param   _result     The result of the Oraclize query\r\n     *\r\n     */\r\n    function apiCallback(bytes32 _myID, string _result) internal onlyOraclize {\r\n        require (!winAmountsSet(qID[_myID].weekNo));\r\n        setUpNewRaffle();\r\n        setPayOuts(qID[_myID].weekNo, _result);\r\n        if (queryIsManual(_myID)) return;\r\n        sendQuery(getNextDeadline(), getQueryString(true, getWeek()), getWeek(), true, false);\r\n    }\r\n    /**\r\n     * @notice  Returns bool depending on whether the win amounts have \r\n     *          been set in the struct or not.\r\n     *\r\n     * @param   _week   Week number for raffle in question.\r\n     *\r\n     * @return  True if the winning amounts are set correctly in the \r\n     *          raffle's struct, else false.\r\n     *\r\n     */\r\n    function winAmountsSet(uint _week) internal view returns (bool) {\r\n        return raffle[_week].winAmts.length > 0;\r\n    }\r\n    /**\r\n     * @notice  Takes oraclize random.org api call result string and splits\r\n     *          it at the commas into an array, parses those strings in that\r\n     *          array as integers and pushes them into the winning numbers\r\n     *          array in the raffle's struct. Fires event logging the data,\r\n     *          including the serial number of the random.org callback so\r\n     *          its veracity can be proven.\r\n     *\r\n     * @param   _week    The week number of the raffle in question.\r\n     *\r\n     * @param   _result   The results string from oraclize callback.\r\n     *\r\n     */\r\n    function setWinningNumbers(uint _week, string _result) internal {\r\n        string[] memory arr = stringToArray(_result);\r\n        for (uint i = 0; i < 6; i++){\r\n            raffle[_week].winNums.push(parseInt(arr[i]));\r\n        }\r\n        uint serialNo = parseInt(arr[6]);\r\n        emit LogWinningNumbers(_week, raffle[_week].numEntries, raffle[_week].winNums, prizePool, serialNo, now);\r\n    }\r\n    /**\r\n     * @notice  Returns the number of seconds until the next occurring \r\n     *          raffle deadline.\r\n     *\r\n     * @return  The deadline in UTC format of the raffle calculated \r\n     *          from the current week number.\r\n     *\r\n     */\r\n    function getNextDeadline() internal view returns (uint) {\r\n        return (getWeek() * WEEKDUR) + BIRTHDAY + rafEnd + resultsDelay;\r\n    }\r\n    /**\r\n     * @notice  Takes the results of the oraclize Etheraffle api call back\r\n     *          and uses them to calculate the prizes due to each tier\r\n     *          (3 matches, 4 matches etc) then pushes them into the winning\r\n     *          amounts array in the raffle in question's struct. Calculates\r\n     *          the total winnings of the raffle, subtracts it from the\r\n     *          global prize pool sequesters that amount into the raffle's\r\n     *          struct \"unclaimed\" variable, âˆ´ \"rolling over\" the unwon\r\n     *          ether. Enables winner withdrawals by setting the withdraw\r\n     *          open bool to true.\r\n     *\r\n     * @param   _week       The week number of the raffle in question.\r\n     *\r\n     * @param   _result     The results string from oraclize callback.\r\n     *\r\n     */\r\n    function setPayOuts(uint _week, string _result) internal {\r\n        string[] memory numWinnersStr = stringToArray(_result);\r\n        if (numWinnersStr.length < 4) return pauseContract(true, 2);\r\n        for (uint i = 0; i < 4; i++) {\r\n            uint amt = 0;\r\n            uint numWinners = parseInt(numWinnersStr[i]);\r\n            if (numWinners != 0) {\r\n                amt = calcPrize(numWinners, i, _week);\r\n                modifyUnclaimed(true, _week, amt * numWinners);\r\n            }\r\n            raffle[_week].winAmts.push(amt);\r\n        }\r\n        if (raffle[_week].unclaimed > prizePool) return pauseContract(true, 3); // now a double check, is this bad?\r\n        modifyPrizePool(false, raffle[_week].unclaimed);\r\n        setWithdraw(_week, true);\r\n        emit LogPrizePoolsUpdated(prizePool, _week, raffle[_week].tktPrice, raffle[_week].unclaimed, raffle[_week].winAmts, now);\r\n    }\r\n    /**\r\n     * @notice  Calculates the total prizes for a given tier using the \r\n     *          splits method & the odds method, and returns the singular \r\n     *          prize using whichever method returned from the preceeding.\r\n     *\r\n     * @param   _numWinners   Number of winners in this tier\r\n     *\r\n     * @param   _i            Index this tier corresponds to in odds/splits arrays\r\n     *\r\n     * @param   _week         The week number of the raffle in question.\r\n     *\r\n     * @return  The prize amount in Wei for a given tier w/r/t number of\r\n     *          winners in that tier.\r\n     *\r\n     */\r\n    function calcPrize(uint _numWinners, uint _i, uint _week) internal view returns (uint) {\r\n        return oddsTotal(_numWinners, _i, _week) <= splitsTotal(_numWinners, _i) ? oddsSingle(_i, _week) : splitsSingle(_numWinners, _i); \r\n    }\r\n    /*  \r\n     * @notice  Calculates the total payout per tier when calculated using \r\n     *          the odds method.\r\n     *\r\n     * @param   _numWinners     Number of X match winners.\r\n     *\r\n     * @param   _matchesIndex   Index of matches array (âˆ´ 3 match win,\r\n     *                          4 match win etc).\r\n     *\r\n     * @return  The total prize amount in Wei for a given tier, calculated \r\n     *          using the true odds for a given number of matches.\r\n     *\r\n     */\r\n    function oddsTotal(uint _numWinners, uint _matchesIndex, uint _week) internal view returns (uint) {\r\n        return oddsSingle(_matchesIndex, _week) * _numWinners;\r\n    }\r\n    /*\r\n     * @notice  Calculates the total payout per tier when calculated using\r\n     *          the splits method.\r\n     *\r\n     * @param    _numWinners     Number of X match winners.\r\n     *\r\n     * @param    _matchesIndex   Index of matches array (âˆ´ 3 match win,\r\n     *                           4 match win etc).\r\n     *\r\n     * @return  The total prize amount in Wei for a given tier, calculated\r\n     *          using a percentage split for a given tier of the total \r\n     *          prize pool.\r\n     *\r\n     */\r\n    function splitsTotal(uint _numWinners, uint _matchesIndex) internal view returns (uint) {\r\n        return splitsSingle(_numWinners, _matchesIndex) * _numWinners;\r\n    }\r\n    /*\r\n     * @notice  Calculates single payout when calculated using the odds\r\n     *          method.\r\n     *\r\n     * @param   _matchesIndex   Index of matches array (âˆ´ 3 match win,\r\n     *                          4 match win etc).\r\n     *\r\n     * @return  A single prize amount in Wei for a given tier, calculated\r\n     *          using the true odds for a given number of matches.\r\n     *\r\n     */\r\n    function oddsSingle(uint _matchesIndex, uint _week) internal view returns (uint) {\r\n        return (raffle[_week].tktPrice * odds[_matchesIndex] * (1000 - take)) / 1000;\r\n    }\r\n    /*\r\n     * @notice  Calculates a single payout when calculated using the \r\n     *          splits method.\r\n     *\r\n     * @param   _numWinners     Number of X match winners.\r\n     *\r\n     * @param   _matchesIndex   Index of matches array (âˆ´ 3 match win,\r\n     *                          4 match win etc).\r\n     *\r\n     * @return  A single prize amount in Wei for a given tier, calculated\r\n     *          using a percentage split for a given tier of the total \r\n     *          prize pool.\r\n     *\r\n     */\r\n    function splitsSingle(uint _numWinners, uint _matchesIndex) internal view returns (uint) {\r\n        return (prizePool * pctOfPool[_matchesIndex]) / (_numWinners * 1000);\r\n    }\r\n    /**\r\n     *\r\n     *      ##########################################\r\n     *      ###                                    ###\r\n     *      ###         Oraclize Queries           ###\r\n     *      ###                                    ###\r\n     *      ##########################################\r\n     *\r\n     */\r\n    /**\r\n     * @notice  Modifies a query ID struct with the passed in information. \r\n     *          (Or creates it if struct doesn't exist yet...)\r\n     *\r\n     * @param   _ID         Bytes32 hash identifier for the struct.\r\n     *\r\n     * @param   _weekNo     Week number relevant to struct.\r\n     *\r\n     * @param   _isRandom   Whether the struct refers to a Random.org api call.\r\n     *\r\n     * @param   _isManual   Whether the struct was manually created or not.\r\n     *                      If manual, the Oraclize callback returns before the \r\n     *                      next recursive Oraclize query is sent.\r\n     *\r\n     */\r\n    function modifyQIDStruct(bytes32 _ID, uint _weekNo, bool _isRandom, bool _isManual) internal {\r\n        qID[_ID].weekNo    = _weekNo;\r\n        qID[_ID].isRandom  = _isRandom;\r\n        qID[_ID].isManual  = _isManual;\r\n    }\r\n    /**\r\n     * @notice  Prepares the correct Oraclize query string using Oraclize's \r\n     *          contract's string concat function.\r\n     *\r\n     * @param   _isRandom   Whether the query is to the Random.org api, or Etheraffle's.\r\n     *\r\n     * @param   _weekNo     Raffle number the call is being made on behalf of.\r\n     *\r\n     * @return  A string making up the full Oraclize query for either the Random.org\r\n     *          or Etheraffle API calls, depending on bool passed in.\r\n     *\r\n     */\r\n    function getQueryString(bool _isRandom, uint _weekNo) internal onlyOraclize returns (string) {\r\n        return _isRandom \r\n               ? strConcat(randomStr1, uint2str(_weekNo), randomStr2)\r\n               : strConcat(apiStr1, uint2str(_weekNo), apiStr2);\r\n    }\r\n    /**\r\n     * @notice  Sends an Oraclize query, stores info w/r/t that query in a\r\n     *          struct mapped to by the hash of the query, and logs the \r\n     *          pertinent details.\r\n     *\r\n     * @param   _delay      Desired return time for query from sending.\r\n     *\r\n     * @param   _str        The Oraclize call string.\r\n     *\r\n     * @param   _weekNo     Week number for raffle in question.\r\n     *\r\n     * @param   _isRandom   Whether the call is destined for Random.org \r\n     *                      or Etheraffle.\r\n     *\r\n     * @param   _isManual   Whether the call is being made manually or \r\n     *                      recursively.\r\n     *\r\n     */\r\n    function sendQuery(uint _delay, string _str, uint _weekNo, bool _isRandom, bool _isManual) internal onlyOraclize {\r\n        bytes32 query = oraclize_query(_delay, \"nested\", _str, gasAmt);\r\n        modifyQIDStruct(query, _weekNo, _isRandom, _isManual);\r\n        emit LogQuerySent(query, _delay, now);\r\n    }\r\n    /**\r\n     *\r\n     *      ##########################################\r\n     *      ###                                    ###\r\n     *      ###             Utilities              ###\r\n     *      ###                                    ###\r\n     *      ##########################################\r\n     *\r\n     */\r\n    /**\r\n     * @notice  Slices a string according to specified delimiter, returning\r\n     *          the sliced parts in an array. Courtesy of Nick Johnson via\r\n     *          https://github.com/Arachnid/solidity-stringutils\r\n     *\r\n     * @param   _string   The string to be sliced.\r\n     *\r\n     * @return  An array of strings.\r\n     *\r\n     */\r\n    function stringToArray(string _string) internal pure returns (string[]) {\r\n        var str    = _string.toSlice();\r\n        var delim  = \",\".toSlice();\r\n        var parts  = new string[](str.count(delim) + 1);\r\n        for (uint i = 0; i < parts.length; i++) {\r\n            parts[i] = str.split(delim).toString();\r\n        }\r\n        return parts;\r\n    }\r\n    /**\r\n     * @notice  Fallback function.\r\n     */\r\n    function () payable external {}\r\n    /**\r\n     *\r\n     *      ##########################################\r\n     *      ###                                    ###\r\n     *      ###              Setters               ###\r\n     *      ###                                    ###\r\n     *      ##########################################\r\n     *\r\n     */\r\n    /**\r\n     * @notice  Function allowing manual addition to the global prizepool.\r\n     *          Requires the caller to send ether, by which amount the \r\n     *          prize pool is increased.\r\n     *\r\n     */\r\n    function manuallyAddToPrizePool() payable public {\r\n        require (msg.value > 0);\r\n        modifyPrizePool(true, msg.value);\r\n        emit LogPrizePoolAddition(msg.sender, msg.value, now);\r\n    }\r\n    /**\r\n     * @notice  Set the Oraclize strings, in case of url changes. Only callable by\r\n     *          the Etheraffle address.\r\n     *\r\n     * @param   _randomStr1     String with properly escaped characters for \r\n     *                          first half of Random.org api call.\r\n     *\r\n     * @param   _randomStr2     String with properly escaped characters for \r\n     *                          second half of Random.org api call.\r\n     *\r\n     * @param   _apiStr1        String with properly escaped characters for \r\n     *                          first half of Etheraffle api call.\r\n     *\r\n     * @param   _apiStr2        String with properly escaped characters for \r\n     *                          second half of Etheraffle api call.\r\n     *\r\n     */\r\n    function manuallySetOraclizeString(string _randomStr1, string _randomStr2, string _apiStr1, string _apiStr2) external onlyEtheraffle {\r\n        randomStr1 = _randomStr1;\r\n        randomStr2 = _randomStr2;\r\n        apiStr1    = _apiStr1;\r\n        apiStr2    = _apiStr2;\r\n    }\r\n    /**\r\n     * @notice  Set the ticket price of the raffle. Only callable by the\r\n     *          Etheraffle address.\r\n     *\r\n     * @param   _newPrice   The desired new ticket price.\r\n     *\r\n     */\r\n    function manuallySetTktPrice(uint _newPrice) external onlyEtheraffle {\r\n        tktPrice = _newPrice;\r\n    }\r\n    /**\r\n     * @notice  Set new take percentage. Only callable by the Etheraffle\r\n     *          address.\r\n     *\r\n     * @param   _newTake   The desired new take, parts per thousand.\r\n     *\r\n     */\r\n    function manuallySetTake(uint _newTake) external onlyEtheraffle {\r\n        take = _newTake;\r\n    }\r\n    /**\r\n     * @notice  Set the payouts manually, in case of a failed Oraclize call.\r\n     *          Only callable by the Etheraffle address.\r\n     *\r\n     * @param   _week           The week number of the raffle to set the payouts for.\r\n     *\r\n     * @param   _numMatches     Number of matches. Comma-separated STRING of 4\r\n     *                          integers long, consisting of the number of 3 match\r\n     *                          winners, 4 match winners, 5 & 6 match winners in\r\n     *                          that order.\r\n     *\r\n     */\r\n    function manuallySetPayouts(uint _week, string _numMatches) external onlyEtheraffle {\r\n        setPayOuts(_week, _numMatches);\r\n    }\r\n    /**\r\n     * @notice  Set the FreeLOT token contract address, in case of future updrades.\r\n     *          Only allable by the Etheraffle address.\r\n     *\r\n     * @param   _newAddr   New address of FreeLOT contract.\r\n     */\r\n    function manuallySetFreeLOT(address _newAddr) external onlyEtheraffle {\r\n        freeLOT = FreeLOTInterface(_newAddr);\r\n      }\r\n    /**\r\n     * @notice  Set the EthRelief contract address, and gas required to run\r\n     *          the receiving function. Only allable by the Etheraffle address.\r\n     *\r\n     * @param   _newAddr   New address of the EthRelief contract.\r\n     */\r\n    function manuallySetEthReliefAddr(address _newAddr) external onlyEtheraffle {\r\n        ethRelief = _newAddr;\r\n    }\r\n    /**\r\n     * @notice  Set the dividend contract address, and gas required to run\r\n     *          the receive ether function. Only callable by the Etheraffle\r\n     *          address.\r\n     *\r\n     * @param   _newAddr   New address of dividend contract.\r\n     */\r\n    function manuallySetDisbursingAddr(address _newAddr) external onlyEtheraffle {\r\n        disburseAddr = _newAddr;\r\n    }\r\n    /**\r\n     * @notice  Set the Etheraffle multisig contract address, in case of future\r\n     *          upgrades. Only callable by the current Etheraffle address.\r\n     *\r\n     * @param   _newAddr   New address of Etheraffle multisig contract.\r\n     */\r\n    function manuallySetEtheraffleAddr(address _newAddr) external onlyEtheraffle {\r\n        etheraffle = _newAddr;\r\n    }\r\n    /**\r\n     * @notice  Set the raffle end time, in number of seconds passed\r\n     *          the start time of 00:00am Monday. Only callable by\r\n     *          the Etheraffle address.\r\n     *\r\n     * @param   _newTime    The time desired in seconds.\r\n     */\r\n    function manuallySetRafEndTime(uint _newTime) external onlyEtheraffle {\r\n        rafEnd = _newTime;\r\n    }\r\n    /**\r\n     * @notice  Set the wdrawBfr time - the time a winner has to withdraw\r\n     *          their winnings before the unclaimed prizepool is rolled\r\n     *          back into the global prizepool. Only callable by the\r\n     *          Etheraffle address.\r\n     *\r\n     * @param   _newTime    The time desired in seconds.\r\n     */\r\n    function manuallySetWithdrawBefore(uint _newTime) external onlyEtheraffle {\r\n        wdrawBfr = _newTime;\r\n    }\r\n    /**\r\n     * @notice  Set the paused status of the raffles. Only callable by\r\n     *          the Etheraffle address.\r\n     *\r\n     * @param   _status    The desired status of the raffles.\r\n     */\r\n    function manuallySetPaused(bool _status) external onlyEtheraffle {\r\n        pauseContract(_status);\r\n    }\r\n    /**\r\n     * @notice  Set the percentage-of-prizepool array. Only callable by the\r\n     *          Etheraffle address.\r\n     *\r\n     * @param   _newPoP     An array of four integers totalling 1000.\r\n     */\r\n    function manuallySetPercentOfPool(uint[] _newPoP) external onlyEtheraffle {\r\n        pctOfPool = _newPoP;\r\n    }\r\n    /**\r\n\t * @notice\tAllows manual set up of a new raffle via creating a struct\r\n     *          with the correct timestamp and ticket price. Only callable\r\n     *          by the Etheraffle multisig address.\r\n\t *\r\n\t * @param   _week       Desired week number for new raffle struct.\r\n     *\r\n     * @param   _tktPrice   Desired ticket price for the raffle\r\n     *\r\n     * @param   _timeStamp  Timestamp of Mon 00:00 of the week of this raffle\r\n     *\r\n\t */\r\n    function manuallySetupRaffleStruct(uint _week, uint _tktPrice, uint _timeStamp) external onlyEtheraffle {\r\n        setUpRaffleStruct(_week, _tktPrice, _timeStamp);\r\n    }\r\n\t/**\r\n\t * @notice\tManually sets the withdraw status of a raffle. Only\r\n     *          callable by the Etheraffle multisig.\r\n\t *\r\n\t * @param   _week   Week number for raffle in question.\r\n     *\r\n     * @param   _status Desired withdraw status for raffle.\r\n     *\r\n\t */\r\n    function manuallySetWithdraw(uint _week, bool _status) external onlyEtheraffle {\r\n        setWithdraw(_week, _status);\r\n    }\r\n    /**\r\n\t * @notice\tManually sets the global week variable. Only callable\r\n     *          by the Etheraffle multisig wallet.\r\n\t *\r\n\t * @param   _week   Desired week number.\r\n     *\r\n\t */\r\n    function manuallySetWeek(uint _week) external onlyEtheraffle {\r\n        setWeek(_week);\r\n    }\r\n        /**\r\n     * @notice  Manually make an Oraclize API call, incase of automation\r\n     *          failure. Only callable by the Etheraffle address.\r\n     *\r\n     * @param   _delay      Either a time in seconds before desired callback\r\n     *                      time for the API call, or a future UTC format time\r\n     *                      for the desired time for the API callback.\r\n     *\r\n     * @param   _week       The week number this query is for.\r\n     *\r\n     * @param   _isRandom   Whether or not the api call being made is for\r\n     *                      the random.org results draw, or for the \r\n     *                      Etheraffle API results call.\r\n     *\r\n     * @param   _isManual   The Oraclize call back is a recursive function in\r\n     *                      which each call fires off another call in perpetuity.\r\n     *                      This bool allows that recursiveness for this call to\r\n     *                      be turned on or off depending on caller's requirements.\r\n     *\r\n     * @param   _status     The desired paused status of the contract.\r\n     *\r\n     */\r\n    function manuallyMakeOraclizeCall(uint _week, uint _delay, bool _isRandom, bool _isManual, bool _status) onlyEtheraffle external {\r\n        pauseContract(_status);\r\n        sendQuery(_delay, getQueryString(_isRandom, _week), _week, _isRandom, _isManual);\r\n    }\r\n    /**\r\n     * @notice  Manually edit (or make!) a query ID struct, that Oraclize callbacks \r\n     *          can reference.\r\n     *\r\n     * @param   _ID         Desired keccak hash key for the struct\r\n     *\r\n     * @param   _weekNo     Desired week/raffle number the struct refers to. \r\n     *\r\n     * @param   _isRandom   Whether or not the api call being made is for\r\n     *                      the random.org results draw, or for the Etheraffle\r\n     *                      API results call.\r\n     *\r\n     * @param   _isManual   The Oraclize call back is a recursive function in\r\n     *                      which each call fires off another call in perpetuity.\r\n     *                      This bool allows that recursiveness for this call to be\r\n     *                      turned on or off depending on caller's requirements.\r\n     *\r\n     */\r\n    function manuallyModifyQID(bytes32 _ID, uint _weekNo, bool _isRandom, bool _isManual) onlyEtheraffle external {\r\n        modifyQIDStruct(_ID, _weekNo, _isRandom, _isManual);\r\n    }\r\n    /**\r\n     *\r\n     *      ##########################################\r\n     *      ###                                    ###\r\n     *      ###              Getters               ###\r\n     *      ###                                    ###\r\n     *      ##########################################\r\n     *\r\n     */\r\n    /**\r\n     * @notice  Get a entrant's number of entries into a specific raffle\r\n     *\r\n     * @param   _week       The week number of the raffle in question.\r\n     *\r\n     * @param   _entrant    The entrant in question.\r\n     *\r\n     * @return  The number of entries an entrant has made in a given raffle.\r\n     *\r\n     */\r\n    function getUserNumEntries(address _entrant, uint _week) constant external returns (uint) {\r\n        return raffle[_week].entries[_entrant].length;\r\n    }\r\n    /**\r\n     * @notice  Get chosen numbers of an entrant, for a specific raffle.\r\n     *          Returns an array.\r\n     *\r\n     * @param   _entrant    The entrant in question's address.\r\n     *\r\n     * @param   _week       The week number of raffle in question.\r\n     *\r\n     * @param   _entryNum   The entrant's entry number in this raffle.\r\n     *\r\n     * @return  The hash of an entrant's entry numbers in the specified raffle. \r\n     *\r\n     */\r\n    function getChosenNumbersHash(address _entrant, uint _week, uint _entryNum) constant external returns (bytes32) {\r\n        return raffle[_week].entries[_entrant][_entryNum-1];\r\n    }\r\n    /**\r\n     * @notice  Get winning details of a raffle, ie, it's winning numbers\r\n     *          and the prize amounts. Returns two arrays.\r\n     *\r\n     * @param   _week   The week number of the raffle in question.\r\n     *\r\n     * @return  The two arrays stored in the given raffle's struct, \r\n     *          containing if set the winning numbers and the winning\r\n     *          winning amounts respectively.\r\n     *\r\n     */\r\n    function getWinningDetails(uint _week) constant external returns (uint[], uint[]) {\r\n        return (raffle[_week].winNums, raffle[_week].winAmts);\r\n    }\r\n    /**\r\n     *\r\n     *      ##########################################\r\n     *      ###                                    ###\r\n     *      ###         Upgrade Functions          ###\r\n     *      ###                                    ###\r\n     *      ##########################################\r\n     *\r\n     */\r\n    /**\r\n     * @notice  Upgrades the Etheraffle contract. Only callable by the\r\n     *          Etheraffle address. Calls an addToPrizePool method as\r\n     *          per the abstract contract above. Function renders the\r\n     *          entry method uncallable, cancels the Oraclize recursion,\r\n     *          then zeroes the prizepool and sends the funds to the new\r\n     *          contract. Sets a var tracking when upgrade occurred and logs\r\n     *          the event.\r\n     *\r\n     * @param   _newAddr   The new contract address.\r\n     */\r\n    function upgradeContract(address _newAddr) onlyEtheraffle external {\r\n        require(upgraded == 0 && upgradeAddr == address(0));\r\n        uint amt    = prizePool;\r\n        upgradeAddr = _newAddr;\r\n        upgraded    = now;\r\n        week        = 0;\r\n        prizePool   = 0;\r\n        gasAmt      = 0;\r\n        apiStr1     = \"\";\r\n        randomStr1  = \"\";\r\n        require(this.balance >= amt);\r\n        EtheraffleUpgrade(_newAddr).manuallyAddToPrizePool.value(amt)();\r\n        emit LogUpgrade(_newAddr, amt, upgraded);\r\n    }\r\n    /**\r\n     * @notice  Self destruct contract. Only callable by Etheraffle address.\r\n     *          function. It deletes all contract code and data and forwards\r\n     *          any remaining ether from non-claimed winning raffle tickets\r\n     *          to the EthRelief charity contract. Requires the upgrade contract\r\n     *          method to have been called 10 or more weeks prior, to allow\r\n     *          winning tickets to be claimed within the usual withdrawal time\r\n     *          frame.\r\n     */\r\n    function selfDestruct() onlyEtheraffle external {\r\n        require(now - upgraded > WEEKDUR * 10);\r\n        selfdestruct(ethRelief);\r\n    }\r\n}\r\n\r\n",
  "sourcePath": "C:\\Users\\Greg\\Desktop\\ER\\solidity\\contracts\\etheraffle.sol",
  "compiler": {
    "name": "solc",
    "version": "0.4.24+commit.e67f0147.Emscripten.clang"
  },
  "schemaVersion": "2.0.0",
  "updatedAt": "2018-06-10T21:23:50.231Z"
}