{
  "contractName": "ReceiverInterface",
  "abi": [
    {
      "constant": false,
      "inputs": [],
      "name": "receiveEther",
      "outputs": [],
      "payable": true,
      "stateMutability": "payable",
      "type": "function"
    }
  ],
  "bytecode": "0x6080604052348015600f57600080fd5b50607a8061001e6000396000f300608060405260043610603f576000357c0100000000000000000000000000000000000000000000000000000000900463ffffffff168063a3912ec8146044575b600080fd5b604a604c565b005b5600a165627a7a723058207e8c96f647e5080714057371039a8f7adf03d7d0e1ed479943b82e42b8cf39410029",
  "source": "/*\r\n *      ##########################################\r\n *      ##########################################\r\n *      ###                                    ###\r\n *      ###          ğğ¥ğšğ² & ğ–ğ¢ğ§ ğ„ğ­ğ¡ğğ«          ###\r\n *      ###                 at                 ###\r\n *      ###          ğ„ğ“ğ‡ğ„ğ‘ğ€ğ…ğ…ğ‹ğ„.ğ‚ğğŒ          ###\r\n *      ###                                    ###\r\n *      ##########################################\r\n *      ##########################################\r\n *\r\n *      Welcome to the temporary ğ„ğ­ğ¡ğğ«ğšğŸğŸğ¥ğ ğƒğ¢ğ¬ğ›ğ®ğ«ğ¬ğšğ¥ ğ‚ğ¨ğ§ğ­ğ«ğšğœğ­. \r\n *      It's currently a place-holder whose only functionality is \r\n *      forward-compatability with the soon-to-be-deployed actual \r\n *      contract. \r\n *\r\n *      Its job is to accrue funds generated by ğ„ğ­ğ¡ğğ«ğšğŸğŸğ¥ğ to pay out \r\n *      as ğğ¢ğ¯ğ¢ğğğ§ğğ¬ to the ğ‹ğğ“ token holders. But that's only the \r\n *      start. ğ‹ğğ“ token holders will form a ğƒğ€ğ who own and run \r\n *      ğ„ğ­ğ¡ğğ«ğšğŸğŸğ¥ğ, and will be able to vote of the future of the \r\n *      platform via this very contract! They'll also get to say where \r\n *      ğ„ğ­ğ¡ğ‘ğğ¥ğ¢ğğŸ - Etheraffle's charitable arm - funds go to as well. \r\n *      All whilst earning a ğğ¢ğ¯ğ¢ğğğ§ğ from ticket sales of ğ„ğ­ğ¡ğğ«ğšğŸğŸğ¥ğ! \r\n *\r\n *\r\n *                     ğ„ğ±ğœğ¢ğ­ğ¢ğ§ğ  ğ­ğ¢ğ¦ğğ¬ - ğ¬ğ­ğšğ² ğ­ğ®ğ§ğğ!\r\n *\r\n *\r\n *      Learn more and take part at ğ¡ğ­ğ­ğ©ğ¬://ğğ­ğ¡ğğ«ğšğŸğŸğ¥ğ.ğœğ¨ğ¦/ğ¢ğœğ¨\r\n *      Or if you want to chat to us you have loads of options:\r\n *      On ğ“ğğ¥ğğ ğ«ğšğ¦ @ ğ¡ğ­ğ­ğ©ğ¬://ğ­.ğ¦ğ/ğğ­ğ¡ğğ«ğšğŸğŸğ¥ğ\r\n *      Or on ğ“ğ°ğ¢ğ­ğ­ğğ« @ ğ¡ğ­ğ­ğ©ğ¬://ğ­ğ°ğ¢ğ­ğ­ğğ«.ğœğ¨ğ¦/ğğ­ğ¡ğğ«ğšğŸğŸğ¥ğ\r\n *      Or on ğ‘ğğğğ¢ğ­ @ ğ¡ğ­ğ­ğ©ğ¬://ğğ­ğ¡ğğ«ğšğŸğŸğ¥ğ.ğ«ğğğğ¢ğ­.ğœğ¨ğ¦\r\n *\r\n */\r\npragma solidity^0.4.21;\r\n\r\ncontract ReceiverInterface {\r\n    function receiveEther() external payable {}\r\n}\r\n\r\ncontract EtheraffleDisbursal {\r\n\r\n    bool    upgraded;\r\n    address etheraffle;\r\n    /**\r\n     * @dev  Modifier to prepend to functions rendering them\r\n     *       only callable by the Etheraffle multisig address.\r\n     */\r\n    modifier onlyEtheraffle() {\r\n        require(msg.sender == etheraffle);\r\n        _;\r\n    }\r\n    event LogEtherReceived(address fromWhere, uint howMuch, uint atTime);\r\n    event LogUpgrade(address toWhere, uint amountTransferred, uint atTime);\r\n    /**\r\n     * @dev   Constructor - sets the etheraffle var to the Etheraffle\r\n     *        managerial multisig account.\r\n     *\r\n     * @param _etheraffle   The Etheraffle multisig account\r\n     */\r\n    function EtheraffleDisbursal(address _etheraffle) {\r\n        etheraffle = _etheraffle;\r\n    }\r\n    /**\r\n     * @dev   Upgrade function transferring all this contract's ether\r\n     *        via the standard receive ether function in the proposed\r\n     *        new disbursal contract.\r\n     *\r\n     * @param _addr    The new disbursal contract address.\r\n     */\r\n    function upgrade(address _addr) onlyEtheraffle external {\r\n        upgraded = true;\r\n        emit LogUpgrade(_addr, this.balance, now);\r\n        ReceiverInterface(_addr).receiveEther.value(this.balance)();\r\n    }\r\n    /**\r\n     * @dev   Standard receive ether function, forward-compatible\r\n     *        with proposed future disbursal contract.\r\n     */\r\n    function receiveEther() payable external {\r\n        emit LogEtherReceived(msg.sender, msg.value, now);\r\n    }\r\n    /**\r\n     * @dev   Set the Etheraffle multisig contract address, in case of future\r\n     *        upgrades. Only callable by the current Etheraffle address.\r\n     *\r\n     * @param _newAddr   New address of Etheraffle multisig contract.\r\n     */\r\n    function setEtheraffle(address _newAddr) onlyEtheraffle external {\r\n        etheraffle = _newAddr;\r\n    }\r\n    /**\r\n     * @dev   selfDestruct - used here to delete this placeholder contract\r\n     *        and forward any funds sent to it on to the final disbursal\r\n     *        contract once it is fully developed. Only callable by the\r\n     *        Etheraffle multisig.\r\n     *\r\n     * @param _addr   The destination address for any ether herein.\r\n     */\r\n    function selfDestruct(address _addr) onlyEtheraffle {\r\n        require(upgraded);\r\n        selfdestruct(_addr);\r\n    }\r\n    /**\r\n     * @dev   Fallback function that accepts ether and announces its\r\n     *        arrival via an event.\r\n     */\r\n    function () payable external {\r\n    }\r\n}\r\n",
  "sourcePath": "C:\\Users\\Greg\\Desktop\\ER\\solidity\\contracts\\disbursalPlaceholder.sol",
  "compiler": {
    "name": "solc",
    "version": "0.4.24+commit.e67f0147.Emscripten.clang"
  },
  "schemaVersion": "2.0.0",
  "updatedAt": "2018-06-06T15:12:27.748Z"
}